25150223742018000001922057004644ABABSA                   KENZA                    06101992003M0006889740003M0006889740003M0006889740003M000688974000002755896001122015                            
25150223742018000002850462004943ABACHE                   IMANE                    16031985003M0008771175003M0009886250003M0009229425003M000922942500003711627530122010                            
25150223742018000003573436000159ABADA                    ABDELFATEH               14061957003M0051458325003M0051458325003M0051458325003M005145832500020583330010101990                            
25150223742018000004785289001236ABADA                    ASMA                     24041978003M0015665850003M0015665850003M0015665850003M001566585000006266340003122017                            
25150223742018000005650435004356ABADA                    NADJAT                   25091965000J0000000000000J0000000000000J0000000000003J001152000000001152000001122018                            
25150223742018000006750227017844ABADLI                   SALAH                    17031975003M0052584000003M0060106560003M0055176000003M005517600000022304256015122017                            
25150223742018000007782959000837ABADLI                   NOUR EL HOUDA            16101978003M0014155200003M0016342200003M0014811300003M001481130000006012000001122015                            
25150223742018000008641158002553ABBADI                   NORA                     14111964003M0007760040003M0007760040003M0007119874003M000776004000003039999416102000                            
25150223742018000009591519000656ABBAOUI                  AZIZ                     25051959000M0000000000000M0000000000000M0000000000000M000000000000000000000004101988                            
25150223742018000010615758000150ABBAS                    ABLA                     31071961003M0029701125003M0029701125003M0029701125003M002970112500011880450010091985                            
25150223742018000011830627003453ABBAS                    FOUZIA                   10081983003M0023771250003M0060838250003M0035493750003M004521375000016531700002102016                            
25150223742018000012778738000338ABBAS                    MOHAMED REDHA            29061977003M0011416875003M0013291125003M0011818500003M001181850000004834500013122003                            
25150223742018000013871680006040ABBAS                    KARIMA                   23071987000J0000000000003J0001512000000J0000000000003J000172800000000324000001032018                            
25150223742018000014700104017560ABBASSI                  CHERIFA                  22011970000J0000000000003J0000405000000J0000000000000J000000000000000040500001032018                            
25150223742018000015780570011154ABBAZ                    SAMIRA                   01101978003M0015297300003M0019100678003M0017192700003M001719270000006878337829122011                            
25150223742018000016689415000149ABDEDAIM                 MOSTEFA                  09101968003M0011104509003M0012518492003M0011696409003M001169640900004701581917122005                            
25150223742018000017934437001843ABDEDAIM                 HADJER                   03041993000J0000000000003J0000540000000J0000000000003J000072000000000126000001032018                            
25150223742018000018640875003644ABDELALI                 FERHAT                   05111964003M0008157660003M0008157660003M0008157660003M000815766000003263064003112007                            
25150223742018000019884881001337ABDELALI                 MOHAMED LAMINE           10111988000J0000000000003J0003330000000J0000000000003J000249000000000582000001032018                            
25150223742018000020791699002136ABDELAOUI                HOUDA                    25031979003M0027744000003M0027744000003M0027744000003M002774400000011097600030122010                            
25150223742018000021802403000765ABDELAZIZ                OUIDED                   15021980003M0034403775003M0040083900003M0036297150003M003629715000014708197501102007                            
25150223742018000022702016001962ABDELAZIZ                ABDELHAFID               05061970003M0028748625003M0028748625003M0028748625003M003846862500012471450001102015                            
25150223742018000023769698000128ABDELDJELIL              MOHAMED CHERIF           16081976003M0049992000003M0056040000003M0052584000003M005258400000021120000003122005                            
25150223742018000024888426000144ABDELKOUI                FERIEL                   29121988000J0000000000000J0000000000003J0002160000003J000302400000000518400001092018                            
25150223742018000025530067008744ABDELLI                  MOULOUD                  12111953003M0092887500003M0099281100003M0096084300003M009608430000038433720010091985                            
25150223742018000026677149000147ABDELLI                  DJAAFAR                  16071967003M0034618500003M0034618500003M0034618500003M003461850000013847400001091991                            
25150223742018000027821232007946ABDELLI                  SIHEM                    12031982003M0032535375003M0032535375003M0032535375003M003253537500013014150029112009                            
25150223742018000028610823001762ABDELLI                  DALILA                   27011961003M0010966875003M0012036075003M0011323275003M001132327500004564950021091997                            
25150223742018000029640967003544ABDELLI                  REZKI                    08111964003M0008032920003M0008032920003M0008032920003M000803292000003213168008012001                            
25150223742018000030630419014159ABDELLI                  MOURAD                   23101963003M0007474020003M0007658700003M0007658700003M000765870000003045012016052007                            
25150223742018000031800728011457ABDELLOUCHE              NASSIMA                  11011980003M0009270375003M0011676075003M0009671325003M001250718000004312495529122011                            
25150223742018000032908834000344ABDELMOUMEN              RIMA                     30061990003M0013715100003M0019130760003M0015200100003M001520010000006324606010022014                            
25150223742018000033571011001273ABDELMOUMENE             ABLA                     16121957003M0087916800003M0096460800003M0087916800003M011218080000038447520015121985                            
25150223742018000034878476000432ABDEMEZIANE              NADIA                    22121987003M0009582225003M0009582225003M0009582225003M000958222500003832890001032017                            
25150223742018000035791077001150ABDENNOUR                SIHEM                    20041979003M0034403775003M0034403775003M0034403775003M003440377500013761510030122007                            
25150223742018000036874350001251ABDENNOUR                IMENE                    27091987003M0008125200003M0008748900003M0008437050003M000843705000003374820031122014                            
25150223742018000037495517000157ABDERRAHIM               FARIDA                   24101949003M0091113600003M0091113600003M0091113600003M009111360000036445440001101973                            
25150223742018000038654239000156ABDERRAHIM               SIHAM                    06041965003M0012370200003M0012370200003M0012370200003M001237020000004948080011011987                            
25150223742018000039904955001344ABDERREZAK               MERIEM KHAIZOUR          24101990003M0023771250003M0023771250003M0023771250003M002377125000009508500010122017                            
25150223742018000040846455000246ABDERREZAK               MOHAMED ZAKI             12111984000J0000000000000J0000000000003J0000990000003J000090000000000189000001092018                            
25150223742018000041940024046251ABDESSEMAD               OUSSAMA                  07011994000J0000000000000J0000000000000J0000000000003J000162000000000162000001122018                            
25150223742018000042604764000155ABDESSEMED               ALI                      26061960003M0068136000003M0071664000003M0068136000003M006813600000027607200022111988                            
25150223742018000043550017008653ABDOU                    KAMEL                    17021955003M0078895500003M0078895500003M0078895500003M008235150000031903800025021984                            
25150223742018000044791990001441ABED                     KHOUDIR                  06021979003M0039912300003M0050156100003M0052061400003M005638728700019851708715112009                            
25150223742018000045836192000146ABED                     NOUSSEIBA                03051983003M0037688850003M0037688850003M0037688850003M003768885000015075540023092012                            
25150223742018000046691792000742ABER                     ZOUBIR                   11021969003M0009854238003M0011548438003M0010563438003M001056343800004252955203111997                            
25150223742018000047744082001251ABER                     OUARDA                   06041974003M0006952110003M0006952110003M0006952110003M000695211000002780844031122014                            
25150223742018000048735626000254ABEUR                    REDHA                    06051973003M0010966875003M0010966875003M0010966875003M001096687500004386750015091998                            
25150223742018000049511658000755ABID                     ALI                      22111951003M0045739050003M0049525800003M0047632425003M004763242500019052970016101982                            
25150223742018000050813047003352ABID                     RIME                     11081981003M0042107400003M0048692700003M0044302500003M007288591700020798851701102009                            
25150223742018000051870216023553ABID                     AICHA                    30111987003M0023771250003M0023771250003M0023771250003M002377125000009508500009102017                            
25150223742018000052870211029447ABID                     ABDELMOUMEN              17121987000M0000000000003M0000390000000M0000000000003M002669425000002708425023092018                            
25150223742018000053866467000240ABIDAT                   ROUKIA                   09051986000J0000000000000J0000000000003J0001980000003J000090000000000288000001092018                            
25150223742018000054832722001061ABIDI SAAD               AISSA                    18101983000J0000000000000J0000000000000J0000000000003J000972000000000972000001122018                            
25150223742018000055740092022253ABOUD                    HEMAAMA                  28011974003M0028748625003M0038846625003M0030642000003M003064200000012887925002032014                            
25150223742018000056687354000345ABRIT                    RIAD                     27071968003M0015665850003M0015665850003M0015665850003M001566585000006266340020112016                            
25150223742018000057458222000161ABUSARI                  NAWAF                    01091945003M0081523200003M0081523200003M0081523200003M009428160000033885120011021989                            
25150223742018000058821747001055ACHILI                   HOUDA                    27121982003M0032535375003M0039617025003M0034403775003M003440377500014095995018102008                            
25150223742018000059833507000458ACHOU                    LYDIA                    30091983003M0023771250003M0033781305003M0028748625003M002874862500011504980512102015                            
25150223742018000060860038010755ACHOUB                   HANANE                   18021986000J0000000000003J0005616000000J0000000000003J000302400000000864000001032018                            
25150223742018000061553067001156ACHOUR                   ALI                      25071955003M0068136000003M0068136000003M0068136000003M006813600000027254400003091987                            
25150223742018000062490229004455ACHOUR                   SLIMANE                  27011949000J0000000000000J0000000000000J0000000000003J001476000000001476000001122018                            
25150223742018000063820767001746ACHOURI                  AMEL                     30111982000M0000000000000M0000000000000M0000000000003M004754250000004754250001072018                            
25150223742018000064840745000653ADACI                    SANA                     15061984003M0032535375003M0032535375003M0032535375003M003253537500013014150015112009                            
25150223742018000065892118001552ADALA                    AMINA                    13021989000J0000000000003J0000990000000J0000000000003J000090000000000189000001032018                            
25150223742018000066890062034940ADI                      FATEN                    13091989000M0000000000000M0000000000000M0000000000003M001611162500001611162531102018                            
25150223742018000067804956000347ADJABI                   MESSAOUD                 16111980003M0010230216003M0012090937003M0011067141003M001106714100004445543517122005                            
25150223742018000068811227010066ADJAILIA                 MOHAMED SEDDIK           23011981000M0000000000003M0056786875003M0023771250003M002377125000010432937526112017                            
25150223742018000069780952004840ADJEROUD                 MOUSSA                   09061978003M0032535375003M0032535375003M0032535375003M003253537500013014150012102015                            
25150223742018000070830038014354ADJEROUD                 MOUSTAFA                 02011983003M0016008075003M0017429625003M0016718850003M001671885000006687540031122009                            
25150223742018000071830561001060ADJIMI                   AMEL                     10011983000J0000000000003J0002376000000J0000000000003J000280800000000518400001032018                            
25150223742018000072755195000541ADJISSI                  NOUZHA                   20121975003M0016718850003M0019468350003M0017956125003M001795612500007209945029122011                            
25150223742018000073520059010067ADJOUL                   HENIA                    01041952003M0075277500003M0075277500003M0086797500003M008679750000032415000017091977                            
25150223742018000074791303002460ADLANI                   AMEL                     12081979003M0034403775003M0034403775003M0034403775003M004412377500014733510002122006                            
25150223742018000075741231001365ADOUI                    FAIZA                    28011974003M0042107400003M0050887800003M0052702500003M005402250000019972020001102007                            
25150223742018000076844453000450ADOUI                    FARIDA                   21031984000J0000000000000J0000000000003J0002452500003J000240750000000486000001092018                            
25150223742018000077660270009839AFFOUN                   SAMIA                    02111966000J0000000000000J0000000000000J0000000000003J000972000000000972000001122018                            
25150223742018000078873767000341AFOUTNI                  LARBI                    16091987003M0028748625003M0028748625003M0028748625003M000768387500009392975014122015                            
25150223742018000079530008014366AFRI                     FATIMA ZOHRA             10011953003M0070728000003M0070728000003M0070728000003M013853493300035071893317091978                            
25150223742018000080788503000152AGABOU                   AMIR                     08071978003M0047400000003M0057768000003M0049992000003M006295200000021811200031122008                            
25150223742018000081759699000128AGGOUN                   CHERIFA                  14081975003M0046497600003M0046497600003M0046497600003M004649760000018599040015092003                            
25150223742018000082720262019345AGGOUN                   MOUFIDA                  07101972003M0044302500003M0044302500003M0044302500003M005230795000018521545003122005                            
25150223742018000083760399002837AGGOUN                   NACIRA                   09021976003M0036297150003M0036297150003M0036297150003M003629715000014518860003102004                            
25150223742018000084770376003148AGGOUN                   YAZID                    24031977003M0017192700003M0017192700003M0017192700003M001719270000006877080031122009                            
25150223742018000085683025000163AGGOUN                   SONIA                    11031968003M0013814475003M0013814475003M0013814475003M001381447500005525790022041989                            
25150223742018000086711713001563AGGOUN                   GHANIA                   09021971003M0012968025003M0012968025003M0012968025003M001296802500005187210015061997                            
25150223742018000087807910000256AGGOUN                   NABILA                   14061980003M0009596400003M0012763500003M0010009500003M001000950000004237890010022014                            
25150223742018000088784491000739AGGOUN                   YOUCEF                   05041978003M0008891700003M0008891700003M0008891700003M000889170000003556680025062015                            
25150223742018000089770344002158AGGOUN                   NADIA                    08061977003M0008047275000M0000000000000M0000000000000M000000000000000804727503122017                            
25150223742018000090560297007141AGGOUNE                  MOHSEN                   07101956003M0091113600003M0091113600003M0091113600003M007832640000035166720026031988                            
25150223742018000091710286006840AGGOUNE                  ABDEREZAK                17031971003M0008012400003M0008012400003M0008012400003M000801240000003204960025101997                            
25150223742018000092790173012053AGGOUNE                  FATEH                    18011979000J0000000000000J0000000000000J0000000000003J000561600000000561600001122018                            
25150223742018000093541230001469AGLI                     ABDENACER                05121954003M0095946600003M0095946600003M0095946600003M011070660000039854640019091983                            
25150223742018000094831508002457AGRED                    RYM                      08031983000J0000000000003J0001440000000J0000000000000J000000000000000144000001032018                            
25150223742018000095787671000339AGUIB                    SIHEM                    20061978003M0039778200003M0042107400003M0042107400003M008306324000020705624031122008                            
25150223742018000096831887001144AGUIS                    MOHAMED                  27081983003M0028748625003M0028748625003M0028748625003M002874862500011499450001102015                            
25150223742018000097790102010072AHMED ABDELMALEK         HABIBA                   04031979003M0011020575003M0014777625003M0011532900003M000960510000004693620023022014                            
25150223742018000098902805001755AHMED CHAOUCH            MEROUA                   06121990000J0000000000003J0001080000000J0000000000003J000099000000000207000001032018                            
25150223742018000099934530001057AIACHI                   HIBA                     26101993000J0000000000003J0001080000000J0000000000003J000216000000000324000001032018                            
25150223742018000100742515001558AIB                      ABDELATIF                26021974003M0034403775003M0034403775003M0034403775003M005948335500016269468002032014                            
25150223742018000101560148005452AIB                      NADIA                    09051956003M0020004800000M0000000000000M0000000000000M000000000000002000480025021985                            
25150223742018000102796930000346AICHAOUI                 HOUDA                    13051979003M0036297150003M0036297150003M0036297150003M003629715000014518860012122004                            
25150223742018000103780029019441AICHAOUI                 SAMI                     01011978003M0008220030003M0008220030003M0008220030003M000822003000003288012003112004                            
25150223742018000104761863001052AIDOUCI                  HAFSA                    13101976003M0015297300003M0015297300003M0015297300003M001529730000006118920001122015                            
25150223742018000105776418000448AIEB                     NABIL                    00001977003M0009382580003M0009382580003M0009382580003M000938258000003753032020122003                            
25150223742018000106627131000162AIECHE                   MALIKA                   18091962003M0007954927003M0007954927003M0007954927003M000762303200003148781305091995                            
25150223742018000107800010029457AIED                     MOHAMED                  03011980003M0009596400003M0012763500003M0010009500003M001000950000004237890010022014                            
25150223742018000108824494002142AIFOUR                   MOHAMED CHERIF           26031982000J0000000000003J0003600000003J0004050000000J000000000000000765000001032018                            
25150223742018000109762454000156AIHAR                    NOUDJOUD                 16021976003M0013537650003M0013537650003M0013537650003M001353765000005415060001102002                            
25150223742018000110653384000350AIMAR                    BELKACEM                 16031965003M0011679675003M0011679675003M0011679675003M001167967500004671870015021997                            
25150223742018000111620060017850AIMAT                    MOSTEFA                  08101962003M0012388875003M0014282250003M0012767550003M001276755000005220622517031990                            
25150223742018000112677521000155AIMENE                   NADJET                   10111967003M0015297300003M0015297300003M0015297300003M001529730000006118920031122012                            
25150223742018000113570123009650AIMEUR                   RACHIDA                  06081957003M0068136000003M0068136000003M0068136000003M008109600000028550400024021986                            
25150223742018000114690516008643AIMEUR                   FAYCAL                   11011969003M0036297150003M0036297150003M0036297150003M004781715000015670860012122004                            
25150223742018000115798090000240AIMOUR                   OIRDA                    03061979003M0010240950003M0012267975003M0010708725003M001070872500004392637501122014                            
25150223742018000116797347000143AIOUNE                   HANANE                   26121979003M0015297300003M0015297300003M0015297300003M001529730000006118920010122013                            
25150223742018000117674297000342AISSA                    KARIM                    14061967003M0012243750003M0012243750003M0012243750003M001224375000004897500008011995                            
25150223742018000118660156006547AISSANI                  RADOUANE                 07101966003M0042578025003M0042578025003M0042578025003M006737051000019510458501102007                            
25150223742018000119781196002244AISSANI                  OUAFA                    19051978003M0032535375003M0041254575003M0034403775003M004412377500015231750015112009                            
25150223742018000120685865000242AISSAOUI                 HABIB                    04061968003M0080597100003M0080597100003M0080597100003M009535710000033714840021102000                            
25150223742018000121767352000248AISSAOUI                 AMEL                     13061976003M0044302500003M0049424400003M0046497600003M004649760000018672210014122004                            
25150223742018000122661554000456AISSAOUI                 CHAFIKA                  15111966003M0040820850003M0047835450003M0042713550003M004271355000017408340003092005                            
25150223742018000123787424000150AISSAOUI                 MANEL                    12061978003M0016429275003M0019737450003M0017192700003M001719270000007055212501122014                            
25150223742018000124640369006245AISSAOUI                 BACHAGHA                 04061964003M0010563438003M0012226638003M0010875288003M001087528800004454065230111998                            
25150223742018000125842320000761AISSAOUI                 HANANE                   11021984000J0000000000003J0004104000000J0000000000003J000410400000000820800001032018                            
25150223742018000126710334006752AISSAOUI ZITOUN          OUARDA                   01041971003M0059563500003M0062155500003M0062155500003M006215550000024603000012122004                            
25150223742018000127701368001652AISSAT                   NADIA                    10051970000J0000000000003J0000294000000J0000000000000J000000000000000029400001032018                            
25150223742018000128901431003062AISSOUS                  IMANE                    05121990000J0000000000003J0002100000000J0000000000000J000000000000000210000001032018                            
25150223742018000129903812001259AISSOUS                  MERIEM                   04101990000J0000000000003J0001980000000J0000000000000J000000000000000198000001032018                            
25150223742018000130608371000152AIT ABDELOUAHAB          DJAOUZA                  06121960003M0047632425003M0047632425003M0047632425003M004763242500019052970027101984                            
25150223742018000131863861001741AIT ABDESSELAM           ADEL                     26091986003M0009582225003M0009582225003M0009582225003M000958222500003832890020112016                            
25150223742018000132783486000936AIT KAKI                 AMEL                     14031978003M0044302500003M0044302500003M0044302500003M004430250000017721000001092004                            
25150223742018000133680204017355AIT KAKI                 LEILA                    03011968000J0000000000000J0000000000000J0000000000003J000972000000000972000001122018                            
25150223742018000134917875000237AIT KAKI                 LAMIA GHANIMA            25121991000J0000000000003J0001080000000J0000000000003J000099000000000207000001032018                            
25150223742018000135623720000266AIT MOUSSA               KARIM                    29041962003M0087916800003M0098236800003M0087916800003M010087680000037494720003091986                            
25150223742018000136885810000352AIT OUAKLI               THILELLI                 07111988000J0000000000003J0001800000000J0000000000003J000162000000000342000001032018                            
25150223742018000137614958000348AIT OUMEZIANE            RABAH YATI               21061961003M0024984900003M0024984900003M0024984900003M002498490000009993960016101993                            
25150223742018000138730249013254AKAAB                    FRIHA                    07031973003M0010727925003M0013342875003M0011679675003M001167967500004743015022011994                            
25150223742018000139596129000153AKACHAT                  NOUARA                   23091959003M0007760040000M0000000000000M0000000000000M000000000000000776004017092000                            
25150223742018000140830471002552AKEL                     FATIMA ZOHRA             19031983003M0028748625003M0028748625003M0026849625003M002305162500010739850001102015                            
25150223742018000141841314007450AKIL                     FATMA                    27051984000M0000000000000M0000000000000M0000000000003M000836760000000836760001112018                            
25150223742018000142620163010464AKKAL                    SALAH                    19041962003M0091402500003M0091402500003M0091402500003M010829370000038250120001101989                            
25150223742018000143690959000743AKKOUCHE                 SALIMA                   04111969003M0011679675003M0013461675003M0012036075003M001203607500004921350025091991                            
25150223742018000144927595000334AKKOUCHE                 ISMAIL                   28051992000J0000000000003J0001710000000J0000000000003J000153000000000324000001032018                            
25150223742018000145660166005052AKKOUCHI                 KAMEL                    21031966003M0032535375003M0032535375003M0040860375003M004428037500015021150024112010                            
25150223742018000146851156007144AKLIL                    BADIAA                   12041985003M0030642000003M0040108875003M0032535375003M006077965300016406590301102013                            
25150223742018000147750069014347AKNI                     AHCENE                   02011975003M0044299800003M0044299800003M0044299800003M004576320000017866260002032014                            
25150223742018000148701937001653AKNI                     NADJIB                   19021970003M0019246050003M0019246050003M0019246050003M001924605000007698420031122009                            
25150223742018000149694858000242AKNI                     HOCINE                   08051969003M0012243750003M0012243750003M0012243750003M001224375000004897500011111995                            
25150223742018000150700749002354AKNI                     RIAD                     22101970003M0008032920003M0008032920003M0008032920003M000803292000003213168006092001                            
25150223742018000151670314011959ALALLOUCHE               NADJI                    27101967003M0011679675003M0012392475003M0012036075003M001203607500004814430015011991                            
25150223742018000152502159000659ALATOU                   DJAMEL                   06071950003M0096581100003M0096581100003M0096581100003M011134110000040108440023091979                            
25150223742018000153836131000258ALATOU                   RADIA                    02051983003M0051787500003M0051787500003M0051787500003M005265150000020801400028112010                            
25150223742018000154911453003154ALATOU                   HANA                     24091991000J0000000000003J0001770000000J0000000000003J000162000000000339000001032018                            
25150223742018000155584193000249ALI KHODJA               HOCINE                   07071958003M0091113600003M0091113600003M0091113600003M010587360000037921440016061984                            
25150223742018000156440524001369ALI KHODJA               JAMEL                    26051944003M0091113600003M0091113600003M0091113600003M010740960000038075040001121973                            
25150223742018000157541639000854ALI LAOUAR               ABDELHAMID               16051954000M0000000000003M0004417875000M0000000000000M000000000000000441787503051987                            
25150223742018000158844711000754ALI SRIHEN               BILLEL                   07101984000J0000000000000J0000000000003J0002160000003J000108000000000324000001092018                            
25150223742018000159688590000139ALIOUA                   AHLEM                    09091968000J0000000000000J0000000000000J0000000000003J000972000000000972000001122018                            
25150223742018000160795515000351ALIOUCHE                 LAMIA                    15041979003M0032535375003M0040631775003M0034403775003M004904066200015661158703122009                            
25150223742018000161530028012564ALIOUECHE                AHMED                    14011953003M0051394200003M0051394200003M0051394200003M005139420000020557680018021984                            
25150223742018000162930245012751ALIOUECHE                MERYEM                   22031993000J0000000000000J0000000000003J0000450000003J000361500000000406500001092018                            
25150223742018000163710868001450ALLA                     AMOR                     03101971003M0030174300003M0039312225003M0031786875003M003178687500013306027515112009                            
25150223742018000164560234003461ALLAG                    SAADOUN                  00001956003M0053351700003M0053351700003M0053351700003M005335170000021340680007091983                            
25150223742018000165760721004455ALLAG                    NADJIMA                  12111976003M0034403775003M0048288525003M0036297150003M003629715000015528660003092005                            
25150223742018000166736526000154ALLAL                    SAMIHA                   27051973003M0030174300003M0030174300003M0030174300003M003017430000012069720003092005                            
25150223742018000167781853000351ALLAL                    SABAH                    20091978003M0009582225003M0012262650003M0010005450003M001000545000004185577530122010                            
25150223742018000168880277003442ALLALI                   KHAIREDDINE              07101988003M0035493750003M0035493750003M0035493750003M003549375000014197500001102015                            
25150223742018000169871206000957ALLAM                    SIHEM                    11041987003M0008125200003M0008125200003M0008125200003M000812520000003250080020112016                            
25150223742018000170690157008440ALLAOUI                  KHAMSSA                  03011969003M0052584000003M0052584000003M0052584000003M010418709300026193909303122005                            
25150223742018000171782890000245ALLAOUI                  ASSIA                    11061978003M0030642000003M0030642000003M0030642000003M003064200000012256800031102012                            
25150223742018000172561514000466ALLIA                    NACEREDDINE              13101956003M0049500825003M0049500825003M0049500825003M004950082500019800330004031982                            
25150223742018000173740568006143ALLIOUCHE                HAYETTE                  19091974003M0044302500003M0044302500003M0044302500003M005582250000018873000001102011                            
25150223742018000174760815008741ALLIOUCHE                SALIMA                   15011976003M0010009500003M0010009500003M0010009500003M001000950000004003800011022014                            
25150223742018000175922995001833ALLOUACHE                MEHDI                    13091992000J0000000000003J0000390000000J0000000000000J000000000000000039000001032018                            
25150223742018000176720296004940ALLOUANI                 RAZIKA                   28061972003M0015801600003M0017940000003M0016336200003M001633620000006641400013071997                            
25150223742018000177570207003364ALLOUECHE                YAMINA                   05061957003M0017131400000M0000000000000M0000000000000M000000000000001713140010101983                            
25150223742018000178790216026844ALLOUI                   NASSIRA                  20051979003M0008891700003M0010532625003M0009270375003M000927037500003796507501122014                            
25150223742018000179730364002455ALLOUI                   OUAHIBA                  24091973003M0008125200003M0008125200003M0008125200003M000695880000003133440022062015                            
25150223742018000180772002000666ALLOUI                   ZOHRA                    21061977003M0008032884003M0008032884003M0008032884003M000803288400003213153610101993                            
25150223742018000181859972000233ALMI                     HIBA                     27061985003M0023771250003M0053207750003M0035493750003M003549375000014796650014112016                            
25150223742018000182890652012843ALMI                     YAHIA                    27031989000J0000000000003J0001800000003J0001800000000J000000000000000360000001032018                            
25150223742018000183758914000247ALOUA                    SAMIR                    24071975003M0008032920003M0008032920003M0008032920003M000803292000003213168003022001                            
25150223742018000184884802000453ALOUACHE                 AMEL                     31031988003M0023771250003M0028739250003M0029747250003M002377125000010602900002102017                            
25150223742018000185650113016162ALOUACHE                 LAKHDAR                  19101965003M0011307318003M0011307318003M0011307318003M001130731800004522927214071990                            
25150223742018000186635934000253ALOUACHE                 MIMIA                    27051963003M0006952110003M0006952110003M0006952110003M000695211000002780844001122014                            
25150223742018000187901605001462ALOUANE                  SOUAD                    19081990000J0000000000003J0000780000003J0003210000003J000132000000000531000001032018                            
25150223742018000188712048000559ALOUI                    KHEMISSA                 20091971003M0023771250003M0023771250003M0023771250003M002377125000009508500002102017                            
25150223742018000189691153001654ALOUI                    MAHFOUD                  05121969003M0013070625003M0013070625003M0013070625003M001307062500005228250007121994                            
25150223742018000190660002017361AMAMRA                   MOHAMED EL YAZI          01011966003M0015564675003M0016760100003M0016077000003M001607700000006447877527051991                            
25150223742018000191552299000447AMARA                    IDRIS                    19091955003M0084720000003M0084720000003M0084720000003M008472000000033888000009111986                            
25150223742018000192668921000249AMARA                    FAOUZI                   31081966003M0068736000003M0072960000003M0069576000003M007619520000028746720003122002                            
25150223742018000193826097000638AMARI                    KAMEL                    25041982003M0007014480003M0007014480003M0007014480003M000701448000002805792022122013                            
25150223742018000194580771000752AMEDDAH                  SOUAD                    10051958003M0087916800003M0087916800003M0087916800003M010267680000036642720029101983                            
25150223742018000195650286014940AMEDJOUDJ                NOUAR                    11111965003M0044302500003M0044302500003M0044302500003M004430250000017721000001102007                            
25150223742018000196850771014740AMEDJOUDJ                WISSAME                  07071985003M0006827370003M0006827370003M0006827370003M000682737000002730948020112016                            
25150223742018000197930432013257AMER YAHIA               THIZIRI                  22021993000J0000000000000J0000000000003J0002385000003J000360000000000598500001092018                            
25150223742018000198590266017144AMEUR                    CHERIF                   12051959003M0010409286003M0011834886003M0010676586003M001067658600004359734411102000                            
25150223742018000199751054004353AMEUR                    LAZHAR                   24031975003M0008157660003M0008157660003M0008157660003M000815766000003263064017072004                            
25150223742018000200520020024271AMEUR                    SALIHA                   16031952000J0000000000000J0000000000000J0000000000003J000096000000000096000001122018                            
25150223742018000201922869002735AMEUR                    IMENE                    03091992000J0000000000003J0003120000000J0000000000000J000000000000000312000001032018                            
25150223742018000202660489000844AMEZIANE                 FELLA                    08051966003M0023771250003M0023771250003M0023771250003M003444495500010575870520112016                            
25150223742018000203697471000144AMIAR                    MOHAMED                  22071969003M0012645375003M0012645375003M0012645375003M001264537500005058150003111993                            
25150223742018000204661758000549AMIAR                    FELLA                    20111966003M0012370200003M0012370200003M0012370200003M001237020000004948080019101985                            
25150223742018000205720938002848AMINE KHODJA             AMINA                    24101972003M0075129600003M0075129600003M0075129600003M007512960000030051840023011999                            
25150223742018000206774847000740AMINE KHODJA             MEDJDOUB                 02041977003M0040684650003M0045102525003M0042578025003M005229802500018066322512122004                            
25150223742018000207881149008435AMINE KHODJA             IMENE                    05081988003M0023771250003M0058678250003M0035493750003M003549375000015343700002102016                            
25150223742018000208762012002661AMIOUR                   LEILA                    04021976003M0039912300003M0052424100003M0042107400003M004179420000017623800015112009                            
25150223742018000209918062000248AMIOUR                   MERIEM                   30121991003M0009070575003M0009582225003M0009582225003M000958222500003781725031122012                            
25150223742018000210877383000238AMIOUR                   HANANE                   21051987000J0000000000003J0000936000000J0000000000003J000108000000000201600001032018                            
25150223742018000211910227017052AMIOUR                   NESRINE                  16011991000J0000000000000J0000000000003J0002115000003J000135000000000346500001092018                            
25150223742018000212780755007635AMIRA                    FATIMA ZOHRA             27081978003M0012022950003M0012022950003M0012022950003M001202295000004809180010022014                            
25150223742018000213781243004252AMIRA                    RADIA                    05091978000J0000000000003J0003888000000J0000000000003J000410400000000799200001032018                            
25150223742018000214623897000244AMIRAOUI                 MOHAMED                  07051962003M0015364200003M0016980623003M0015831975003M001583197500006400877301081982                            
25150223742018000215836727000644AMIRAOUI                 ATEF                     08121983003M0008843702003M0008843702003M0008843702003M000884370200003537480831122009                            
25150223742018000216793424002648AMIRAOUI                 YACINE                   05031979003M0006827370003M0006827370003M0006827370003M000682737000002730948020112016                            
25150223742018000217781413004058AMIRECH                  MANEL                    27011978003M0018963900003M0018963900003M0018129600003M001646100000007251840031122009                            
25150223742018000218744881000543AMIRECHE                 NADIR                    19121974003M0052584000003M0053172000003M0052584000003M005544000000021378000012122004                            
25150223742018000219604298000150AMIRECHE                 DJAMEL                   01061960003M0049500825003M0049500825003M0049500825003M004950082500019800330003041989                            
25150223742018000220733996000538AMIRECHE                 NEDJOUA                  24031973003M0025816500003M0023386500003M0022171500003M002217150000009354600002111996                            
25150223742018000221674310000562AMIRECHE                 BAYA                     16041967003M0009671325003M0009671325003M0009567915003M001239459000004130515529122011                            
25150223742018000222733419001356AMIRECHE                 AZEDDINE                 11031973003M0006889740003M0006889740003M0006889740003M000688974000002755896001122015                            
25150223742018000223934469000936AMIRECHE                 MOHAMED SAMI             25101993003M0006765000003M0006765000003M0006765000003M000676500000002706000003122017                            
25150223742018000224601149000661AMMARI                   MERZOUG                  00001960003M0049500825003M0049500825003M0058500825003M006822082500022572330015031986                            
25150223742018000225660502003266AMMARI                   NOUREDDINE               15051966003M0009382580003M0009382580003M0009382580003M000938258000003753032020122003                            
25150223742018000226783466001542AMMARI                   ISSAM                    13031978000J0000000000003J0001080000000J0000000000003J000120000000000228000001032018                            
25150223742018000227900795011840AMMARI                   HALIMA                   04081990000J0000000000000J0000000000000J0000000000003J000306000000000306000001122018                            
25150223742018000228912739001943AMMARI                   ANOUAR                   07091991000J0000000000000J0000000000003J0001170000000J000000000000000117000001092018                            
25150223742018000229590630000167AMMI                     HAKIM                    29061959000J0000000000000J0000000000000J0000000000003J000048000000000048000001122018                            
25150223742018000230772672002741AMMOUCHI                 HOUDA                    26091977003M0020743200003M0020743200003M0020743200003M002074320000008297280031122009                            
25150223742018000231740233002066AMOURACHE                SAMIA                    04011974003M0044302500003M0044302500003M0044302500003M004430250000017721000002122006                            
25150223742018000232563278000152AMOURACHE                LEILA                    29071956000M0000000000003M0003456000000M0000000000000M000000000000000345600001122017                            
25150223742018000233755344000352AMOURI                   CHAHINEZ                 30041975003M0044812800003M0046377000003M0047007900003M004700790000018520560025102010                            
25150223742018000234700845006448AMOURI                   AMMAR                    29081970003M0023771250003M0023771250003M0030575250003M009742225100017554000102102016                            
25150223742018000235750515009248AMRANI                   AMEL                     21081975003M0052584000003M0066408000003M0055176000003M006669600000024086400015092003                            
25150223742018000236740690001055AMRANI                   MERZAKA                  30061974003M0042107400003M0047229300003M0044302500003M005402250000018766170002122006                            
25150223742018000237876494000434AMRANI                   IMENE                    10111987003M0008891700003M0008891700003M0008891700003M000889170000003556680025062015                            
25150223742018000238775164000348AMRANI                   MOURAD                   29111977000J0000000000000J0000000000000J0000000000003J000972000000000972000001122018                            
25150223742018000239887795000526AMRANI                   HAMZA                    15121988000J0000000000000J0000000000003J0000900000003J000081000000000171000001092018                            
25150223742018000240651359000850AMRAOUI                  KAMEL                    26121965003M0009028158003M0009028158003M0009028158003M000902815800003611263224021996                            
25150223742018000241756105000359AMRI                     SIHAM                    20051975003M0028748625003M0036364200003M0030642000003M004036200000013611682501102015                            
25150223742018000242797681000237AMRI                     AICHA                    29051979003M0011532900003M0011532900003M0011532900003M001153290000004613160010122013                            
25150223742018000243512380000461AMRI                     NADIA                    27071951003M0008358480000M0000000000000M0000000000000M000000000000000835848023021980                            
25150223742018000244670648006739ANAK                     OMAR                     02061967003M0012411561003M0012411561003M0012411561003M001269767400004993235704112006                            
25150223742018000245777443000247ANAK                     BARKAHEM                 28051977000J0000000000000J0000000000000J0000000000003J000972000000000972000001122018                            
25150223742018000246870577002145ANANA                    HAYET                    14031987000J0000000000000J0000000000000J0000000000003J000194400000000194400001122018                            
25150223742018000247670138007546ANNAB                    ACHOUR                   01011967003M0013050288003M0013525488003M0013406688003M001340668800005338915215091991                            
25150223742018000248859247000439ANNANI                   RIMA                     14061985003M0011020575003M0011020575003M0011020575003M001102057500004408230020112016                            
25150223742018000249747903000253ANTRI                    SABRINA                  12071974003M0010966875003M0010966875003M0010966875003M001096687500004386750014101997                            
25150223742018000250692750000750AOUABDIA                 NABILA                   11031969003M0044302500003M0050156100003M0056577600003M005054752000020158372012112003                            
25150223742018000251896629000340AOUACHERIA               MERIEM                   26051989003M0014155200003M0016779600003M0014811300003M001481130000006055740029122011                            
25150223742018000252790613003356AOUAD                    RAZIKA                   27081979003M0030642000003M0038215500003M0032535375003M004225537500014364825002032014                            
25150223742018000253596118000255AOUADJA                  FATIMA ZOHRA             22091959003M0087916800003M0087916800003M0087916800003M010800480000037175520011021989                            
25150223742018000254521353000960AOUADJA                  MOHAMMED                 27031952003M0051458325003M0051458325003M0051458325003M005145832500020583330001091990                            
25150223742018000255790245013945AOUAIDJIA                NAOUEL                   23011979003M0039912300003M0039912300003M0039912300003M003991230000015964920025102010                            
25150223742018000256780132012063AOUAR                    LAMIA                    03011978000J0000000000000J0000000000000J0000000000003J000972000000000972000001122018                            
25150223742018000257819631000249AOUATI                   REDA                     12071981003M0037688850003M0047323800003M0039912300003M004963230000017455725004122011                            
25150223742018000258679917000143AOUATI                   AMAL                     16101967003M0012036075003M0013372575003M0012370200003M001237020000005014905019101985                            
25150223742018000259800674006740AOUATI                   CHEMSEDDINE              11011980003M0009582225003M0009582225003M0009582225003M000958222500003832890020112016                            
25150223742018000260821286005738AOUATI                   AMEL                     10041982000J0000000000000J0000000000000J0000000000003J001152000000001152000001122018                            
25150223742018000261885607000250AOUATI                   HOUSSEM EDDINE           16041988000J0000000000000J0000000000003J0000990000003J000090000000000189000001092018                            
25150223742018000262671089001447AOUDA                    LAZHAR                   23061967003M0010228380003M0011386680003M0010495680003M001049568000004260642001121991                            
25150223742018000263783549000445AOUGUEB                  LEILA                    16031978003M0008437050003M0008437050003M0008437050003M000843705000003374820023022014                            
25150223742018000264794875000635AOUICHA                  LAMIA                    28101979003M0034403775003M0042896400003M0036297150003M003629715000014989447501102007                            
25150223742018000265510079007051AOULMI                   ZEBIDA                   17021951000M0000000000003M0006048000000M0000000000000M000000000000000604800008101978                            
25150223742018000266770002044955AOUNALLAH                OUNIS                    01071977003M0008771175003M0008771175003M0008771175003M000877117500003508470029112011                            
25150223742018000267811398004637ARAAR                    CHAOUKI                  22041981003M0025383825003M0035958600003M0030642000003M003064200000012262642530112015                            
25150223742018000268801461000955ARAB                     OUIDED                   27011980003M0026972775003M0038994982003M0034335375003M003253537500013283850715112009                            
25150223742018000269780236001457ARAB                     HADDA                    08101978000J0000000000000J0000000000000J0000000000003J000972000000000972000001122018                            
25150223742018000270870931001454ARABET                   DALLEL                   14011987003M0035493750003M0052159050003M0037688850003M005614485000018148650001102014                            
25150223742018000271910830008149ARABET                   MOHAMED AKRAM            12061991000J0000000000003J0002940000003J0003240000000J000000000000000618000001032018                            
25150223742018000272649157000443ARAFA                    NEDJOUA                  11091964003M0055306350003M0055306350003M0055306350003M008104670600024696575609011999                            
25150223742018000273520175003754ARAISSIA                 BELKACEM                 14111952003M0038189925003M0042427125003M0039778875003M003977887500016017480012111977                            
25150223742018000274690188002940ARAR                     NOURIA                   11031969003M0050916150003M0056769750003M0053111250003M005311125000021390840015111998                            
25150223742018000275880180029929ARAR                     HEMZA                    17041988000J0000000000000J0000000000003J0001980000003J000090000000000288000001092018                            
25150223742018000276783487000836ARBOUZE                  FAYCAL                   15031978003M0007845810003M0007845810003M0007845810003M000784581000003138324020032004                            
25150223742018000277800911001465ARFA                     AZZEDINE MOHAME          17011980003M0036922875003M0045642075003M0038791275003M005031127500017166750015112009                            
25150223742018000278880506006448ARIBI                    BOUTHEYNA                16041988003M0023771250003M0058678250003M0035493750003M004521375000016315700002102016                            
25150223742018000279847781000239ARIDJA                   FADILA                   10121984003M0014495400003M0014495400003M0014495400003M001449540000005798160001122015                            
25150223742018000280791380004047ARIS                     SKANDER                  13081979003M0050274900003M0050274900003M0050274900003M005789668000020872138015112009                            
25150223742018000281791658002145AROUI                    MOUNIR                   30011979003M0007201590003M0007201590003M0007201590003M000720159000002880636031122010                            
25150223742018000282899376000132AROUI                    HOUSSEM                  18071989003M0006827370003M0006827370003M0006827370003M000682737000002730948020112016                            
25150223742018000283540025027159ARROUF                   MOHAMED                  00001954000J0000000000000J0000000000003J0000528000000J000000000000000052800001092018                            
25150223742018000284671516001657ARROUM                   KHALED                   29111967003M0012036075003M0012036075003M0012036075003M001203607500004814430026121990                            
25150223742018000285899281000136ARS                      MOHAMED LAMINE           17071989003M0014586525003M0014586525003M0014586525003M001458652500005834610001122015                            
25150223742018000286590073030555ASSABAA                  RACHIDA                  00001959003M0091113600003M0091113600003M0091113600003M009111360000036445440009101983                            
25150223742018000287788920000246ASSABAA                  MOHAMED                  22071978003M0023771250003M0023771250003M0023771250003M002377125000009508500001102007                            
25150223742018000288751197000250ASSABAA                  SAMIRA                   22091975003M0009126600003M0009596400003M0009596400003M000959640000003791580020112016                            
25150223742018000289930547008735ASSABAA                  IBTIHEL                  13021993000M0000000000000M0000000000000M0000000000003M004701425000004701425003072018                            
25150223742018000290892426003941ASSADI                   IMANE                    28051989000J0000000000000J0000000000003J0001980000003J000604800000000802800001092018                            
25150223742018000291801876000845ASSAS                    SAMIHA                   10081980003M0034403775003M0039090525003M0039222150003M005070678000016342323030122007                            
25150223742018000292822142002062ASSAS                    SOUAD                    11071982003M0015663825003M0016585875003M0017507925003M001842997500006818760031122009                            
25150223742018000293642525000362ATMA                     HOURIA                   25021964003M0020957175003M0020957175003M0020957175003M002095717500008382870010091988                            
25150223742018000294755214000557ATMA                     FAHIMA                   27041975003M0019404000003M0023162400003M0020108700003M001901655000008169165022021998                            
25150223742018000295722698000443ATMA                     OMAR                     07031972003M0013537650003M0016099275003M0014049975003M001404997500005773687518122004                            
25150223742018000296626753000251ATMANI                   LATIFA                   04091962003M0034240020003M0034403775003M0034403775003M003407626500013712383503122005                            
25150223742018000297607401000167ATMANI                   FADILA                   02111960003M0031786875003M0040248855003M0033375825003M003337582500013878738001092007                            
25150223742018000298794138000944ATOUI                    LOUBNA                   10101979003M0014495400003M0014495400003M0014495400003M001449540000005798160001122015                            
25150223742018000299818643000247ATOUI                    MINA                     20061981003M0009582225003M0014938373003M0010428675003M000986572500004481499810122013                            
25150223742018000300857810000351ATOUI                    ISSAM                    29081985000J0000000000000J0000000000003J0002700000003J000421200000000691200001092018                            
25150223742018000301900045055251ATOUI                    AICHA                    00001990000J0000000000000J0000000000000J0000000000003J000132000000000132000001122018                            
25150223742018000302580139011854ATTAF                    NADIR                    00001958003M0087916800003M0088300800003M0087916800003M009122880000035536320027061984                            
25150223742018000303765049000349ATTAF                    SONIA                    18041976003M0046497600003M0046497600003M0046497600003M004649760000018599040001112016                            
25150223742018000304570134005259ATTALAH                  SALAH                    06121957003M0084720000003M0084720000003M0084720000003M008472000000033888000010101984                            
25150223742018000305741017004161ATTALLAOUI               SAMIR                    14071974003M0037688850003M0037688850003M0037688850003M003768885000015075540008102013                            
25150223742018000306871290005935AYACHE                   NOUR EL HOUDA            31071987003M0015904800003M0015904800003M0015904800003M001590480000006361920031122009                            
25150223742018000307856930000546AYACHE                   OUISSEM                  05051985003M0007409239003M0007110416003M0007409239003M000740923900002933813331122009                            
25150223742018000308580153017547AYACHI                   CHAABANE                 01071958003M0081487500003M0081487500003M0081487500003M009120750000033567000010101982                            
25150223742018000309771294002246AYACHI                   DALILA                   25011977003M0036297150003M0036297150003M0036297150003M003629715000014518860001122015                            
25150223742018000310870182005938AYACHI                   ASMA                     01021987003M0023771250003M0056333750003M0035493750003M003549375000015109250002102016                            
25150223742018000311720727006251AYACHI                   MOHAMED                  24081972003M0015467400003M0015467400003M0015467400003M001546740000006186960031122008                            
25150223742018000312833106002261AYAD                     RADIA                    02111983003M0037688850003M0044359200003M0039912300003M005571966700017768001723092012                            
25150223742018000313826160000254AYAD                     ABLA                     28041982003M0032535375003M0043122975003M0034403775003M003440377500014446590015112009                            
25150223742018000314752041000958AYAD                     AMEL                     06101975003M0015665850003M0015665850003M0015665850003M001566585000006266340001122015                            
25150223742018000315883412002057AYAD                     NESRINE                  12091988003M0003957000000M0000000000000M0000000000003M002736672000003132372010122013                            
25150223742018000316791873001344AYAD                     ABDELHAK                 13071979000J0000000000003J0003234000000J0000000000003J001504800000001828200001032018                            
25150223742018000317880036011060AYAD                     SOULEF                   00001988000J0000000000000J0000000000003J0002376000003J000518400000000756000001092018                            
25150223742018000318750868006832AYADI                    OUARDA                   15051975003M0039912300003M0045765900003M0042107400003M005726335300018504895315112009                            
25150223742018000319801577001251AYADI                    AICHA                    08111980003M0037688850003M0033437250003M0035563050003M003768885000014437800006102013                            
25150223742018000320717031000162AYADI                    NAAMANE                  26061971003M0008012400003M0008012400003M0008012400003M000801240000003204960025101997                            
25150223742018000321610918000661AYAT                     SOUAD                    29011961003M0059724900003M0067041900003M0061920000003M006192000000025060680007091988                            
25150223742018000322809211000159AYAT                     NASREDDINE               13071980003M0010146684003M0012146005003M0010983609003M001098360900004425990717122005                            
25150223742018000323781893003139AYED                     LEILA                    00001978003M0008771175003M0009886250003M0009229425003M000922942500003711627530122010                            
25150223742018000324764524000850AZEROUAL                 SANNA                    05041976003M0007604132003M0007604132003M0007604132003M000760413200003041652801092004                            
25150223742018000325540995002643AZIL                     DJAMEL                   04031954003M0043845675003M0060331425003M0055639050003M004573905000020555520003122002                            
25150223742018000326590170019343AZIOUNE                  FOUZIA                   30121959003M0007799016003M0007799016003M0007799016003M000779901600003119606412061999                            
25150223742018000327939213000350AZIOUNE                  ILHEM                    10071993000J0000000000000J0000000000000J0000000000003J000117000000000117000001122018                            
25150223742018000328825005000462AZIZ                     SAMY                     28101982003M0008891700003M0011668650003M0009270375003M000927037500003910110023022014                            
25150223742018000329713342000263AZIZ                     DJAMEL                   06121971003M0008137140003M0008137140003M0008137140003M000813714000003254856004121995                            
25150223742018000330794860000741AZIZI                    ASSIA                    27101979003M0042107400003M0042107400003M0042107400003M004210740000016842960001102007                            
25150223742018000331790834004545AZIZI                    MANEL                    02091979003M0023771250003M0031757985003M0025383825003M002853895500010945201501102014                            
25150223742018000332829058000144AZOUNE                   SABER                    30061982003M0014155200003M0016051800003M0017098200003M001709820000006440340022122013                            
25150223742018000333691472001450AZOUZ                    ZINEB                    04021969003M0053111250003M0053111250003M0053111250003M005311125000021244500020111995                            
25150223742018000334832209000560AZZAM                    NOUREDDINE               23121983003M0042076350003M0042076350003M0042076350003M004207635000016830540006102013                            
25150223742018000335883737001740AZZI                     FERIAL MANEL             19091988003M0018847800003M0018847800003M0018847800000M000000000000005654340029122011                            
25150223742018000336884319001150AZZIZI                   ZINE ELABIDINE           30091988003M0006889740003M0006889740003M0006889740003M000688974000002755896001122015                            
25150223742018000337877216000349AZZOUZ                   SARRA                    17051987003M0035493750003M0042079050003M0037688850003M003768885000015295050001102014                            
25150223742018000338762782001048AZZOUZ                   FATIMA ZOHRA             21021976003M0016099200003M0016099200003M0016099200003M001609920000006439680017122005                            
25150223742018000339845914000153AZZOUZ                   KARIMA                   01111984003M0012022950003M0012022950003M0012022950003M001202295000004809180031122009                            
25150223742018000340733144000459AZZOUZ                   ABDELHAKIM               18111973003M0009729000003M0011600100003M0010040850003M001004085000004141080022062015                            
25150223742018000341905511000162AZZOUZI                  MOHAMED AYED             16081990000J0000000000000J0000000000003J0003456000003J000288000000000633600001092018                            
25150223742018000342750406009745BAADECHE                 MOHAMED                  13061975003M0023771250003M0023771250003M0026291250003M003241125000010624500002102017                            
25150223742018000343740178009436BAALI                    NACERA                   02011974003M0046497600003M0046497600003M0046497600003M005711760000019661040001102013                            
25150223742018000344850102043857BAALI                    SOUAD                    30111985003M0035493750003M0035493750003M0035493750003M003549375000014197500001102015                            
25150223742018000345620210003669BAAZIZ                   NASSER                   24091962003M0078326400003M0087916800003M0081523200003M008152320000032928960020091989                            
25150223742018000346570768000451BAAZIZ                   HOCINE                   00001957003M0051394200003M0051394200003M0051394200003M005139420000020557680005091987                            
25150223742018000347751182001354BABAA                    FATIMA                   23061975003M0042107400003M0048692700003M0054130500003M005507250000020000310001102007                            
25150223742018000348711335002361BABAA                    DJAMILA                  01021971003M0026972775003M0039178125003M0034633350003M002858535000012936960015112009                            
25150223742018000349670128006154BABAHANI                 SOUAD                    08111967000J0000000000003J0000420000000J0000000000000J000000000000000042000001032018                            
25150223742018000350830007011664BABOURI                  NABIL                    02011983003M0012022950003M0012022950003M0012022950003M001262679300004869564331122009                            
25150223742018000351942547000746BACHA                    SID ALI                  25021994000J0000000000000J0000000000000J0000000000003J000058500000000058500001122018                            
25150223742018000352610829001261BACHKHAZNADJI            ABDELMALIK               26011961003M0094440000003M0094440000003M0094440000003M009444000000037776000001101988                            
25150223742018000353597129000250BACHKHAZNADJI            ABDELDJEBBAR             10111959003M0057529800003M0057529800003M0057529800003M006904980000024163920006031990                            
25150223742018000354787762000438BACHTARZI                NADIA                    17061978003M0034403775003M0034403775003M0034403775003M003440377500013761510010112013                            
25150223742018000355722714000561BACHTARZI                KARINA                   09031972003M0032535375003M0040008975003M0034403775003M004412377500015107190025102010                            
25150223742018000356540966000454BADACHE                  AHCENE                   11031954003M0051394200003M0051394200003M0051394200003M006238781300021657041308091981                            
25150223742018000357760035005652BADACHE                  SAAD                     22011976003M0034403775003M0034403775003M0034403775003M003440377500013761510002122006                            
25150223742018000358462007000668BADAOUI                  MAHMOUD                  17071946003M0059724900003M0059724900003M0059724900003M005972490000023889960015101975                            
25150223742018000359804249000353BADAOUI                  KHADIDJA                 25031980003M0013537650003M0013537650003M0013537650003M001353765000005415060001092002                            
25150223742018000360833080000256BADER                    ACHOUAK                  26021983003M0032535375003M0055082812003M0042107400003M004210740000017183298718102008                            
25150223742018000361610850001165BAGGA                    NADIA                    27111961003M0049500825003M0049500825003M0049500825003M004950082500019800330019111989                            
25150223742018000362787995000229BAGHDADI                 HANEN                    25061978003M0011020575003M0011020575003M0011020575003M001102057500004408230020112016                            
25150223742018000363800008018256BAGHRICHE                OUALID                   01011980003M0049992000003M0049992000003M0049992000003M006295200000021292800001102007                            
25150223742018000364840178004543BAGHRICHE                MARIEM                   22061984000J0000000000003J0004536000000J0000000000003J000648000000001101600001032018                            
25150223742018000365740897002440BAHCHACHI                NOURA                    09091974003M0044471400003M0044471400003M0044471400003M005599140000018940560001102002                            
25150223742018000366804251001357BAHCHACHI                YASMINA                  25031980003M0032535375003M0032535375003M0032535375003M003253537500013014150015112009                            
25150223742018000367676191000345BAHCHACHI                LAMIA                    13061967003M0027644400003M0027644400003M0027644400003M002764440000011057760001091996                            
25150223742018000368510368002061BAHI                     LAKHDAR                  22011951003M0091113600003M0091497600003M0091113600003M010587360000037959840011101982                            
25150223742018000369831320004558BAHI                     AHLEM                    03021983003M0039912300003M0039912300003M0039912300003M005871474700017845164722112010                            
25150223742018000370778071000146BAHI                     HOUDA                    02061977003M0009229425003M0009229425003M0009229425003M000922942500003691770030122010                            
25150223742018000371925490001243BAHI                     MERIEM                   27101992000J0000000000000J0000000000003J0001170000003J000126000000000243000001092018                            
25150223742018000372610006019952BAHLOUL                  FARIDA                   03011961003M0091113600003M0091113600003M0091113600003M009111360000036445440014101986                            
25150223742018000373795407000550BAHLOUL                  ABLA                     08111979000J0000000000000J0000000000000J0000000000003J000237600000000237600001122018                            
25150223742018000374520073009151BAHNOUS                  MEBAREK                  11091952003M0084720000003M0084720000003M0084720000003M008472000000033888000005101981                            
25150223742018000375620389001253BAHOULI                  FADILA                   23081962003M0011020575003M0011020575003M0011020575003M001102057500004408230020112016                            
25150223742018000376650712001366BAHRI                    FATHIA                   16041965003M0060360000003M0068136000003M0062952000003M007402200000026547000001092013                            
25150223742018000377650393016342BAHRI                    LAID                     11051965003M0032535375003M0056205375003M0034403775003M004310377500016624830006042011                            
25150223742018000378686364000147BAICHE                   NEDJMA                   21061968003M0012036075003M0012036075003M0012036075003M001203607500004814430028091987                            
25150223742018000379720856000257BAITSA                   YOUCEF                   10051972003M0018410400003M0018410400003M0018410400003M001841040000007364160031122008                            
25150223742018000380482432000166BAKA                     MEBAREK                  15041948003M0099281100003M0099281100003M0099281100003M011404110000041188440001021978                            
25150223742018000381690908003550BAKHOUCHE                FOUZIA                   20011969003M0007721063003M0007721063003M0007721063003M000772106300003088425206012001                            
25150223742018000382834858000442BAKHOUCHE                SARA                     24101983000M0000000000003M0009456448000M0000000000000M000000000000000945644830122010                            
25150223742018000383919266000339BAKHOUCHE                RAIDA                    06071991000J0000000000003J0000720000000J0000000000000J000000000000000072000001032018                            
25150223742018000384875232000155BAKIRI                   ESMA                     14101987003M0023771250003M0023771250003M0023771250003M002377125000009508500002102017                            
25150223742018000385817153000153BAKIRI                   IMENE                    25121981003M0014586525003M0014586525003M0014586525003M001458652500005834610001122015                            
25150223742018000386820287003446BAKKOUCHE                ASSAM                    09021982003M0017192700003M0017192700003M0017192700003M001633410000006791220031122009                            
25150223742018000387640652006647BAKOURA                  ATIKA                    26091964003M0029105775003M0029105775003M0029105775003M002910577500011642310002011989                            
25150223742018000388793140002156BALI                     RADIA                    28021979003M0011020575003M0013240650003M0011532900003M001153290000004732702501122014                            
25150223742018000389712680000256BALOUTH                  NOURREDDINE              18111971003M0010768317003M0012995817003M0011102442003M001110244200004596901801011999                            
25150223742018000390710519003062BAOUADI                  MOHAMED                  04081971000J0000000000000J0000000000000J0000000000003J000124800000000124800001122018                            
25150223742018000391500242004069BAOUNI                   MOHAMMED                 26111950000J0000000000003J0002520000000J0000000000003J000714000000000966000001032018                            
25150223742018000392780058011452BAOUNI                   EL AICHA                 24011978000J0000000000003J0009432000000J0000000000003J000388800000001332000001032018                            
25150223742018000393540015014267BARAMA                   SALAH DINE               02011954003M0091113600003M0091545600003M0091113600003M009111360000036488640008091980                            
25150223742018000394534974000150BARECHE                  MHAMMED                  18121953003M0050916150003M0057501450003M0059075250003M005311125000022060410029051985                            
25150223742018000395765353000746BARECHE                  MOHAMED                  25041976003M0010907187003M0010907187003M0010907187003M001090718700004362874801102002                            
25150223742018000396884521000255BARECHE                  AMINA                    04101988003M0008771175003M0008771175003M0008771175003M000877117500003508470030122010                            
25150223742018000397874455000544BARECHE                  ROKIA                    29091987003M0008125200003M0008125200003M0008125200003M000812520000003250080022062015                            
25150223742018000398925463000842BARECHE                  CHIHAB EDDINE            16041992000J0000000000003J0002160000000J0000000000000J000000000000000216000001032018                            
25150223742018000399710522002663BARKA                    ABDELMALEK               27091971003M0011987925003M0011987925003M0011987925003M001198792500004795170016021991                            
25150223742018000400649634000148BARKAT                   MALIKA                   27091964003M0089553000003M0089553000003M0089553000003M010431300000037297200015011997                            
25150223742018000401742034001164BARKAT                   OUARDA                   14021974003M0052584000003M0063816000003M0058200000003M012041733300029501733303092005                            
25150223742018000402880056065043BARKAT                   ENFAL                    03071988000J0000000000000J0000000000003J0001944000003J000151200000000345600001092018                            
25150223742018000403670276006046BARKI                    HOCINE                   10031967003M0010228380003M0012188643003M0011048955003M001104895500004451493301121991                            
25150223742018000404720216001962BARKI                    AZZOU                    17021972003M0008014752003M0008014752003M0008014752003M000801475200003205900831122009                            
25150223742018000405828621000450BARKI                    SAMY                     22061982003M0006952110003M0007035270003M0007014480003M000701448000002801634023022014                            
25150223742018000406552183000555BARNOU                   ALI                      30061955003M0051394200003M0057919200003M0051394200003M006786420000022857180013111983                            
25150223742018000407860140011956BAROUR                   SABIHA                   07091986000J0000000000000J0000000000000J0000000000003J000432000000000432000001122018                            
25150223742018000408660240005952BAROURA                  LAZHAR                   19011966003M0023771250003M0023771250003M0023771250003M003452774600010584149602102016                            
25150223742018000409590013022366BAROURI                  TAOUES                   00001959003M0091065000003M0091065000003M0105825000003M010582500000039378000001091988                            
25150223742018000410876131000155BATAICHE                 INSAF                    28041987003M0035493750003M0042079050003M0037688850003M003768885000015295050001102014                            
25150223742018000411737989000133BAZINE                   ABDELHAKIM               04071973003M0012243750003M0012243750003M0012243750003M001224375000004897500008011995                            
25150223742018000412914417001849BAZINE                   KHADIDJA                 10101991000J0000000000003J0005400000003J0005400000000J000000000000001080000001032018                            
25150223742018000413659592000138BAZRI                    KAMEL EDDINE             30091965003M0067852500003M0067852500003M0067852500003M008686050000029041800007112001                            
25150223742018000414761477001347BECHAR                   SAIDA                    14041976003M0014958000003M0017104500003M0021942900003M005867824600011268364623092012                            
25150223742018000415331046000371BECHIRI                  ABDELAZIZ                26041933000J0000000000003J0001728000003J0004248000000J000000000000000597600001032018                            
25150223742018000416703229000262BECHIRI                  SORAYA                   22031970000J0000000000000J0000000000003J0002835000003J000328500000000612000001092018                            
25150223742018000417650875001449BECHKER                  FATIHA                   11111965003M0020957175003M0027006675003M0023900175003M002603250000009789652528031987                            
25150223742018000418806528000450BECHKRI                  SAKINA                   13051980003M0044302500003M0044302500003M0044302500003M005582250000018873000003122005                            
25150223742018000419620028009154BECHLEM                  AZZOUZ                   22121962003M0019535625003M0019535625003M0019535625003M001953562500007814250002111993                            
25150223742018000420711815001065BECHLEM                  ABDELHAMID               10021971003M0012243750003M0013047000003M0012645375003M001264537500005058150008011995                            
25150223742018000421863173000845BECHLEM                  HOURIA                   12091986000J0000000000003J0001080000000J0000000000003J000240000000000348000001032018                            
25150223742018000422500659001755BECHOUA                  ALLAOUA                  00001950003M0045739050003M0045739050003M0045739050003M004573905000018295620002111982                            
25150223742018000423647952000147BECILA                   ATIFA                    03081964003M0017988600003M0019851600003M0018547500003M001854750000007493520005091987                            
25150223742018000424726231000161BECILA                   KHALED                   14061972003M0012243750003M0014118000003M0012645375003M001264537500005165250003111993                            
25150223742018000425822969000839BEDJGHIT                 AMEL                     24021982003M0014495400003M0014495400003M0014495400003M001449540000005798160020112016                            
25150223742018000426739711000252BEDROUNE                 ABDELKADER               17081973003M0032535375003M0038535375003M0040110375003M003253537500014371650016102011                            
25150223742018000427721602001962BEDROUNE                 AMEL                     11021972003M0008125200003M0008748900003M0008437050003M000843705000003374820022062015                            
25150223742018000428770785003935BEGGOUG                  AHCEN                    20061977003M0014149200003M0014149200003M0014149200003M001414920000005659680031122009                            
25150223742018000429781867000741BEGHDAD                  FETH EZEHAR              25071978003M0009582225003M0009582225003M0009582225003M000958222500003832890020112016                            
25150223742018000430553448000454BEGHIDJA                 NOURREDDINE              00001955003M0094507500003M0100504200003M0093316800003M013751680000042584530001121986                            
25150223742018000431570654002256BEGHIDJA                 ABDELHADI                00001957003M0083726400003M0083726400003M0083726400003M009848640000034966560017011984                            
25150223742018000432722221001664BEGHIDJA                 ADEL                     24021972003M0069926700003M0069926700003M0069926700003M008468670000029446680006092006                            
25150223742018000433562113000172BEGHIDJA                 NOURREDDINE              20121956003M0017327139003M0019223739003M0020104963003M002002237500007667821608111983                            
25150223742018000434627022000164BEGHIDJA                 AMAR                     13091962003M0010821801003M0011601426003M0011155926003M001115592600004473507911121995                            
25150223742018000435855112000261BEGHIDJA                 HAMZA                    27091985003M0007644587003M0007644587003M0007644587003M000764458700003057834815122013                            
25150223742018000436864231001256BEGHIDJA                 IMENE                    03101986003M0007487325003M0009417800003M0009229425003M000922942500003536397530122010                            
25150223742018000437590371002949BEGHOUL                  YOUCEF                   00001959003M0090187500003M0090187500003M0090187500003M010490430000037546680002101984                            
25150223742018000438809331000154BEGHOUL                  SABER                    15071980003M0049992000003M0049992000003M0049992000003M004999200000019996800031122008                            
25150223742018000439806427000749BEGHRICHE                ABDELFATEH               20121980003M0030642000003M0038215500003M0032535375003M003253537500013392825023092012                            
25150223742018000440768176000438BEGHRICHE                NAOUAL                   06071976003M0009596400003M0009596400003M0009596400003M000959640000003838560020112016                            
25150223742018000441680282018834BEHLOUL                  CHERIF                   15051968003M0065539200003M0066115200003M0072163200003M007230720000027612480011092006                            
25150223742018000442543425000561BEKHOUCHE                FARIDA                   18091954003M0084720000003M0084720000003M0084720000003M008472000000033888000001101980                            
25150223742018000443662970000648BEKKAI                   SOUHEILA                 07031966003M0023532300003M0023532300003M0023532300003M002353230000009412920007051991                            
25150223742018000444667763000144BEKKAR                   RIAD                     26071966003M0010821801003M0012158301003M0011155926003M001115592600004529195404121995                            
25150223742018000445779895000128BEKKOUCHE                LINDA                    09081977003M0016429275003M0021009825003M0017192700003M001719270000007182450029122011                            
25150223742018000446714593000248BEKKOUCHE                FATIMA                   21041971003M0014428650003M0014428650003M0014428650003M001442865000005771460015091991                            
25150223742018000447795683000734BEKKOUCHE                FERIAL                   17041979003M0008125200003M0008125200003M0008125200003M000812520000003250080020112016                            
25150223742018000448750381013647BEKKOUCHE                ABDELGHANI               06041975003M0008014752003M0008014752003M0008014752003M000801475200003205900831122009                            
25150223742018000449824752000450BEKKOUCHE                HANANE                   28101982000J0000000000000J0000000000003J0002592000003J000129600000000388800001092018                            
25150223742018000450850582005936BEKKOUCHE                HASSIBA                  08071985000J0000000000003J0002592000000J0000000000003J000216000000000475200001032018                            
25150223742018000451870988008324BELAABED                 SOMIA                    19071987000M0000000000000M0000000000000M0000000000003M002958200000002958200009092018                            
25150223742018000452781056002847BELABBAS                 NAWAL                    06081978003M0027853575003M0032220375003M0018569050000M000000000000007864300020122006                            
25150223742018000453735146001055BELABED                  SAMI                     21021973003M0052584000003M0053844000003M0052584000003M006460800000022362000003092005                            
25150223742018000454660133030860BELABED                  TOUFIK                   16021966003M0030642000003M0030642000003M0030642000003M004036200000013228800008102012                            
25150223742018000455450288001553BELADIS                  KACEM                    29051945003M0039778875003M0039778875003M0039778875003M003977887500015911550015021981                            
25150223742018000456840064002851BELADROUF                SAMIR                    09071984003M0006827370003M0006827370003M0006827370003M000682737000002730948020112016                            
25150223742018000457680638003944BELAFRITES               ABDELFETAH               29101968000J0000000000000J0000000000000J0000000000003J000048000000000048000001122018                            
25150223742018000458530884001452BELAGHOUEG               ZOUBIDA                  14051953003M0087916800003M0087916800003M0087916800003M008791680000035166720018111984                            
25150223742018000459857288000137BELAHMADI                ESMA                     13111985000J0000000000000J0000000000003J0004212000003J000464400000000885600001092018                            
25150223742018000460852031000364BELAHOUANE               HOCINE                   21061985003M0028748625003M0034428750003M0030642000003M004036200000013418137501102014                            
25150223742018000461598051000152BELAHRACHE               DJALAL                   13121959003M0049500825003M0055180950003M0051394200003M005139420000020747017511101987                            
25150223742018000462665634000154BELAIB                   AMEL                     19051966003M0011609250003M0011609250003M0011609250003M001160925000004643700001021997                            
25150223742018000463812322000267BELAIB                   AHLEM                    12021981000J0000000000003J0006912000000J0000000000003J000345600000001036800001032018                            
25150223742018000464761440001954BELAID                   DALILA                   19111976003M0034403775003M0034403775003M0034403775003M003440377500013761510002032014                            
25150223742018000465845821000650BELAID                   SOUMIA                   31101984003M0015540300003M0015540300003M0015540300003M001554030000006216120001122015                            
25150223742018000466703848000748BELAIDI                  SIHEM                    00001970003M0039912300003M0050156100003M0042107400003M005362740000018580320015112009                            
25150223742018000467827338001048BELAIDI                  OTTMAN                   14061982003M0029418750003M0040091850003M0033437250003M002092875000012387660001102014                            
25150223742018000468701101005467BELAIDI                  DALILA                   01121970003M0007201590003M0007201590003M0007201590003M000720159000002880636030122010                            
25150223742018000469912266001153BELAIDI                  ITIDEL                   01081991000J0000000000003J0001980000000J0000000000003J000117000000000315000001032018                            
25150223742018000470687549000241BELAISSAOUI              OUARDA                   03081968003M0043845675003M0043845675003M0043845675003M004384567500017538270001071999                            
25150223742018000471770686008133BELAKEHAL                SOLTANE                  11031977003M0039912300003M0039912300003M0039912300003M004268430000016242120025102010                            
25150223742018000472768974000135BELAKROUM                DOUNIA                   26071976003M0042107400003M0047229300003M0044302500003M005439375000018803295002122006                            
25150223742018000473853825001845BELAKROUM                KHEIREDDINE              06091985003M0028748625003M0039205163003M0030642000003M005671534600015531113406102013                            
25150223742018000474659891000136BELAKROUM                SAMIRA                   10101965003M0023326425003M0023326425003M0023326425003M002332642500009330570016101993                            
25150223742018000475510156003659BELALA                   RAMDANE                  17081951003M0049500825003M0053918700003M0051394200003M005139420000020620792522091982                            
25150223742018000476754580000447BELALA                   ZOHEIR                   12041975003M0032535375003M0032535375003M0033975375003M003253537500013158150001102017                            
25150223742018000477709611000256BELALA                   SOUAD                    21091970003M0012036075003M0013818075003M0012370200003M001237020000005059455001031989                            
25150223742018000478880138002353BELALMI                  NORELHOUDA               21011988003M0023771250003M0023771250003M0023771250003M003544043000010675418001102015                            
25150223742018000479617769000143BELALOUI                 NADIR                    01111961003M0092304300003M0092304300003M0092304300003M010706430000038397720003091986                            
25150223742018000480584183000152BELALOUI                 KARIM                    05071958003M0055781700003M0055781700003M0051394200003M006111420000022407180005091988                            
25150223742018000481836235000154BELALOUI                 MOHAMED                  04051983003M0007533960003M0007533960003M0007533960003M000753396000003013584031122009                            
25150223742018000482810174019737BELAMRI                  ZEHIRA                   19011981003M0037688850003M0037688850003M0037688850003M004740885000016047540006102013                            
25150223742018000483870622001755BELAMRI                  MERIEM                   12011987003M0015904800003M0015904800003M0015046200003M001332900000006018480031122009                            
25150223742018000484881912004448BELAOUED                 MOHAMED                  04051988003M0023771250003M0058678250003M0035493750003M003549375000015343700002102016                            
25150223742018000485893922001051BELAOUIRA                RANDA                    27031989000M0000000000003M0000990000000M0000000000003M001340387500001439387514112018                            
25150223742018000486695242000452BELARIBI                 ABDELHAK OMAR            17051969003M0010446900003M0010446900003M0010446900003M001044690000004178760029122011                            
25150223742018000487756298000535BELATEL                  MIMI                     24051975003M0044302500003M0044302500003M0045310500003M005333250000018724800004102005                            
25150223742018000488832225000857BELATTAR                 SARA                     13071983003M0030642000003M0030642000003M0030642000003M005422080600014614680623092012                            
25150223742018000489840324001858BELATTAR                 NADJAH                   24011984000J0000000000000J0000000000000J0000000000003J000345600000000345600001122018                            
25150223742018000490710165013554BELAZIZIA                ABDENNACER               09041971000J0000000000000J0000000000000J0000000000003J001296000000001296000001122018                            
25150223742018000491807870000146BELBACHE                 HANENE                   14061980003M0029146200003M0037991400003M0031751700003M003253537500013142467504122011                            
25150223742018000492594624000157BELBACHIR                NADIA                    05071959003M0031131000003M0031131000003M0031131000003M003113100000012452400001071980                            
25150223742018000493933203000661BELBAKI                  BELKACEM                 10031993000J0000000000003J0000270000000J0000000000003J000072000000000099000001032018                            
25150223742018000494787222000253BELBAZ                   ABDERRAZEK               10061978003M0014373900003M0018018900003M0014174100003M001417410000006074100031122009                            
25150223742018000495523686000152BELBEKRI                 TOUFIK                   16111952003M0051394200003M0051394200003M0051394200003M005139420000020557680001091980                            
25150223742018000496586548000246BELBEKRI                 MOHAMED NADIR            09111958003M0026617050003M0028513650003M0029560050003M002956005000011425080001121982                            
25150223742018000497876335000149BELBEKRI                 ADEL                     01051987003M0017046900003M0020060100003M0017800200003M001780020000007270740031122009                            
25150223742018000498740151025651BELDI                    RAZIKA                   28091974003M0042107400003M0053082900003M0044302500003M004430250000018379530001102015                            
25150223742018000499875505001054BELDI                    KARIMA                   15041987000J0000000000003J0001728000000J0000000000003J000172800000000345600001032018                            
25150223742018000500903328002056BELDJEBLI                OUIDAD                   24071990000J0000000000003J0001200000000J0000000000003J000120000000000240000001032018                            
25150223742018000501790852003347BELDJEDOUI               NASSIMA                  14011979003M0008891700003M0008891700003M0008891700003M000889170000003556680001032017                            
25150223742018000502890761009135BELDJEDOUI               BESMA                    23061989000J0000000000003J0000810000000J0000000000003J000081000000000162000001032018                            
25150223742018000503763741000156BELDJEZZAR               BORHANE                  29111976000J0000000000000J0000000000003J0001440000000J000000000000000144000001092018                            
25150223742018000504523462000360BELDJOUDI                FELLA SAMIA              27101952003M0025075440003M0025075440003M0025075440003M002507544000010030176015101977                            
25150223742018000505890976001934BELEBCHOUCHE             CHERIF                   08061989003M0035493750003M0035493750003M0044985750003M003549375000015146700001102015                            
25150223742018000506715764000249BELEULMI                 SALIMA                   30031971003M0046494900003M0046494900003M0046494900003M004649490000018597960001102012                            
25150223742018000507800547003453BELEULMI                 SALIHA                   09011980003M0042107400003M0051619500003M0044302500003M003701250000017504190002122006                            
25150223742018000508803505002261BELEULMI                 HICHEM                   11101980003M0007014480003M0007097640003M0007076850003M000707685000002826582017032013                            
25150223742018000509891959002634BELEULMI                 AMANI                    10021989000J0000000000003J0001512000000J0000000000003J000216000000000367200001032018                            
25150223742018000510554043000263BELFAITAH                ALI                      15101955003M0087916800003M0087916800003M0087916800003M009444480000035819520015011981                            
