25150223742019000001922057004644ABABSA                   KENZA                    06101992090J0006952110090J0006952110090J0006952110090J000695211000002780844001122015                            
25150223742019000002850462004943ABACHE                   IMANE                    16031985090J0009229425090J0009229425090J0009229425090J000922942500003691770030122010                            
25150223742019000003785289001236ABADA                    ASMA                     24041978090J0015665850090J0015665850090J0015665850090J001566585000006266340003122017                            
25150223742019000004573436000159ABADA                    ABDELFATEH               14061957090J0051458325090J0051458325090J0051458325090J005373712500020811210010101990                            
25150223742019000005782959000837ABADLI                   NOUR EL HOUDA            16101978090J0014811300090J0014811300090J0014811300090J001481130000005924520001092011                            
25150223742019000006750227010858ABADLI                   SALAH                    17031975090J0055176000090J0055176000090J0055176000090J005517600000022070400015122017                            
25150223742019000007641158002553ABBADI                   NORA                     14111964090J0007822410090J0007822410090J0007822410090J000782241000003128964017102000                            
25150223742019000008591519000656ABBAOUI                  AZIZ                     25051959000J0000000000000J0000000000000J0000000000000J000000000000000000000004101988                            
25150223742019000009615758000150ABBAS                    ABLA                     31071961090J0029701125090J0029701125090J0029701125090J002970112500011880450010091985                            
25150223742019000010778738000338ABBAS                    MOHAMED REDHA            29061977090J0011818500090J0011818500090J0011818500090J001181850000004727400013122003                            
25150223742019000011830627003453ABBAS                    FOUZIA                   10081983090J0035493750090J0038769750090J0035493750090J004521375000015497100002102016                            
25150223742019000012871680006040ABBAS                    KARIMA                   23071987000J0000000000090J0002952000000J0000000000090J003385500000003680700001092019                            
25150223742019000013780570011154ABBAZ                    SAMIRA                   01101978090J0017192700090J0017192700090J0017192700090J001719270000006877080029122011                            
25150223742019000014689415000149ABDEDAIM                 MOSTEFA                  09101968090J0011696409090J0011696409090J0011696409090J001169640900004678563617122005                            
25150223742019000015934437001843ABDEDAIM                 HADJER                   03041993000J0000000000090J0000930000000J0000000000090J000081000000000174000001032018                            
25150223742019000016640875003644ABDELALI                 FERHAT                   05111964090J0008220030090J0008220030090J0008220030090J000822003000003288012003112007                            
25150223742019000017884881001337ABDELALI                 MOHAMED LAMINE           10111988000J0000000000090J0004350000000J0000000000090J000409500000000844500020122012                            
25150223742019000018791699002136ABDELAOUI                HOUDA                    25031979090J0027744000090J0030951600090J0028813200090J002881320000011632200030122010                            
25150223742019000019702016001962ABDELAZIZ                ABDELHAFID               05061970090J0028748625090J0038215500000J0000000000090J000972000000007668412501102015                            
25150223742019000020802403000765ABDELAZIZ                OUIDED                   15021980090J0036297150090J0045120900090J0040684650090J007869022000020079292001102007                            
25150223742019000021769698000128ABDELDJELIL              MOHAMED CHERIF           16081976090J0052584000090J0052584000090J0052584000090J005258400000021033600003122005                            
25150223742019000022677149000147ABDELLI                  DJAAFAR                  16071967090J0034618500090J0034618500090J0034618500090J003461850000013847400001091991                            
25150223742019000023610823001762ABDELLI                  DALILA                   27011961090J0011323275090J0009537225090J0011323275090J001132327500004350705021091997                            
25150223742019000024640967003544ABDELLI                  REZKI                    08111964090J0008095290090J0008095290090J0008095290090J000809529000003238116008012001                            
25150223742019000025630419014159ABDELLI                  MOURAD                   23101963090J0007721070090J0007721070090J0007721070090J000772107000003088428016052007                            
25150223742019000026530067008744ABDELLI                  MOULOUD                  12111953090J0096084300090J0096084300090J0096084300090J009608430000038433720010091985                            
25150223742019000027821232007946ABDELLI                  SIHEM                    12031982090J0032535375090J0040631775090J0034403775090J006984045000017741137529112009                            
25150223742019000028800728011457ABDELLOUCHE              NASSIMA                  11011980090J0010428675090J0010428675090J0010428675090J001042867500004171470029122011                            
25150223742019000029908834000344ABDELMOUMEN              RIMA                     30061990090J0015200100090J0015200100090J0015200100090J001520010000006080040010022014                            
25150223742019000030571011001273ABDELMOUMENE             ABLA                     16121957090J0087916800090J0096556800090J0087916800090J011138400000038377440015121985                            
25150223742019000031720236000267ABDELOUAHAB              MOHAMAD SALAH            00001972000J0000000000000J0000000000000J0000000000090J001000000000001000000001122018                            
25150223742019000032878476000432ABDEMEZIANE              NADIA                    22121987090J0009582225090J0009582225090J0009582225090J000958222500003832890001032017                            
25150223742019000033874350001251ABDENNOUR                IMENE                    27091987090J0008437050090J0008437050090J0008437050090J000843705000003374820031122014                            
25150223742019000034590186006738ABDENNOUR                CHERIF                   07061959000J0000000000090J0000480000000J0000000000000J000000000000000048000001032018                            
25150223742019000035791077001150ABDENNOUR                SIHEM                    20041979090J0034403775090J0034403775090J0034403775090J003440377500013761510030122007                            
25150223742019000036654239000156ABDERRAHIM               SIHAM                    06041965090J0012370200090J0013083000090J0012726600090J001272660000005090640011011987                            
25150223742019000037495517000157ABDERRAHIM               FARIDA                   24101949090J0091113600090J0091113600090J0091113600090J010263360000037597440001101973                            
25150223742019000038846455000246ABDERREZAK               MOHAMED ZAKI             12111984000J0000000000000J0000000000090J0002592000090J000237600000000496800001092018                            
25150223742019000039904955001344ABDERREZAK               MERIEM KHAIZOUR          24101990090J0023771250090J0049821250090J0035493750090J003549375000014458000010122017                            
25150223742019000040940024046251ABDESSEMAD               OUSSAMA                  07011994000J0000000000000J0000000000090J0002490000090J000036000000000285000001092018                            
25150223742019000041604764000155ABDESSEMED               ALI                      26061960090J0068136000090J0068136000090J0068136000090J006813600000027254400022111988                            
25150223742019000042550017008653ABDOU                    KAMEL                    17021955090J0081487500090J0081487500090J0081487500090J008148750000032595000025021984                            
25150223742019000043791990001441ABED                     KHOUDIR                  06021979090J0049992000090J0049992000090J0055536000090J007227870000022779870015112009                            
25150223742019000044836192000146ABED                     NOUSSEIBA                03051983090J0037688850090J0048806100090J0039912300090J003991230000016631955023092012                            
25150223742019000045691792000742ABER                     ZOUBIR                   11021969090J0010563438090J0012555813090J0010875288090J001087528800004486982703111997                            
25150223742019000046744082001251ABER                     OUARDA                   06041974090J0007014480090J0007014480090J0007014480090J000701448000002805792031122014                            
25150223742019000047735626000254ABEUR                    REDHA                    06051973090J0010966875090J0012867675090J0011323275090J001132327500004648110006071997                            
25150223742019000048511658000755ABID                     ALI                      22111951090J0047632425090J0047632425090J0047632425090J004763242500019052970016101982                            
25150223742019000049813047003352ABID                     RIME                     11081981090J0052584000090J0052584000090J0052584000090J005157960000020933160001102009                            
25150223742019000050870211029447ABID                     ABDELMOUMEN              17121987090J0023771250090J0023771250090J0023771250090J002377125000009508500023092018                            
25150223742019000051870216023553ABID                     AICHA                    30111987090J0023771250090J0057766500090J0035493750090J003549375000015252525009102017                            
25150223742019000052866467000240ABIDAT                   ROUKIA                   09051986000J0000000000000J0000000000090J0004536000090J000432000000000885600001092018                            
25150223742019000053832722001061ABIDI SAAD               AISSA                    18101983000J0000000000000J0000000000000J0000000000090J000972000000000972000001122018                            
25150223742019000054740092022253ABOUD                    HEMAAMA                  28011974090J0030642000090J0030642000090J0030642000090J003064200000012256800002032014                            
25150223742019000055885167001340ABOUDI                   ASMA                     07041988000J0000000000000J0000000000000J0000000000090J000501000000000501000001122018                            
25150223742019000056687354000345ABRIT                    RIAD                     27071968090J0015665850090J0015665850090J0015665850090J001566585000006266340020112016                            
25150223742019000057458222000161ABUSARI                  NAWAF                    01091945090J0084720000090J0084720000090J0084720000090J008702400000034118400011021989                            
25150223742019000058821747001055ACHILI                   HOUDA                    27121982090J0034403775090J0034403775090J0034403775090J003440377500013761510018102008                            
25150223742019000059833507000458ACHOU                    LYDIA                    30091983090J0028748625090J0026849625090J0028748625090J002874862500011309550012102015                            
25150223742019000060945276000540ACHOU                    RAYENE                   25041994000J0000000000090J0002040000000J0000000000090J000054000000000258000001032018                            
25150223742019000061860038010755ACHOUB                   HANANE                   18021986000J0000000000090J0002376000000J0000000000090J000302400000000540000001032018                            
25150223742019000062553067001156ACHOUR                   ALI                      25071955090J0068136000090J0076776000090J0070728000090J007072800000028636800003091987                            
25150223742019000063820767001746ACHOURI                  AMEL                     30111982090J0023771250090J0023771250090J0023771250090J001874925000009006300001072018                            
25150223742019000064840745000653ADACI                    SANA                     15061984090J0032535375090J0041254575090J0034403775090J003440377500014259750015112009                            
25150223742019000065761531001657ADERGHAL                 NADIA                    06081976000J0000000000090J0009720000000J0000000000000J000000000000000972000001032018                            
25150223742019000066890062034940ADI                      FATEN                    13091989090J0023771250090J0023771250090J0023771250090J001874925000009006300031102018                            
25150223742019000067804956000347ADJABI                   MESSAOUD                 16111980090J0011067141090J0011067141090J0011067141090J001305164100004625306417122005                            
25150223742019000068811227010066ADJAILIA                 MOHAMED SEDDIK           23011981090J0023771250090J0023771250090J0023771250090J002377125000009508500026112017                            
25150223742019000069830038014354ADJEROUD                 MOUSTAFA                 02011983090J0016718850090J0016718850090J0016718850090J001671885000006687540031122009                            
25150223742019000070780952004840ADJEROUD                 MOUSSA                   09061978090J0019204325090J0015673500090J0015673500090J001567350000006622482512102015                            
25150223742019000071930075043841ADJETIOU                 KHALED                   27011993000J0000000000000J0000000000000J0000000000090J000162000000000162000001122018                            
25150223742019000072755195000541ADJISSI                  NOUZHA                   20121975090J0017956125090J0022027725090J0018719550090J001871955000007742295029122011                            
25150223742019000073520059010067ADJOUL                   HENIA                    01041952090J0075277500090J0075277500090J0075277500090J007527750000030111000017091977                            
25150223742019000074791303002460ADLANI                   AMEL                     12081979090J0034403775090J0042608400090J0036297150090J004601715000015932647502122006                            
25150223742019000075741231001365ADOUI                    FAIZA                    28011974090J0044302500090J0044302500090J0044302500090J006074250000019365000001102007                            
25150223742019000076844453000450ADOUI                    FARIDA                   21031984000J0000000000000J0000000000090J0002610000090J000267750000000528750001092018                            
25150223742019000077660270009839AFFOUN                   SAMIA                    02111966000J0000000000000J0000000000000J0000000000090J000972000000000972000001122018                            
25150223742019000078873767000341AFOUTNI                  LARBI                    16091987000J0000000000000J0000000000000J0000000000090J002427662000002427662014122015                            
25150223742019000079530008014366AFRI                     FATIMA ZOHRA             10011953090J0084720000090J0085392000090J0084720000090J011759520000037242720017091978                            
25150223742019000080788503000152AGABOU                   AMIR                     08071978090J0049992000090J0049992000090J0049992000090J008490827000023488427031122008                            
25150223742019000081683025000163AGGOUN                   SONIA                    11031968090J0013814475090J0015685575090J0014215425090J001421542500005793090022041989                            
25150223742019000082711713001563AGGOUN                   GHANIA                   09021971090J0012968025090J0013955550090J0013391250090J001339125000005370607515061997                            
25150223742019000083770376003148AGGOUN                   YAZID                    24031977090J0017192700090J0020246400090J0017956125090J001795612500007335135031122009                            
25150223742019000084807910000256AGGOUN                   NABILA                   14061980090J0010009500090J0010009500090J0008531250090J001000950000003855975010022014                            
25150223742019000085784491000739AGGOUN                   YOUCEF                   05041978090J0008891700090J0010710825090J0009671325090J000967132500003894517525062015                            
25150223742019000086720262019345AGGOUN                   MOUFIDA                  07101972090J0052584000090J0052584000090J0052584000090J005258400000021033600003122005                            
25150223742019000087759699000128AGGOUN                   CHERIFA                  14081975090J0046497600090J0046497600090J0038905200090J004649760000017839800015092003                            
25150223742019000088760399002837AGGOUN                   NACIRA                   09021976090J0036297150090J0044802380090J0035816325090J003819052500015510638003102004                            
25150223742019000089710286006840AGGOUNE                  ABDEREZAK                17031971090J0008074770090J0008074770090J0008074770090J000807477000003229908025101997                            
25150223742019000090560297007141AGGOUNE                  MOHSEN                   07101956090J0091113600090J0091113600090J0091113600090J009111360000036445440026031988                            
25150223742019000091790173012053AGGOUNE                  FATEH                    18011979000J0000000000000J0000000000000J0000000000090J000648000000000648000001122018                            
25150223742019000092541230001469AGLI                     ABDENACER                05121954090J0095946600090J0095946600090J0095946600090J004247980000033031960019091983                            
25150223742019000093831508002457AGRED                    RYM                      08031983000J0000000000090J0001920000000J0000000000000J000000000000000192000001032018                            
25150223742019000094787671000339AGUIB                    SIHEM                    20061978090J0049992000090J0049992000090J0049992000090J006259200000021256800031122008                            
25150223742019000095831887001144AGUIS                    MOHAMED                  27081983090J0028748625090J0038215500090J0030642000090J003064200000012824812501102015                            
25150223742019000096790102010072AHMED ABDELMALEK         HABIBA                   04031979090J0011532900090J0011532900090J0011532900090J001153290000004613160023022014                            
25150223742019000097902805001755AHMED CHAOUCH            MEROUA                   06121990000J0000000000000J0000000000000J0000000000090J001637575000001637575029102019                            
25150223742019000098934530001057AIACHI                   HIBA                     26101993000J0000000000090J0002640000000J0000000000000J000000000000000264000001032018                            
25150223742019000099742515001558AIB                      ABDELATIF                26021974090J0042107400090J0048692700090J0044302500090J004430250000017940510002032014                            
25150223742019000100780029019441AICHAOUI                 SAMI                     01011978090J0008282400090J0008282400090J0008282400090J000828240000003312960003112004                            
25150223742019000101796930000346AICHAOUI                 HOUDA                    13051979090J0036297150090J0048288530090J0038190525090J003819052500016096673012122004                            
25150223742019000102890632003351AICHE                    MOHAMED EL HADI          13011989000J0000000000000J0000000000000J0000000000090J000316800000000316800001122018                            
25150223742019000103591169000749AIDEL                    SALIH                    11081959000J0000000000090J0000810000000J0000000000000J000000000000000081000001032018                            
25150223742019000104761863001052AIDOUCI                  HAFSA                    13101976090J0015297300090J0018851175090J0016008075090J001600807500006616462501122015                            
25150223742019000105776418000448AIEB                     NABIL                    00001977090J0009472392090J0009472392090J0009472392090J000947239200003788956820122003                            
25150223742019000106627131000162AIECHE                   MALIKA                   18091962090J0008017297090J0008017297090J0008017297090J000801729700003206918805091995                            
25150223742019000107800010029457AIED                     MOHAMED                  03011980090J0010009500090J0010009500090J0010009500090J001000950000004003800010022014                            
25150223742019000108824494002142AIFOUR                   MOHAMED CHERIF           26031982000J0000000000000J0000000000000J0000000000090J000427500000000427500001122018                            
25150223742019000109762454000156AIHAR                    NOUDJOUD                 16021976090J0013537650090J0015304125090J0014049975090J001325482500005614657501102002                            
25150223742019000110653384000350AIMAR                    BELKACEM                 16031965090J0011679675090J0011679675090J0011679675090J001167967500004671870015021997                            
25150223742019000111920165023944AIMAR                    FARID                    17021992000J0000000000000J0000000000000J0000000000090J000192000000000192000001122018                            
25150223742019000112620060017850AIMAT                    MOSTEFA                  08101962090J0012767550090J0012767550090J0012767550090J001276755000005107020017031990                            
25150223742019000113677521000155AIMENE                   NADJET                   10111967090J0015297300090J0019561950090J0016008075090J001600807500006687540031122012                            
25150223742019000114570123009650AIMEUR                   RACHIDA                  06081957090J0068136000090J0068136000090J0068136000090J010489547000030930347024021986                            
25150223742019000115690516008643AIMEUR                   FAYCAL                   11011969090J0036297150090J0048288530090J0038190525090J004971052500017248673012122004                            
25150223742019000116798090000240AIMOUR                   OIRDA                    03061979090J0010708725090J0013203525090J0011176500090J001117650000004626525001122014                            
25150223742019000117797347000143AIOUNE                   HANANE                   26121979090J0015297300090J0019798875090J0016008075090J001600807500006711232510122013                            
25150223742019000118674297000342AISSA                    KARIM                    14061967090J0012243750090J0013047000090J0012645375090J001264537500005058150008011995                            
25150223742019000119591617001160AISSANI                  SAMIRA                   02091959000J0000000000000J0000000000000J0000000000090J000234000000000234000001122018                            
25150223742019000120660156006547AISSANI                  RADOUANE                 07101966090J0053108550090J0053108550090J0050183550090J004872105000020512170001102007                            
25150223742019000121781196002244AISSANI                  OUAFA                    19051978090J0034403775090J0034403775090J0034403775090J004412377500014733510015112009                            
25150223742019000122930818011750AISSANI                  HALLA                    17011993000J0000000000000J0000000000090J0000990000090J000072000000000171000001092018                            
25150223742019000123640369006245AISSAOUI                 BACHAGHA                 04061964090J0010875288090J0010875288090J0010875288090J001087528800004350115230111998                            
25150223742019000124787424000150AISSAOUI                 MANEL                    12061978090J0017192700090J0017192700090J0017192700090J001719270000006877080001122015                            
25150223742019000125661554000456AISSAOUI                 CHAFIKA                  15111966090J0059118750090J0050916150090J0050916150090J005091615000021186720003092005                            
25150223742019000126685865000242AISSAOUI                 HABIB                    04061968090J0080597100090J0080597100090J0080597100090J010175070000034354200021102000                            
25150223742019000127767352000248AISSAOUI                 AMEL                     13061976090J0046497600090J0046497600090J0046497600090J004649760000018599040014122004                            
25150223742019000128842320000761AISSAOUI                 HANANE                   11021984000J0000000000090J0010764000000J0000000000090J000270000000001346400001032018                            
25150223742019000129710334006752AISSAOUI ZITOUN          OUARDA                   01041971090J0062155500090J0062155500090J0062155500090J007367550000026014200012122004                            
25150223742019000130901431003062AISSOUS                  IMANE                    05121990000J0000000000090J0002400000000J0000000000090J000228000000000468000001032018                            
25150223742019000131903812001259AISSOUS                  MERIEM                   04101990000J0000000000090J0002625000000J0000000000000J000000000000000262500001032018                            
25150223742019000132608371000152AIT ABDELOUAHAB          DJAOUZA                  06121960090J0047632425090J0047632425090J0047632425090J004763242500019052970027101984                            
25150223742019000133863861001741AIT ABDESSELAM           ADEL                     26091986090J0009582225090J0009582225090J0009582225090J000958222500003832890020112016                            
25150223742019000134681956001347AIT DAHMANE              KARIMA                   07101968000J0000000000000J0000000000000J0000000000090J000316800000000316800001122018                            
25150223742019000135783486000936AIT KAKI                 AMEL                     14031978090J0044302500090J0056009700090J0046497600090J004649760000019330740001092004                            
25150223742019000136917875000237AIT KAKI                 LAMIA GHANIMA            25121991000J0000000000090J0001170000000J0000000000090J000099000000000216000001032018                            
25150223742019000137623720000266AIT MOUSSA               KARIM                    29041962090J0087916800090J0097996800090J0087916800090J008378760000035761800003091986                            
25150223742019000138885810000352AIT OUAKLI               THILELLI                 07111988000J0000000000000J0000000000090J0001230000090J000117000000000240000001122018                            
25150223742019000139614958000348AIT OUMEZIANE            RABAH YATI               21061961090J0024984900090J0024984900090J0024984900090J002498490000009993960016101993                            
25150223742019000140730249013254AKAAB                    FRIHA                    07031973090J0011679675090J0011679675090J0011679675090J001167967500004671870022011994                            
25150223742019000141830471002552AKEL                     FATIMA ZOHRA             19031983000J0000000000090J0001893375000J0000000000090J006128400000006317737501102015                            
25150223742019000142841314007450AKIL                     FATMA                    27051984090J0012551400090J0014981400090J0012452850090J001315890000005314455028122015                            
25150223742019000143620163010464AKKAL                    SALAH                    19041962090J0094599300090J0094599300090J0094599300090J010935930000039315720001101989                            
25150223742019000144690959000743AKKOUCHE                 SALIMA                   04111969090J0012036075090J0012036075090J0012036075090J001203607500004814430025091991                            
25150223742019000145927595000334AKKOUCHE                 ISMAIL                   28051992000J0000000000090J0000990000000J0000000000090J000072000000000171000001032018                            
25150223742019000146660166005052AKKOUCHI                 KAMEL                    21031966090J0032535375090J0040631775090J0039128775090J003440377500014669970024112010                            
25150223742019000147851156007144AKLIL                    BADIAA                   12041985090J0039912300090J0039912300090J0039912300090J003991230000015964920001102013                            
25150223742019000148694858000242AKNI                     HOCINE                   08051969090J0012243750090J0012243750090J0012243750090J001224375000004897500011111995                            
25150223742019000149700749002354AKNI                     RIAD                     22101970090J0008095290090J0008095290090J0008095290090J000809529000003238116006092001                            
25150223742019000150701937001653AKNI                     NADJIB                   19021970090J0019246050090J0019246050090J0019246050090J001924605000007698420031122009                            
25150223742019000151750069014347AKNI                     AHCENE                   02011975090J0046494900090J0046494900090J0046494900090J004876290000018824760002032014                            
25150223742019000152670314011959ALALLOUCHE               NADJI                    27101967090J0012036075090J0012036075090J0012036075090J001203607500004814430005011991                            
25150223742019000153502159000659ALATOU                   DJAMEL                   06071950090J0096581100090J0096581100090J0096581100090J011134110000040108440023091979                            
25150223742019000154836131000258ALATOU                   RADIA                    02051983090J0051454500090J0049992000090J0049992000090J004999200000020143050028112010                            
25150223742019000155911453003154ALATOU                   HANA                     24091991000J0000000000090J0001770000000J0000000000090J000189000000000366000001032018                            
25150223742019000156440524001369ALI KHODJA               JAMEL                    26051944090J0091113600090J0091113600090J0091113600090J009773760000037107840001121973                            
25150223742019000157584193000249ALI KHODJA               HOCINE                   07071958090J0091113600090J0091113600090J0091113600090J010635360000037969440016061984                            
25150223742019000158844711000754ALI SRIHEN               BILLEL                   07101984000J0000000000000J0000000000090J0003024000090J000302400000000604800001092018                            
25150223742019000159795515000351ALIOUCHE                 LAMIA                    15041979090J0042107400090J0042107400090J0042107400090J004210740000016842960003122009                            
25150223742019000160530028012564ALIOUECHE                AHMED                    14011953090J0051394200090J0051394200090J0051394200090J005139420000020557680018021984                            
25150223742019000161930245012751ALIOUECHE                MERYEM                   22031993000J0000000000090J0002970000000J0000000000090J000207000000000504000001032018                            
25150223742019000162710868001450ALLA                     AMOR                     03101971090J0031786875090J0031786875090J0031786875090J003178687500012714750015112009                            
25150223742019000163560234003461ALLAG                    SAADOUN                  00001956090J0053351700090J0053351700090J0053351700090J005335170000021340680007091983                            
25150223742019000164760721004455ALLAG                    NADJIMA                  12111976090J0036297150090J0036297150090J0036297150090J005266364000016155509003092005                            
25150223742019000165781853000351ALLAL                    SABAH                    20091978090J0010005450090J0011134050090J0010428675090J001042867500004199685001122015                            
25150223742019000166736526000154ALLAL                    SAMIHA                   27051973090J0030174300090J0038774700090J0031786875090J003178687500013252275003092005                            
25150223742019000167880277003442ALLALI                   KHAIREDDINE              07101988090J0035493750090J0042079050090J0037688850090J003768885000015295050001102015                            
25150223742019000168871206000957ALLAM                    SIHEM                    11041987090J0008125200090J0008125200090J0008125200090J000812520000003250080020112016                            
25150223742019000169690157008440ALLAOUI                  KHAMSSA                  03011969090J0068736000090J0068736000090J0068736000090J007226400000027847200003122005                            
25150223742019000170782890000245ALLAOUI                  ASSIA                    11061978090J0030642000090J0043264500090J0032535375090J005384649000016028836531102012                            
25150223742019000171561514000466ALLIA                    NACEREDDINE              13101956090J0049500825090J0057074325090J0051394200090J005139420000020936355004031982                            
25150223742019000172940012066352ALLICHE                  RAOUNAK                  01011994000J0000000000000J0000000000000J0000000000090J000081000000000081000001122018                            
25150223742019000173760815008741ALLIOUCHE                SALIMA                   15011976090J0010009500090J0010009500090J0010009500090J001000950000004003800010022014                            
25150223742019000174740568006143ALLIOUCHE                HAYETTE                  19091974090J0044302500090J0057473100090J0046497600090J005801760000020629080001102011                            
25150223742019000175720296004940ALLOUANI                 RAZIKA                   28061972090J0016336200090J0016336200090J0016336200090J001633620000006534480013071997                            
25150223742019000176772002000666ALLOUI                   ZOHRA                    21061977090J0008095254090J0008095254090J0008095254090J000809525400003238101610101993                            
25150223742019000177790216026844ALLOUI                   NASSIRA                  20051979090J0007792125090J0008284875090J0008284875090J000927037500003363225001122014                            
25150223742019000178730364002455ALLOUI                   OUAHIBA                  24091973090J0006958800090J0008149500090J0007213950090J000721395000002953620022062015                            
25150223742019000179760425005551ALLOUL                   ILHAM                    17011976000J0000000000000J0000000000000J0000000000090J000210000000000210000001122018                            
25150223742019000180912001000372ALLOUN                   WIEM                     12061991000J0000000000090J0000810000000J0000000000000J000000000000000081000001032018                            
25150223742019000181859972000233ALMI                     HIBA                     27061985090J0035493750090J0035493750090J0035493750090J005417649000016065774014112016                            
25150223742019000182758914000247ALOUA                    SAMIR                    24071975090J0008095290090J0008095290090J0008095290090J000776103000003204690003022001                            
25150223742019000183650113016162ALOUACHE                 LAKHDAR                  19101965090J0011307318090J0011307318090J0011307318090J001130731800004522927214071990                            
25150223742019000184635934000253ALOUACHE                 MIMIA                    27051963090J0007014480090J0007014480090J0007014480090J000701448000002805792001122014                            
25150223742019000185884802000453ALOUACHE                 AMEL                     31031988090J0023771250090J0066742250090J0035493750090J004229775000016830500002102017                            
25150223742019000186930230021264ALOUACHE                 BOUTHEINA                31071993000J0000000000000J0000000000000J0000000000090J000504000000000504000001122018                            
25150223742019000187691153001654ALOUI                    MAHFOUD                  05121969090J0013070625090J0013070625090J0013070625090J001307062500005228250007121994                            
25150223742019000188711103000870ALOUI                    AMEL                     10101971000J0000000000090J0009720000000J0000000000000J000000000000000972000001032018                            
25150223742019000189712048000559ALOUI                    KHEMISSA                 20091971090J0023771250090J0033781305090J0028748625090J002874862500011504980502102017                            
25150223742019000190733742000554ALYANE                   MOHAMMED                 21031973000J0000000000000J0000000000000J0000000000090J000050400000000050400001122018                            
25150223742019000191660002017361AMAMRA                   MOHAMED EL YAZI          01011966090J0016077000090J0016077000090J0016077000090J001607700000006430800027051991                            
25150223742019000192552299000447AMARA                    IDRIS                    19091955090J0028240000000J0000000000000J0000000000000J000000000000002824000009111986                            
25150223742019000193668921000249AMARA                    FAOUZI                   31081966090J0071932800090J0071932800090J0071932800090J007567680000029147520003122002                            
25150223742019000194826097000638AMARI                    KAMEL                    25041982090J0007076850090J0007076850090J0007076850090J000707685000002830740022122013                            
25150223742019000195580771000752AMEDDAH                  SOUAD                    10051958090J0087916800090J0087916800090J0087916800090J011120160000037495200029101983                            
25150223742019000196850771014740AMEDJOUDJ                WISSAME                  07071985090J0006889740090J0006889740090J0006889740090J000688974000002755896020112016                            
25150223742019000197650286014940AMEDJOUDJ                NOUAR                    11111965090J0044302500090J0050887800090J0046497600090J006327584000020496374001102007                            
25150223742019000198930432013257AMER YAHIA               THIZIRI                  22021993000J0000000000000J0000000000090J0003600000090J000360000000000720000001092018                            
25150223742019000199590266017144AMEUR                    CHERIF                   12051959090J0010676586090J0010676586090J0010676586000J00000000000000320297581110200001102019                    
25150223742019000200751054004353AMEUR                    LAZHAR                   24031975090J0008220030090J0008220030090J0008220030090J000822003000003288012017072004                            
25150223742019000201922869002735AMEUR                    IMENE                    03091992000J0000000000090J0001350000000J0000000000000J000000000000000135000001032018                            
25150223742019000202660489000844AMEZIANE                 FELLA                    08051966090J0028748625090J0028748625090J0028748625090J002874862500011499450020112016                            
25150223742019000203661758000549AMIAR                    FELLA                    20111966090J0012370200090J0013083000090J0012726600090J001272660000005090640019121985                            
25150223742019000204697471000144AMIAR                    MOHAMED                  22071969090J0012645375090J0012645375090J0012645375090J001264537500005058150003111993                            
25150223742019000205720938002848AMINE KHODJA             AMINA                    24101972090J0075129600090J0075129600090J0075129600090J007512960000030051840023011999                            
25150223742019000206774847000740AMINE KHODJA             MEDJDOUB                 02041977090J0042578025090J0042578025090J0039653025090J003819052500016299960012122004                            
25150223742019000207881149008435AMINE KHODJA             IMENE                    05081988090J0035493750090J0035493750090J0035493750090J003549375000014197500002102016                            
25150223742019000208918062000248AMIOUR                   MERIEM                   30121991090J0009582225090J0009582225090J0009582225090J000958222500003832890001032017                            
25150223742019000209762012002661AMIOUR                   LEILA                    04021976090J0035119800090J0037449000090J0042107400090J004210740000015678360015112009                            
25150223742019000210877383000238AMIOUR                   HANANE                   21051987000J0000000000090J0001080000000J0000000000090J000086400000000194400001032018                            
25150223742019000211910227017052AMIOUR                   NESRINE                  16011991000J0000000000000J0000000000000J0000000000090J000045000000000045000001122018                            
25150223742019000212780755007635AMIRA                    FATIMA ZOHRA             27081978090J0012022950090J0012022950090J0012022950090J001202295000004809180010022014                            
25150223742019000213781243004252AMIRA                    RADIA                    05091978000J0000000000090J0002592000000J0000000000090J000216000000000475200001032018                            
25150223742019000214623897000244AMIRAOUI                 MOHAMED                  07051962090J0015831975090J0015831975090J0015831975090J001583197500006332790001081982                            
25150223742019000215836727000644AMIRAOUI                 ATEF                     08121983090J0008933516090J0008933516090J0008933516090J000893351600003573406431122009                            
25150223742019000216793424002648AMIRAOUI                 YACINE                   05031979090J0006889740090J0006889740090J0006889740090J000688974000002755896020112016                            
25150223742019000217600004005766AMIRAT                   ABDELAZIZ                07011960000J0000000000000J0000000000090J0000480000000J000000000000000048000001092018                            
25150223742019000218781413004058AMIRECH                  MANEL                    27011978090J0018963900090J0018963900090J0018963900090J001896390000007585560031122009                            
25150223742019000219733996000538AMIRECHE                 NEDJOUA                  24031973090J0022171500090J0022171500090J0018675000090J001867500000008169300002111996                            
25150223742019000220674310000562AMIRECHE                 BAYA                     16041967090J0010428675090J0009490425090J0010428675090J001042867500004077645029122011                            
25150223742019000221733419001356AMIRECHE                 AZEDDINE                 11031973090J0006952110090J0006952110090J0006952110090J000695211000002780844001122015                            
25150223742019000222934469000936AMIRECHE                 MOHAMED SAMI             25101993090J0006827370090J0006827370090J0006827370090J000682737000002730948003122017                            
25150223742019000223604298000150AMIRECHE                 DJAMEL                   01061960090J0049500825090J0055180950090J0051394200090J005139420000020747017503041989                            
25150223742019000224744881000543AMIRECHE                 NADIR                    19121974090J0052584000090J0063816000090J0055176000090J008138267000025295867012122004                            
25150223742019000225660502003266AMMARI                   NOUREDDINE               15051966090J0009472392090J0009472392090J0009472392090J000947239200003788956820122003                            
25150223742019000226601149000661AMMARI                   MERZOUG                  00001960090J0049500825090J0059598825090J0060394200090J010941593000027890978015031986                            
25150223742019000227783466001542AMMARI                   ISSAM                    13031978000J0000000000090J0000720000000J0000000000090J000063000000000135000001032018                            
25150223742019000228900795011840AMMARI                   HALIMA                   04081990000J0000000000000J0000000000090J0003510000000J000000000000000351000001092018                            
25150223742019000229772672002741AMMOUCHI                 HOUDA                    26091977090J0020743200090J0020743200090J0020743200090J002074320000008297280031122009                            
25150223742019000230740233002066AMOURACHE                SAMIA                    04011974090J0044302500090J0044302500090J0044302500090J004430250000017721000002122006                            
25150223742019000231858522000546AMOURI                   FOUZIA                   10121985000J0000000000000J0000000000090J0014819500090J000889170000002371120001052019                            
25150223742019000232700845006448AMOURI                   AMMAR                    29081970090J0039881250090J0053051850090J0042076350090J004207635000017708580002102016                            
25150223742019000233755344000352AMOURI                   CHAHINEZ                 30041975090J0042107400090J0042107400090J0042107400090J004210740000016842960025102010                            
25150223742019000234876494000434AMRANI                   IMENE                    10111987090J0008891700090J0010406400090J0009270375090J000927037500003783885025062015                            
25150223742019000235740690001055AMRANI                   MERZAKA                  30061974090J0044302500090J0044302500090J0044302500090J004430250000017721000002122006                            
25150223742019000236750515009248AMRANI                   AMEL                     21081975090J0055176000090J0055176000090J0055176000090J006813600000023366400015092003                            
25150223742019000237775164000348AMRANI                   MOURAD                   29111977000J0000000000000J0000000000000J0000000000090J000972000000000972000001122018                            
25150223742019000238651359000850AMRAOUI                  KAMEL                    26121965090J0009090528090J0009090528090J0009090528090J000909052800003636211204112006                            
25150223742019000239797681000237AMRI                     AICHA                    29051979090J0011532900090J0012676350090J0012022950090J001202295000004825515010122013                            
25150223742019000240756105000359AMRI                     SIHAM                    20051975090J0030642000090J0030642000090J0030642000090J004036200000013228800001102015                            
25150223742019000241670648006739ANAK                     OMAR                     02061967090J0014250861090J0014250861090J0014250861090J001425086100005700344404112006                            
25150223742019000242777443000247ANAK                     BARKAHEM                 28051977000J0000000000090J0000300000000J0000000000090J001152000000001182000001032018                            
25150223742019000243870577002145ANANA                    HAYET                    14031987000J0000000000000J0000000000000J0000000000090J000194400000000194400001122018                            
25150223742019000244670138007546ANNAB                    ACHOUR                   01011967090J0013406688090J0013406688090J0013406688090J001340668800005362675215091991                            
25150223742019000245859247000439ANNANI                   RIMA                     14061985090J0010409025090J0011020575090J0011020575090J001102057500004347075020112016                            
25150223742019000246747903000253ANTRI                    SABRINA                  12071974090J0010966875090J0012036075090J0011323275090J001132327500004564950014101997                            
25150223742019000247692750000750AOUABDIA                 NABILA                   11031969090J0055176000090J0055176000090J0065256000090J005517600000023078400012112003                            
25150223742019000248896629000340AOUACHERIA               MERIEM                   26051989090J0014811300090J0014811300090J0014811300090J001481130000005924520029122011                            
25150223742019000249790613003356AOUAD                    RAZIKA                   27081979090J0032535375090J0032535375090J0032535375090J006766478000016527090502032014                            
25150223742019000250521353000960AOUADJA                  MOHAMMED                 27031952090J0051458325090J0056507325090J0053351700090J005335170000021466905001091990                            
25150223742019000251596118000354AOUADJA                  FATIMA ZOHRA             22091959090J0091113600090J0091113600090J0091113600090J009111360000036445440011021989                            
25150223742019000252790245013945AOUAIDJIA                NAOUEL                   23011979090J0039912300090J0050156100090J0042107400090J004210740000017428320025102010                            
25150223742019000253679917000143AOUATI                   AMAL                     16101967090J0012370200090J0012370200090J0012370200090J001237020000004948080019121985                            
25150223742019000254800674006740AOUATI                   CHEMSEDDINE              11011980090J0009582225090J0009582225090J0009582225090J000958222500003832890020112016                            
25150223742019000255617971000147AOUATI                   MOHAMED KHELIL           08111961000J0000000000090J0009720000000J0000000000090J001092000000002064000001032018                            
25150223742019000256819631000249AOUATI                   REDA                     12071981090J0039912300090J0039912300090J0039912300090J004963230000016936920004122011                            
25150223742019000257885607000250AOUATI                   HOUSSEM EDDINE           16041988000J0000000000000J0000000000090J0001800000090J000081000000000261000001092018                            
25150223742019000258671089001447AOUDA                    LAZHAR                   23061967090J0010495680090J0010495680090J0010495680090J001049568000004198272001121991                            
25150223742019000259783549000445AOUGUEB                  LEILA                    16031978090J0008437050090J0008437050090J0008437050090J000843705000003374820023022014                            
25150223742019000260794875000635AOUICHA                  LAMIA                    28101979090J0036297150090J0040909650090J0036297150090J005390892000016741287001102007                            
25150223742019000261770002044955AOUNALLAH                OUNIS                    01071977090J0008771175090J0009394875090J0009083025090J000908302500003633210029122011                            
25150223742019000262811398004637ARAAR                    CHAOUKI                  22041981090J0030642000090J0036953250090J0032535375090J003253537500013266600030112015                            
25150223742019000263801461000955ARAB                     OUIDED                   27011980090J0032535375090J0044554575090J0034403775090J004265377500015414750015112009                            
25150223742019000264870931001454ARABET                   DALLEL                   14011987090J0037688850090J0065183970090J0049708500090J004970850000020228982001102014                            
25150223742019000265910830008149ARABET                   MOHAMED AKRAM            12061991000J0000000000000J0000000000000J0000000000090J000285000000000285000001122018                            
25150223742019000266649157000443ARAFA                    NEDJOUA                  11091964090J0062952000090J0083007750090J0069931500090J006993150000028582275009011999                            
25150223742019000267520175003754ARAISSIA                 BELKACEM                 14111952090J0039778875090J0051765455090J0045739050090J004573905000018302243012111977                            
25150223742019000268690188002940ARAR                     NOURIA                   11031969090J0053111250090J0058403250090J0053111250090J005579925000022042500015111998                            
25150223742019000269750123025159ARAR                     KARIM                    06011975000J0000000000000J0000000000000J0000000000090J003169500000003169500001092019                            
25150223742019000270880180029929ARAR                     HEMZA                    17041988000J0000000000000J0000000000090J0000720000000J000000000000000072000001092018                            
25150223742019000271664041000856ARBAOUI                  FAYCAL                   09061966000J0000000000000J0000000000090J0000336000000J000000000000000033600001092018                            
25150223742019000272783487000836ARBOUZE                  FAYCAL                   15031978090J0007908180090J0007908180090J0007908180090J000790818000003163272009032004                            
25150223742019000273800911001465ARFA                     AZZEDINE MOHAME          17011980090J0038791275090J0038791275090J0038791275090J007939819000019577201515112009                            
25150223742019000274880506006448ARIBI                    BOUTHEYNA                16041988090J0035493750090J0035493750090J0035493750090J003549375000014197500002102016                            
25150223742019000275847781000239ARIDJA                   FADILA                   10121984090J0014495400090J0017549100090J0015200100090J001520010000006244470001122015                            
25150223742019000276791380004047ARIS                     SKANDER                  13081979090J0058159500090J0058159500090J0058159500090J007063950000024511800015112009                            
25150223742019000277791658002145AROUI                    MOUNIR                   30011979090J0007263960090J0007263960090J0007263960090J000726396000002905584030122010                            
25150223742019000278899376000132AROUI                    HOUSSEM                  18071989090J0006889740090J0006889740090J0006889740090J000688974000002755896020112016                            
25150223742019000279671516001657ARROUM                   KHALED                   29111967090J0012036075090J0012036075090J0012036075090J001203607500004814430028121990                            
25150223742019000280899281000136ARS                      MOHAMED LAMINE           17071989090J0014586525090J0017666550090J0015297300090J001529730000006284767501122015                            
25150223742019000281945199000435ASKRI                    HIND                     24041994000J0000000000000J0000000000000J0000000000090J000162000000000162000001122018                            
25150223742019000282751197000250ASSABAA                  SAMIRA                   22091975090J0009596400090J0009596400090J0009596400090J000959640000003838560020112016                            
25150223742019000283590073030555ASSABAA                  RACHIDA                  00001959090J0091113600090J0091113600090J0091113600090J009111360000036445440009101983                            
25150223742019000284788920000246ASSABAA                  MOHAMED                  22071978090J0023771250090J0070248200090J0039912300090J004243230000017636405001102007                            
25150223742019000285930547008735ASSABAA                  IBTIHEL                  13021993090J0023771250090J0025283250090J0023771250090J002506725000009789300003072018                            
25150223742019000286892426003941ASSADI                   IMANE                    28051989000J0000000000000J0000000000090J0002376000000J000000000000000237600001092018                            
25150223742019000287822142002062ASSAS                    SOUAD                    11071982090J0018429975090J0018429975090J0018429975090J001842997500007371990031122009                            
25150223742019000288801876000845ASSAS                    SAMIHA                   10081980090J0044302500090J0044302500090J0044302500090J004430250000017721000030122007                            
25150223742019000289755214000557ATMA                     FAHIMA                   27041975090J0020108700090J0020108700090J0020108700090J002010870000008043480022021998                            
25150223742019000290642525000362ATMA                     HOURIA                   25021964090J0020957175090J0020957175090J0020957175090J002424667500008711820010091988                            
25150223742019000291722698000443ATMA                     OMAR                     07031972090J0014049975090J0014049975090J0014049975090J001404997500005619990025122007                            
25150223742019000292607401000167ATMANI                   FADILA                   02111960090J0033375825090J0033375825090J0033375825090J003783982500013796730001092007                            
25150223742019000293626753000251ATMANI                   LATIFA                   04091962090J0022935850090J0009440640000J0000000000090J004839620000008077269003122005                            
25150223742019000294818643000247ATOUI                    MINA                     20061981090J0010428675090J0010428675090J0010428675090J001042867500004171470010122013                            
25150223742019000295794138000944ATOUI                    LOUBNA                   10101979090J0014495400090J0017549100090J0015200100090J001520010000006244470001122015                            
25150223742019000296857810000351ATOUI                    ISSAM                    29081985000J0000000000000J0000000000090J0004104000000J000000000000000410400001092018                            
25150223742019000297580139011854ATTAF                    NADIR                    00001958090J0087916800090J0093244800090J0091113600090J009154560000036382080010101983                            
25150223742019000298765049000349ATTAF                    SONIA                    18041976090J0046497600090J0046497600090J0046497600090J004649760000018599040001112016                            
25150223742019000299935248000842ATTAF                    RAYANE                   10111993000J0000000000090J0000810000000J0000000000090J000090000000000171000001032018                            
25150223742019000300570134005259ATTALAH                  SALAH                    06121957090J0084720000090J0092112000090J0084720000090J009251520000035406720010101984                            
25150223742019000301741017004161ATTALLAOUI               SAMIR                    14071974090J0037688850090J0037688850090J0037688850090J003768885000015075540008102013                            
25150223742019000302856930000546AYACHE                   OUISSEM                  05051985090J0007471609090J0007471609090J0007471609090J000747160900002988643631122009                            
25150223742019000303871290005935AYACHE                   NOUR EL HOUDA            31071987090J0015904800090J0018723600090J0016609500090J001660950000006784740031122009                            
25150223742019000304720727006251AYACHI                   MOHAMED                  24081972090J0015467400090J0021386100090J0018410400090J001841040000007367430031122008                            
25150223742019000305580153017547AYACHI                   CHAABANE                 01071958090J0081487500090J0081487500090J0081487500090J009120750000033567000010101982                            
25150223742019000306771294002246AYACHI                   DALILA                   25011977090J0031739550090J0034018350090J0036297150090J007374440000017579945001122015                            
25150223742019000307870182005938AYACHI                   ASMA                     01021987090J0009806250090J0003024000000J0000000000000J000000000000001283025002102016                            
25150223742019000308894710001253AYACHI                   OUARDA SARIA             13041989000J0000000000090J0002700000000J0000000000090J000187200000000457200001032018                            
25150223742019000309883412002057AYAD                     NESRINE                  12091988090J0014155200090J0014155200090J0014155200090J001415520000005662080010122013                            
25150223742019000310752041000958AYAD                     AMEL                     06101975090J0015665850090J0023554575090J0016429275090J001642927500007207897501122015                            
25150223742019000311791873001344AYAD                     ABDELHAK                 13071979000J0000000000090J0003738000000J0000000000090J001309800000001683600001032018                            
25150223742019000312826160000254AYAD                     ABLA                     28041982090J0034403775090J0034403775090J0034403775090J003620377500013941510015112009                            
25150223742019000313833106002261AYAD                     RADIA                    02111983090J0047400000090J0047400000090J0047400000000J000000000000014220000023092012                            
25150223742019000314880036011060AYAD                     SOULEF                   00001988000J0000000000000J0000000000090J0002160000090J000237600000000453600001092018                            
25150223742019000315717031000162AYADI                    NAAMANE                  26061971090J0008074770090J0008074770090J0008074770090J000807477000003229908025101997                            
25150223742019000316491287001350AYADI                    ABDELHAMID               16061949000J0000000000000J0000000000090J0000768000000J000000000000000076800001092018                            
25150223742019000317750868006832AYADI                    OUARDA                   15051975090J0049992000090J0057384000090J0049992000090J004999200000020736000015112009                            
25150223742019000318801577001251AYADI                    AICHA                    08111980090J0037688850090J0040460850090J0037688850090J003768885000015352740006102013                            
25150223742019000319809211000159AYAT                     NASREDDINE               13071980090J0010983609090J0010983609090J0010983609090J001098360900004393443617122005                            
25150223742019000320610918000661AYAT                     SOUAD                    29011961090J0061920000090J0061920000090J0061920000090J006192000000024768000007091988                            
25150223742019000321781893003139AYED                     LEILA                    00001978090J0009229425090J0009897675090J0009563550090J000956355000003825420030122010                            
25150223742019000322764524000850AZEROUAL                 SANNA                    05041976090J0007666502090J0007666502090J0007666502090J000766650200003066600801092004                            
25150223742019000323540995002643AZIL                     DJAMEL                   04031954090J0045739050090J0048889050090J0045739050090J005143905000019180620003122002                            
25150223742019000324590170019343AZIOUNE                  FOUZIA                   30121959090J0007861386090J0007861386090J0007861386090J00052409240000288250821206199901122019                    
25150223742019000325939213000350AZIOUNE                  ILHEM                    10071993000J0000000000000J0000000000090J0001620000090J000180000000000342000001092018                            
25150223742019000326713342000263AZIZ                     DJAMEL                   06121971090J0008199510090J0008199510090J0008199510090J000819951000003279804004121995                            
25150223742019000327825005000462AZIZ                     SAMY                     28101982090J0009270375090J0009270375090J0009270375090J000927037500003708150023022014                            
25150223742019000328790834004545AZIZI                    MANEL                    02091979090J0026972775090J0026972775090J0026972775090J002697277500010789110001102014                            
25150223742019000329794860000741AZIZI                    ASSIA                    27101979090J0042107400090J0054546300090J0044302500090J004430250000018525870001102007                            
25150223742019000330512738000360AZIZI                    CHERRIFA                 16081951000J0000000000000J0000000000090J0000480000000J000000000000000048000001092018                            
25150223742019000331551353000759AZOUI                    BOUBAKEUR                15081955000J0000000000000J0000000000090J0000384000000J000000000000000038400001092018                            
25150223742019000332829058000144AZOUNE                   SABER                    30061982090J0017098200090J0021690900090J0017754300090J001775430000007429770022122013                            
25150223742019000333691472001450AZOUZ                    ZINEB                    04021969090J0053111250090J0062623350090J0055306350090J005530635000022634730020111995                            
25150223742019000334832209000560AZZAM                    NOUREDDINE               23121983090J0042076350090J0044299800090J0044299800090J004429980000017497575006102013                            
25150223742019000335884319001150AZZIZI                   ZINE ELABIDINE           30091988090J0006952110090J0006952110090J0006952110090J000695211000002780844001122015                            
25150223742019000336743411000959AZZOUG                   RADIA                    15111974000J0000000000090J0011520000000J0000000000090J001152000000002304000001032018                            
25150223742019000337762782001048AZZOUZ                   FATIMA ZOHRA             21021976090J0016099200090J0019598400090J0016755300090J001675530000006920820017122005                            
25150223742019000338845914000153AZZOUZ                   KARIMA                   01111984090J0012022950090J0013047600090J0012535275090J001253527500005014110031122009                            
25150223742019000339733144000459AZZOUZ                   ABDELHAKIM               18111973090J0010040850090J0010040850090J0010040850090J001004085000004016340022062015                            
25150223742019000340811074003353AZZOUZ                   OUASSILA                 24091981000J0000000000000J0000000000000J0000000000090J000972000000000972000001122018                            
25150223742019000341877216000349AZZOUZ                   SARRA                    17051987090J0037688850090J0033437250090J0035563050090J003768885000014437800001102014                            
25150223742019000342750406009745BAADECHE                 MOHAMED                  13061975090J0023771250090J0068727700090J0044112300090J003991230000017652355002102017                            
25150223742019000343740178009436BAALI                    NACERA                   02011974090J0046497600090J0052426800090J0048721050090J004872105000019636650001102013                            
25150223742019000344850102043857BAALI                    SOUAD                    30111985090J0035493750090J0046469250090J0037688850090J003768885000015734070001102015                            
25150223742019000345570768000451BAAZIZ                   HOCINE                   00001957090J0051394200090J0051394200090J0051394200090J005139420000020557680005091987                            
25150223742019000346620210003669BAAZIZ                   NASSER                   24091962090J0081523200090J0082027200090J0081523200090J008152320000032659680020091989                            
25150223742019000347700968001054BAAZIZ                   HAKIM                    23121970000J0000000000000J0000000000000J0000000000090J000048000000000048000001122018                            
25150223742019000348711335002361BABAA                    DJAMILA                  01021971090J0028585350090J0036937350090J0028585350090J002858535000012269340015112009                            
25150223742019000349751182001354BABAA                    FATIMA                   23061975090J0044302500090J0044302500090J0050098500090J005582250000019452600001102007                            
25150223742019000350830007011664BABOURI                  NABIL                    02011983090J0015904800090J0017314200090J0016609500090J001660950000006643800031122009                            
25150223742019000351942547000746BACHA                    SID ALI                  25021994000J0000000000000J0000000000090J0002970000090J000189000000000486000001092018                            
25150223742019000352597129000250BACHKHAZNADJI            ABDELDJEBBAR             10111959090J0057529800090J0067773600090J0059724900090J005972490000024475320006031990                            
25150223742019000353610829001261BACHKHAZNADJI            ABDELMALIK               26011961090J0094440000090J0094440000090J0094440000090J009444000000037776000001101988                            
25150223742019000354722714000561BACHTARZI                KARINA                   09031972090J0034403775090J0034403775090J0034403775090J008957516000019278648525102010                            
25150223742019000355787762000438BACHTARZI                NADIA                    17061978090J0034403775090J0034403775090J0034403775090J004412377500014733510010112013                            
25150223742019000356540966000454BADACHE                  AHCENE                   11031954090J0061920000090J0061920000090J0061920000090J006192000000024768000008091981                            
25150223742019000357760035005652BADACHE                  SAAD                     22011976090J0034403775090J0034403775090J0034403775090J003440377500013761510002122006                            
25150223742019000358804249000353BADAOUI                  KHADIDJA                 25031980090J0013537650090J0013537650090J0013537650090J001353765000005415060001102002                            
25150223742019000359462007000668BADAOUI                  MAHMOUD                  17071946090J0059724900090J0059724900090J0059724900090J005972490000023889960015101975                            
25150223742019000360875235000152BADAOUI                  FATIMA ZOHRA             14101987000J0000000000090J0009720000000J0000000000090J000972000000001944000001032018                            
25150223742019000361833080000256BADER                    ACHOUAK                  26021983090J0042107400090J0042107400090J0042107400090J004780740000017412960018102008                            
25150223742019000362931039004152BADI                     FAIZA                    10101993000J0000000000000J0000000000000J0000000000090J000258000000000258000001122018                            
25150223742019000363610850001165BAGGA                    NADIA                    27111961090J0049500825090J0057705450090J0051394200090J005139420000020999467519111989                            
25150223742019000364787995000229BAGHDADI                 HANEN                    25061978090J0011020575090J0011020575090J0011020575090J001102057500004408230020112016                            
25150223742019000365891155003149BAGHDADI                 IMENE                    25011989000J0000000000090J0000300000090J0000360000090J000096000000000162000001032018                            
25150223742019000366800008018256BAGHRICHE                OUALID                   01011980090J0049992000090J0062952000090J0052584000090J005258400000021811200001102007                            
25150223742019000367840178004543BAGHRICHE                MARIEM                   22061984000J0000000000090J0002376000000J0000000000090J000194400000000432000001032018                            
25150223742019000368676191000345BAHCHACHI                LAMIA                    13061967090J0027644400090J0027644400090J0027644400090J002939400000011232720017091996                            
25150223742019000369740897002440BAHCHACHI                NOURA                    09091974090J0044471400090J0044471400090J0044471400090J009562632000022904052001102002                            
25150223742019000370804251001357BAHCHACHI                YASMINA                  25031980090J0032535375090J0044492775090J0034403775090J003957877500015101070015112009                            
25150223742019000371778071000146BAHI                     HOUDA                    02061977090J0009229425090J0010565925090J0009563550090J000956355000003892245030122010                            
25150223742019000372510368002061BAHI                     LAKHDAR                  22011951090J0091113600090J0091113600090J0091113600090J010587360000037921440011101982                            
25150223742019000373570112010868BAHI                     TAHAR                    14051957000J0000000000000J0000000000090J0000384000000J000000000000000038400001092018                            
25150223742019000374831320004558BAHI                     AHLEM                    03021983090J0047400000090J0047400000090J0047400000090J004486560000018706560022112010                            
25150223742019000375925490001243BAHI                     MERIEM                   27101992000J0000000000000J0000000000090J0001350000090J000144000000000279000001092018                            
25150223742019000376610006019952BAHLOUL                  FARIDA                   03011961090J0091113600090J0091113600090J0091113600090J009111360000036445440014101986                            
25150223742019000377795407000550BAHLOUL                  ABLA                     08111979000J0000000000000J0000000000090J0003024000000J000000000000000302400001092018                            
25150223742019000378520073009151BAHNOUS                  MEBAREK                  11091952090J0084720000090J0084720000090J0084720000090J009275520000034691520005101981                            
25150223742019000379620389001253BAHOULI                  FADILA                   23081962090J0011020575090J0011020575090J0011020575090J001102057500004408230020112016                            
25150223742019000380650393016342BAHRI                    LAID                     11051965090J0034403775090J0047821650090J0036297150090J004049715000015901972506042011                            
25150223742019000381650712001366BAHRI                    FATHIA                   16041965090J0062952000090J0062952000090J0062952000090J006295200000025180800001092013                            
25150223742019000382686364000147BAICHE                   NEDJMA                   21061968090J0012036075090J0012036075090J0012036075090J001203607500004814430028091987                            
25150223742019000383720856000257BAITSA                   YOUCEF                   10051972090J0018410400090J0019463400090J0019042200090J001904220000007595820031122008                            
25150223742019000384482432000166BAKA                     MEBAREK                  15041948090J0099281100090J0099281100090J0099281100090J009928110000039712440001021978                            
25150223742019000385690908003550BAKHOUCHE                FOUZIA                   20011969090J0007783433090J0007783433090J0007783433090J000778343300003113373206012001                            
25150223742019000386834858000442BAKHOUCHE                SARA                     24101983000J0000000000000J0000000000090J0014561982090J000922942500002379140730122010                            
25150223742019000387817153000153BAKIRI                   IMENE                    25121981090J0014586525090J0017666550090J0015297300090J001821915000006576952501122015                            
25150223742019000388875232000155BAKIRI                   ESMA                     14101987090J0023771250090J0058678250090J0035493750090J003549375000015343700002102017                            
25150223742019000389820287003446BAKKOUCHE                ASSAM                    09021982090J0017192700090J0017192700090J0017192700090J001719270000006877080031122009                            
25150223742019000390640652006647BAKOURA                  ATIKA                    26091964090J0029105775090J0027935325090J0029105775090J003088710000011703397502011989                            
25150223742019000391793140002156BALI                     RADIA                    28021979090J0011532900090J0014473200090J0012022950090J001620840000005423745001122014                            
25150223742019000392712680000256BALOUTH                  NOURREDDINE              18111971090J0011102442090J0011102442090J0011102442090J001110244200004440976809081994                            
25150223742019000393710519003062BAOUADI                  MOHAMED                  04081971000J0000000000000J0000000000000J0000000000090J000144000000000144000001122018                            
25150223742019000394500242004069BAOUNI                   MOHAMMED                 26111950000J0000000000090J0005088000000J0000000000090J000307200000000816000001032018                            
25150223742019000395780058011452BAOUNI                   EL AICHA                 24011978000J0000000000090J0009000000000J0000000000090J000475200000001375200001032018                            
25150223742019000396540015014267BARAMA                   SALAH DINE               02011954090J0091113600090J0091113600090J0091113600090J009149760000036483840008091980                            
25150223742019000397765353000746BARECHE                  MOHAMED                  25041976090J0010907187090J0010907187090J0010907187090J001090718700004362874801102002                            
25150223742019000398884521000255BARECHE                  AMINA                    04101988090J0008771175090J0010018575090J0009083025090J000908302500003695580030122010                            
25150223742019000399874455001344BARECHE                  AMINA                    29091987090J0008125200090J0012981150090J0008771175090J000877117500003864870022062015                            
25150223742019000400534974000150BARECHE                  MHAMMED                  18121953090J0053111250090J0032478000000J0000000000000J000000000000008558925029051985                            
25150223742019000401710522002663BARKA                    ABDELMALEK               27091971090J0011987925090J0013324425090J0012388875090J001238887500005009010016021991                            
25150223742019000402649634000148BARKAT                   MALIKA                   27091964090J0089553000090J0089553000090J0089553000090J010431300000037297200015011997                            
25150223742019000403742034001164BARKAT                   OUARDA                   14021974090J0068736000090J0068736000090J0072336000090J009456160000030436960003092005                            
25150223742019000404670276006046BARKI                    HOCINE                   10031967090J0011048955090J0012400305090J0011360805090J001136080500004617087001121991                            
25150223742019000405720216001962BARKI                    AZZOU                    17021972090J0008089596090J0008089596090J0008089596090J000808959600003235838431122009                            
25150223742019000406828621000450BARKI                    SAMY                     22061982090J0007014480090J0007097640090J0007076850090J000707685000002826582023022014                            
25150223742019000407552183000555BARNOU                   ALI                      30061955090J0051394200090J0058594200090J0051394200090J005758170000021896430013111983                            
25150223742019000408860140011956BAROUR                   SABIHA                   07091986000J0000000000000J0000000000000J0000000000090J000432000000000432000001122018                            
25150223742019000409660240005952BAROURA                  LAZHAR                   19011966090J0036297150090J0039321150090J0036297150090J008616028000019807573002102016                            
25150223742019000410590013022366BAROURI                  TAOUES                   00001959090J0091065000090J0091065000090J0091065000090J010582500000037902000001091988                            
25150223742019000411876131000155BATAICHE                 INSAF                    28041987090J0037688850090J0037688850090J0037688850090J003131145000014437800001102014                            
25150223742019000412644559000546BATOUCHE                 MOHAMED                  18041964000J0000000000000J0000000000090J0000384000000J000000000000000038400001092018                            
25150223742019000413894267000243BATTAZ                   ABDELBAKI                28101989000J0000000000090J0000990000000J0000000000090J000078000000000177000001032018                            
25150223742019000414737989000133BAZINE                   ABDELHAKIM               04071973090J0012243750090J0014653500090J0012645375090J001264537500005218800008011995                            
25150223742019000415914417001849BAZINE                   KHADIDJA                 10101991000J0000000000090J0000360000090J0002520000090J000249000000000537000001032018                            
25150223742019000416659592000138BAZRI                    KAMEL EDDINE             30091965090J0070444500090J0070444500090J0070444500090J008340450000029473800007112001                            
25150223742019000417761477001347BECHAR                   SAIDA                    14041976090J0032535375090J0032535375090J0032535375090J003044557500012805170023092012                            
25150223742019000418331046000371BECHIRI                  ABDELAZIZ                26041933000J0000000000090J0003384000000J0000000000090J000216000000000554400001032018                            
25150223742019000419703229000262BECHIRI                  SORAYA                   22031970000J0000000000000J0000000000090J0003600000090J000306000000000666000001092018                            
25150223742019000420650875001449BECHKER                  FATIHA                   11111965090J0024610950090J0024610950090J0024610950090J002461095000009844380028031987                            
25150223742019000421806528000450BECHKRI                  SAKINA                   13051980000J0000000000000J0000000000000J0000000000090J001152000000001152000003122005                            
25150223742019000422711815001065BECHLEM                  ABDELHAMID               10021971090J0012645375090J0012645375090J0012645375090J001264537500005058150008011995                            
25150223742019000423620028009154BECHLEM                  AZZOUZ                   22121962090J0019535625090J0019535625090J0019535625090J001953562500007814250002111993                            
25150223742019000424500659001755BECHOUA                  ALLAOUA                  00001950090J0045739050090J0045739050090J0045739050090J004573905000018295620002111982                            
25150223742019000425726231000161BECILA                   KHALED                   14061972090J0012645375090J0012645375090J0012645375090J001264537500005058150003111993                            
25150223742019000426647952000147BECILA                   ATIFA                    03081964090J0018547500090J0018547500090J0018547500090J001854750000007419000005091987                            
25150223742019000427822969000839BEDJGHIT                 AMEL                     24021982090J0014495400090J0014495400090J0014495400090J001449540000005798160020112016                            
25150223742019000428721602001962BEDROUNE                 AMEL                     11021972090J0008437050090J0008437050090J0008437050090J000843705000003374820022062015                            
25150223742019000429739711000252BEDROUNE                 ABDELKADER               17081973090J0032535375090J0039285375090J0032535375090J005300850000015736462516102011                            
25150223742019000430770785003935BEGGOUG                  AHCEN                    20061977090J0014149200090J0014149200090J0014149200090J001414920000005659680031122009                            
25150223742019000431781867000741BEGHDAD                  FETH EZEHAR              25071978090J0009582225090J0009582225090J0009582225090J000958222500003832890020112016                            
25150223742019000432562113000172BEGHIDJA                 NOURREDDINE              20121956090J0020022375090J0020022375090J0020022375090J002002237500008008950008111983                            
25150223742019000433627022000164BEGHIDJA                 AMAR                     13091962090J0011155926090J0011155926090J0011155926090J001115592600004462370404121995                            
25150223742019000434855112000261BEGHIDJA                 HAMZA                    27091985090J0007712880090J0007712880090J0007712880090J000771288000003085152015122013                            
25150223742019000435864231001256BEGHIDJA                 IMENE                    03101986090J0009229425090J0009229425090J0009229425090J000922942500003691770030122010                            
25150223742019000436570654002256BEGHIDJA                 ABDELHADI                00001957090J0083726400090J0083726400090J0083726400090J008798880000033916800017011984                            
25150223742019000437722221001664BEGHIDJA                 ADEL                     24021972090J0069926700090J0074189100090J0073123500090J008788350000030512280006092006                            
25150223742019000438590371002949BEGHOUL                  YOUCEF                   00001959090J0093384300090J0093384300090J0093384300090J010490430000038505720002101984                            
25150223742019000439809331000154BEGHOUL                  SABER                    15071980090J0049992000090J0049992000090J0049992000090J004999200000019996800031122008                            
25150223742019000440768176000438BEGHRICHE                NAOUAL                   06071976090J0009596400090J0009596400090J0009596400090J000959640000003838560020112016                            
25150223742019000441806427000749BEGHRICHE                ABDELFATEH               20121980090J0032535375090J0049605375090J0032535375090J005684529500017152142023092012                            
25150223742019000442680282018834BEHLOUL                  CHERIF                   15051968090J0065539200090J0068736000090J0070752000090J006979200000027481920011092006                            
25150223742019000443543425000561BEKHOUCHE                FARIDA                   18091954090J0084720000090J0087916800090J0087916800090J010087680000036143040001101980                            
25150223742019000444662970000648BEKKAI                   SOUHEILA                 07031966090J0023532300090J0023532300090J0023532300090J002374290000009433980007051991                            
25150223742019000445667763000144BEKKAR                   RIAD                     26071966090J0011155926090J0011155926090J0011155926090J001115592600004462370429122001                            
25150223742019000446824752000450BEKKOUCHE                HANANE                   28101982000J0000000000000J0000000000090J0002376000090J000280800000000518400001092018                            
25150223742019000447714593000248BEKKOUCHE                FATIMA                   21041971090J0014428650090J0016923450090J0014896425090J001489642500006114495015091991                            
25150223742019000448750381013647BEKKOUCHE                ABDELGHANI               06041975090J0008089596090J0008089596090J0008089596090J000808959600003235838431122009                            
25150223742019000449779895000128BEKKOUCHE                LINDA                    09081977090J0017192700090J0017192700090J0017192700090J001719270000006877080029122011                            
25150223742019000450795683000734BEKKOUCHE                FERIAL                   17041979090J0008125200090J0008125200090J0008125200090J000812520000003250080020112016                            
25150223742019000451712122001467BEKKOUCHE                SALIM                    07111971000J0000000000000J0000000000000J0000000000090J000042000000000042000001122018                            
25150223742019000452850582005936BEKKOUCHE                HASSIBA                  08071985000J0000000000090J0005832000000J0000000000090J000280800000000864000001032018                            
25150223742019000453870988008324BELAABED                 SOMIA                    19071987090J0023771250090J0023771250090J0023771250090J002377125000009508500009092018                            
25150223742019000454660133030860BELABED                  TOUFIK                   16021966090J0030642000090J0036322125090J0032535375090J004225537500014175487508102012                            
25150223742019000455735146001055BELABED                  SAMI                     21021973090J0052584000090J0066408000090J0055176000090J009290267000026707067003092005                            
25150223742019000456620080023655BELACHIA                 MOULOUD                  08031962000J0000000000000J0000000000090J0000384000000J000000000000000038400001092018                            
25150223742019000457450288001553BELADIS                  KACEM                    29051945090J0039778875090J0048379275090J0041391450090J004139145000017094105015021981                            
25150223742019000458530884001452BELAGHOUEG               ZOUBIDA                  14051953090J0087916800090J0087916800090J0087916800090J009537600000035912640018111984                            
25150223742019000459857288000137BELAHMADI                ESMA                     13111985000J0000000000000J0000000000090J0005544000090J003752700000004307100001092019                            
25150223742019000460852031000364BELAHOUANE               HOCINE                   21061985090J0030642000090J0030642000090J0030642000090J004036200000013228800001102014                            
25150223742019000461598051000152BELAHRACHE               DJALAL                   13121959090J0051394200090J0051394200090J0051394200090J005139420000020557680011101987                            
25150223742019000462665634000154BELAIB                   AMEL                     19051966090J0011609250090J0013250175090J0011987925090J001198792500004883527501121996                            
25150223742019000463845821000650BELAID                   SOUMIA                   31101984090J0015540300090J0017298000090J0016293600090J002185260000007098450001122015                            
25150223742019000464761440001954BELAID                   DALILA                   19111976090J0034403775090J0034403775090J0034403775090J006042491000016363623502032014                            
25150223742019000465701101005467BELAIDI                  DALILA                   01121970090J0007263960090J0007263960090J0007263960090J000726396000002905584030122010                            
25150223742019000466703848000748BELAIDI                  SIHEM                    00001970090J0042107400090J0042107400090J0042107400090J006278257000018910477015112009                            
25150223742019000467912266001153BELAIDI                  ITIDEL                   01081991000J0000000000090J0001260000000J0000000000000J000000000000000126000020112016                            
25150223742019000468687549000241BELAISSAOUI              OUARDA                   03081968090J0043845675090J0043845675090J0043845675090J004384567500017538270001071999                            
25150223742019000469770686008133BELAKEHAL                SOLTANE                  11031977090J0039912300090J0050156100090J0042107400090J004210740000017428320025102010                            
25150223742019000470659891000136BELAKROUM                SAMIRA                   10101965090J0023326425090J0027134775090J0024142500090J002414250000009874620016101993                            
25150223742019000471768974000135BELAKROUM                DOUNIA                   26071976090J0048690000090J0050706000090J0048690000090J005137800000019946400002122006                            
25150223742019000472853825001845BELAKROUM                KHEIREDDINE              06091985090J0037688850090J0037688850090J0037688850090J003768885000015075540006102013                            
25150223742019000473813578002342BELAL                    NABILA                   02101981000J0000000000000J0000000000090J0000540000000J000000000000000054000001102018                            
25150223742019000474709611000256BELALA                   SOUAD                    21091970090J0012370200000J0000000000000J0000000000000J000000000000001237020001031989                            
25150223742019000475510156003659BELALA                   RAMDANE                  17081951090J0051394200090J0051394200090J0051394200090J005139420000020557680022091982                            
25150223742019000476754580000447BELALA                   ZOHEIR                   12041975090J0032535375090J0044991375090J0034403775090J003440377500014633430001102017                            
25150223742019000477880138002353BELALMI                  NORELHOUDA               21011988090J0028748625090J0028748625090J0028748625090J002874862500011499450001102015                            
25150223742019000478836235000154BELALOUI                 MOHAMED                  04051983090J0007596330090J0007596330090J0007596330090J000759633000003038532031122009                            
25150223742019000479584183000152BELALOUI                 KARIM                    05071958090J0051394200090J0051394200090J0051394200090J005139420000020557680005091988                            
25150223742019000480617769000143BELALOUI                 NADIR                    01111961090J0092304300090J0092304300090J0090841800090J010374240000037919280003091986                            
25150223742019000481870622001755BELAMRI                  MERIEM                   12011987090J0015046200090J0018557010090J0017046900090J001704690000006769701031122009                            
25150223742019000482810174019737BELAMRI                  ZEHIRA                   19011981090J0037688850090J0046753200090J0039912300090J004142430000016577865006102013                            
25150223742019000483881912004448BELAOUED                 MOHAMED                  04051988090J0035493750090J0035493750090J0035493750090J004521375000015169500002102016                            
25150223742019000484893922001051BELAOUIRA                RANDA                    27031989090J0023771250090J0023771250090J0023771250090J002377125000009508500014112018                            
25150223742019000485695242000452BELARIBI                 ABDELHAK OMAR            17051969090J0010446900090J0010446900090J0010446900090J001044690000004178760029122011                            
25150223742019000486756298000535BELATEL                  MIMI                     24051975090J0044302500090J0050887800090J0054561600090J004649760000019624950004102005                            
25150223742019000487832225000857BELATTAR                 SARA                     13071983090J0037688850090J0044359200090J0039912300090J003991230000016187265023092012                            
25150223742019000488710165013554BELAZIZIA                ABDENNACER               09041971000J0000000000000J0000000000000J0000000000090J001296000000001296000001122018                            
25150223742019000489807870000146BELBACHE                 HANENE                   14061980090J0032535375090J0032535375090J0032535375090J006827248000016587860504122011                            
25150223742019000490594624000157BELBACHIR                NADIA                    05071959090J0031131000090J0031131000090J0031131000090J003113100000012452400001071980                            
25150223742019000491787222000253BELBAZ                   ABDERRAZEK               10061978090J0004186500000J0000000000000J0000000000090J002754090000003172740031122009                            
25150223742019000492586548000246BELBEKRI                 MOHAMED NADIR            09111958090J0029560050090J0029560050090J0029560050090J002956005000011824020001121982                            
25150223742019000493876335000149BELBEKRI                 ADEL                     01051987090J0017800200090J0017800200090J0017800200090J001780020000007120080031122009                            
25150223742019000494523686000152BELBEKRI                 TOUFIK                   16111952090J0051394200090J0051394200090J0051394200090J005139420000020557680001091980                            
25150223742019000495740151025651BELDI                    RAZIKA                   28091974090J0044302500090J0044302500090J0044302500090J004430250000017721000001102015                            
25150223742019000496875505001054BELDI                    KARIMA                   15041987000J0000000000090J0004392000000J0000000000090J000237600000000676800001032018                            
25150223742019000497790852003347BELDJEDOUI               NASSIMA                  14011979090J0008891700090J0008891700090J0008891700090J000889170000003556680001032017                            
25150223742019000498890761009135BELDJEDOUI               BESMA                    23061989000J0000000000090J0003528000000J0000000000090J003407100000003759900001092019                            
25150223742019000499763741000156BELDJEZZAR               BORHANE                  29111976000J0000000000000J0000000000000J0000000000090J000366000000000366000001122018                            
25150223742019000500902642002750BELDJEZZAR               AMINA                    22021990000J0000000000000J0000000000000J0000000000090J000198000000000198000001122018                            
25150223742019000501523462000360BELDJOUDI                FELLA SAMIA              27101952090J0025075440090J0025075440090J0025075440090J002507544000010030176015101977                            
25150223742019000502890976001934BELEBCHOUCHE             CHERIF                   08061989090J0035493750090J0042079050090J0043736850090J006711467000018842432001102015                            
25150223742019000503803505002261BELEULMI                 HICHEM                   11101980090J0007076850090J0007160010090J0007139220090J000713922000002851530017032013                            
25150223742019000504715764000249BELEULMI                 SALIMA                   30031971090J0048690000090J0048690000090J0048690000090J004869000000019476000001102012                            
25150223742019000505800547003453BELEULMI                 SALIHA                   09011980090J0044302500090J0044302500090J0044302500090J004430250000017721000002122006                            
25150223742019000506891959002634BELEULMI                 AMANI                    10021989000J0000000000090J0002664000000J0000000000090J000100800000000367200001032018                            
25150223742019000507554043000263BELFAITAH                ALI                      15101955090J0091113600090J0091113600090J0091113600090J010587360000037921440015011981                            
25150223742019000508849387000233BELFRIEKH                SAMIRA                   26061984090J0012022950090J0013559925090J0012535275090J001253527500005065342501042010                            
25150223742019000509878326000146BELFRIEKH                MOHAMED HAMZA            19121987090J0009083025090J0009083025090J0009083025090J000908302500003633210022062015                            
25150223742019000510660764001947BELGHIT                  KOUIDER                  12111966090J0020035800090J0021931200090J0020667600090J002066760000008330220002041988                            
