25150223742020000001922057004644ABABSA                   KENZA                    06101992003M0006729360003M0006444240003M0007014480003M000701448000002720256001122015                            
25150223742020000002850462004943ABACHE                   IMANE                    16031985003M0009229425003M0009229425003M0009229425003M001056592500003825420030122010                            
25150223742020000003573436000159ABADA                    ABDELFATEH               14061957003M0051458340003M0051458340003M0051458340003M006029408000021466910010101990                            
25150223742020000004785289001236ABADA                    ASMA                     24041978003M0014105250003M0015665850003M0015665850003M001332495000005876190003122017                            
25150223742020000005750227017844ABADLI                   SALAH                    17031975003M0055176000003M0055176000003M0055176000003M005517600000022070400015122017                            
25150223742020000006782959000837ABADLI                   NOUR EL HOUDA            16101978003M0014811300003M0014811300003M0014811300003M002484666000006928056001122015                            
25150223742020000007943714002549ABASSI                   TALAL                    21031994000J0000000000000J0000000000003J0001080000000J000000000000000108000001092020                            
25150223742020000008641158002553ABBADI                   NORA                     14111964003M0007884780003M0007884780003M0007393315003M000788478000003104765516102000                            
25150223742020000009830627003453ABBAS                    FOUZIA                   10081983003M0029418750003M0035493750003M0035493750003M005814945000015855570002102016                            
25150223742020000010871680006040ABBAS                    KARIMA                   23071987003M0023771250003M0023771250003M0023771250003M002377125000009508500001092019                            
25150223742020000011615758000150ABBAS                    ABLA                     31071961003M0029701125003M0029701125003M0029701125003M002970112500011880450010091985                            
25150223742020000012778738000338ABBAS                    MOHAMED REDHA            29061977003M0011818500003M0011818500003M0011818500003M001380300000004925850013122003                            
25150223742020000013780570011154ABBAZ                    SAMIRA                   01101978003M0017192700003M0017192700003M0017192700003M001719270000006877080029122011                            
25150223742020000014934437001843ABDEDAIM                 HADJER                   03041993000J0000000000000J0000000000000J0000000000003J000120000000000120000001122020                            
25150223742020000015689415000149ABDEDAIM                 MOSTEFA                  09101968003M0011696409003M0011696409003M0011696409003M001358978400004867901117122005                            
25150223742020000016884881001337ABDELALI                 MOHAMED LAMINE           10111988000J0000000000000J0000000000003J0001800000003J000376800000000556800020122012                            
25150223742020000017640875003644ABDELALI                 FERHAT                   05111964003M0008282400003M0008282400003M0008282400003M000828240000003312960003112007                            
25150223742020000018791699002136ABDELAOUI                HOUDA                    25031979003M0028813200003M0028813200003M0028813200003M002881320000011525280030122010                            
25150223742020000019802403000765ABDELAZIZ                OUIDED                   15021980003M0048690000003M0048690000003M0048690000003M005706405000020313405001102007                            
25150223742020000020769698000128ABDELDJELIL              MOHAMED CHERIF           16081976003M0052584000003M0052584000003M0052584000003M005258400000021033600003122005                            
25150223742020000021530067008744ABDELLI                  MOULOUD                  12111953003M0096084300003M0096084300003M0096084300003M010247790000039073080010091985                            
25150223742020000022821232007946ABDELLI                  SIHEM                    12031982003M0042107400003M0042107400003M0042107400003M004210740000016842960029112009                            
25150223742020000023677149000147ABDELLI                  DJAAFAR                  16071967003M0034618500003M0034618500003M0034618500003M003745350000014130900001091991                            
25150223742020000024610823001762ABDELLI                  DALILA                   27011961003M0011323275003M0011323275003M0011323275003M001132327500004529310021091997                            
25150223742020000025640967003544ABDELLI                  REZKI                    08111964003M0008157660003M0008157660003M0008157660003M000815766000003263064008012001                            
25150223742020000026630419014159ABDELLI                  MOURAD                   23101963003M0007783440003M0007783440003M0007783440003M000778344000003113376016052007                            
25150223742020000027800728011457ABDELLOUCHE              NASSIMA                  11011980003M0010428675003M0010428675003M0010428675003M001212157500004340760029122011                            
25150223742020000028908834000344ABDELMOUMEN              RIMA                     30061990003M0015200100003M0015200100003M0014380650003M001888560000006366645010022014                            
25150223742020000029571011001273ABDELMOUMENE             ABLA                     16121957003M0091113600003M0091113600003M0098457600003M010707360000038775840015121985                            
25150223742020000030931015009447ABDELMOUMENE             MOHAMED ADIB             09051993000J0000000000000J0000000000003J0001350000000J000000000000000135000001092020                            
25150223742020000031720236000267ABDELOUAHAB              MOHAMAD SALAH            00001972000J0000000000000J0000000000000J0000000000003J001079800000001079800001122020                            
25150223742020000032878476000432ABDEMEZIANE              NADIA                    22121987003M0009582225003M0009582225003M0009582225003M000958222500003832890001032017                            
25150223742020000033791077001150ABDENNOUR                SIHEM                    20041979003M0034403775003M0034403775003M0034403775003M004197727500014518860030122007                            
25150223742020000034851753000650ABDENNOUR                SARA                     27011985000J0000000000000J0000000000000J0000000000003J001152000000001152000001122020                            
25150223742020000035874350001251ABDENNOUR                IMENE                    27091987003M0008437050003M0008437050003M0008437050003M000843705000003374820031122014                            
25150223742020000036495517000157ABDERRAHIM               FARIDA                   24101949003M0091113600003M0091113600003M0091113600003M009111360000036445440001101973                            
25150223742020000037654239000156ABDERRAHIM               SIHAM                    06041965003M0012726600003M0012726600003M0012726600003M001272660000005090640011011987                            
25150223742020000038846455000246ABDERREZAK               MOHAMED ZAKI             12111984000J0000000000000J0000000000003J0002376000000J000000000000000237600001092020                            
25150223742020000039904955001344ABDERREZAK               MERIEM KHAIZOUR          24101990003M0035493750003M0035493750003M0035493750003M003549375000014197500010122017                            
25150223742020000040604764000155ABDESSEMED               ALI                      26061960003M0068136000003M0068136000003M0068136000003M009060000000029500800022111988                            
25150223742020000041826062000154ABDESSEMED               ALA                      26041982000J0000000000000J0000000000000J0000000000003J000025200000000025200001122020                            
25150223742020000042550017008653ABDOU                    KAMEL                    17021955003M0081487500003M0081487500003M0081487500003M008148750000032595000025021984                            
25150223742020000043752780001150ABED                     MOUNIRA                  27021975000J0000000000000J0000000000003J0001008000000J000000000000000100800001092020                            
25150223742020000044791990001441ABED                     KHOUDIR                  06021979003M0057484500003M0057484500003M0067564500003M006984450000025237800015112009                            
25150223742020000045836192000146ABED                     NOUSSEIBA                03051983003M0039912300003M0039912300003M0039912300003M007202621300019176311323092012                            
25150223742020000046691792000742ABER                     ZOUBIR                   11021969003M0010875288003M0010875288003M0010875288003M001087528800004350115203111997                            
25150223742020000047744082001251ABER                     OUARDA                   06041974003M0007076850003M0007076850003M0007076850003M000707685000002830740031122014                            
25150223742020000048735626000254ABEUR                    REDHA                    06051973003M0011323275003M0011323275003M0011323275003M001132327500004529310015091998                            
25150223742020000049511658000755ABID                     ALI                      22111951003M0047632440003M0047632440003M0047632440003M005735244000020024976016101982                            
25150223742020000050813047003352ABID                     RIME                     11081981003M0052584000003M0052584000003M0052584000003M006230400000022005600001102009                            
25150223742020000051870211029447ABID                     ABDELMOUMEN              17121987003M0023771250003M0023771250003M0023771250003M008329550000015460925023092018                            
25150223742020000052870216023553ABID                     AICHA                    30111987003M0035493750003M0035493750003M0035493750003M004427415000015075540009102017                            
25150223742020000053866467000240ABIDAT                   ROUKIA                   09051986000J0000000000000J0000000000003J0007344000000J000000000000000734400001092020                            
25150223742020000054740092022253ABOUD                    HEMAAMA                  28011974003M0030642000003M0030642000003M0030642000003M003064200000012256800002032014                            
25150223742020000055687354000345ABRIT                    RIAD                     27071968003M0015665850003M0015665850003M0015665850003M002050087500006749842520112016                            
25150223742020000056458222000161ABUSARI                  NAWAF                    01091945003M0076728000003M0084720000003M0084720000003M005861120000030477920011021989                            
25150223742020000057821747001055ACHILI                   HOUDA                    27121982003M0033585000003M0034403775003M0034403775003M003440377500013679632518102008                            
25150223742020000058833507000458ACHOU                    LYDIA                    30091983003M0028748625003M0028748625003M0028748625003M004957575000013582162512102015                            
25150223742020000059553067001156ACHOUR                   ALI                      25071955003M0070728000003M0070728000003M0070728000003M007072800000028291200003091987                            
25150223742020000060820767001746ACHOURI                  AMEL                     30111982003M0023771250003M0023771250003M0023771250003M009397600000016528975001072018                            
25150223742020000061840745000653ADACI                    SANA                     15061984003M0034403775003M0035078775003M0034403775003M003440377500013829010015112009                            
25150223742020000062890062034940ADI                      FATEN                    13091989003M0023771250003M0023771250003M0023771250003M006675375000013806750031102018                            
25150223742020000063804956000347ADJABI                   MESSAOUD                 16111980003M0011067141003M0011067141003M0011067141003M001106714100004426856417122005                            
25150223742020000064811227010066ADJAILIA                 MOHAMED SEDDIK           23011981003M0023771250003M0023771250003M0023771250003M002581750500009713125526112017                            
25150223742020000065780952004840ADJEROUD                 MOUSSA                   09061978003M0015673500003M0015673500003M0015673500003M013742800000018444850012102015                            
25150223742020000066830038014354ADJEROUD                 MOUSTAFA                 02011983003M0016718850003M0016718850003M0016718850003M001671885000006687540031122009                            
25150223742020000067755195000541ADJISSI                  NOUZHA                   20121975003M0018719550003M0018719550003M0018719550003M001871955000007487820029122011                            
25150223742020000068791303002460ADLANI                   AMEL                     12081979003M0036297150003M0036297150003M0036297150003M003629715000014518860002122006                            
25150223742020000069741231001365ADOUI                    FAIZA                    28011974003M0044302500003M0044302500003M0044302500003M010682508700023973258701102007                            
25150223742020000070844453000450ADOUI                    FARIDA                   21031984000J0000000000000J0000000000003J0002655000003J000173250000000438750001092020                            
25150223742020000071660270009839AFFOUN                   SAMIA                    02111966000J0000000000000J0000000000000J0000000000003J001152000000001152000001122020                            
25150223742020000072873767000341AFOUTNI                  LARBI                    16091987003M0028748625003M0028748625003M0028748625003M004074000000012698587514122015                            
25150223742020000073530008014366AFRI                     FATIMA ZOHRA             10011953003M0087916800003M0087916800003M0087916800003M010574880000036949920017091978                            
25150223742020000074788503000152AGABOU                   AMIR                     08071978003M0062342400003M0062342400003M0062342400003M007512960000026215680031122008                            
25150223742020000075720262019345AGGOUN                   MOUFIDA                  07101972003M0052584000003M0052584000003M0052584000003M006381600000022156800003122005                            
25150223742020000076759699000128AGGOUN                   CHERIFA                  14081975003M0046497600003M0046497600003M0046497600003M006280290000020229570015092003                            
25150223742020000077760399002837AGGOUN                   NACIRA                   09021976003M0038190540003M0038190540003M0038190540003M003819054000015276216003102004                            
25150223742020000078683025000163AGGOUN                   SONIA                    11031968003M0014215425003M0014215425003M0014215425003M001421542500005686170022041989                            
25150223742020000079711713001563AGGOUN                   GHANIA                   09021971003M0013391250003M0013391250003M0013391250003M001339125000005356500015061997                            
25150223742020000080770376003148AGGOUN                   YAZID                    24031977003M0017956125003M0017956125003M0017956125003M001795612500007182450031122009                            
25150223742020000081807910000256AGGOUN                   NABILA                   14061980003M0010009500003M0010009500003M0010009500003M001248810000004251660010022014                            
25150223742020000082784491000739AGGOUN                   YOUCEF                   05041978003M0009671325003M0009671325003M0009671325003M001244827500004146225025062015                            
25150223742020000083560297007141AGGOUNE                  MOHSEN                   07101956003M0091113600003M0091113600003M0091113600003M009111360000036445440026031988                            
25150223742020000084790173012053AGGOUNE                  FATEH                    18011979000J0000000000000J0000000000003J0002592000000J000000000000000259200001092020                            
25150223742020000085710286006840AGGOUNE                  ABDEREZAK                17031971003M0008137140003M0008137140003M0008137140003M000813714000003254856025101997                            
25150223742020000086787671000339AGUIB                    SIHEM                    20061978003M0049992000003M0049992000003M0049992000003M008461200000023458800031122008                            
25150223742020000087831887001144AGUIS                    MOHAMED                  27081983003M0030642000003M0030642000003M0030642000003M003064200000012256800001102015                            
25150223742020000088790102010072AHMED ABDELMALEK         HABIBA                   04031979003M0011532900003M0011532900003M0011532900003M001512660000004972530023022014                            
25150223742020000089902805001755AHMED CHAOUCH            MEROUA                   06121990003M0023771250003M0023771250003M0023771250003M002377125000009508500029102019                            
25150223742020000090934530001057AIACHI                   HIBA                     26101993000J0000000000000J0000000000003J0000990000003J000033000000000132000001092020                            
25150223742020000091742515001558AIB                      ABDELATIF                26021974003M0044302500003M0044302500003M0044302500003M004430250000017721000002032014                            
25150223742020000092796930000346AICHAOUI                 HOUDA                    13051979003M0038190540003M0038190540003M0038190540003M003819054000015276216012122004                            
25150223742020000093780029019441AICHAOUI                 SAMI                     01011978003M0008344770003M0008344770003M0008344770003M000834477000003337908003112004                            
25150223742020000094890632003351AICHE                    MOHAMED EL HADI          13011989000J0000000000003J0003456000000J0000000000000J000000000000000345600001032020                            
25150223742020000095761863001052AIDOUCI                  HAFSA                    13101976003M0016008075003M0016008075003M0016008075003M001600807500006403230001122015                            
25150223742020000096776418000448AIEB                     NABIL                    00001977003M0009562204003M0009562204003M0009562204003M000956220400003824881620122003                            
25150223742020000097627131000162AIECHE                   MALIKA                   18091962003M0008079667003M0008079667003M0008079667003M000807966700003231866805091995                            
25150223742020000098800010029457AIED                     MOHAMED                  03011980003M0010009500003M0010009500003M0010009500003M001248810000004251660010022014                            
25150223742020000099762454000156AIHAR                    NOUDJOUD                 16021976003M0014049975003M0014049975003M0014049975003M001404997500005619990001102002                            
25150223742020000100653384000350AIMAR                    BELKACEM                 16031965003M0011679675003M0011679675003M0011679675003M001417447500004921350015021997                            
25150223742020000101620060017850AIMAT                    MOSTEFA                  08101962003M0012767550003M0012767550003M0012767550003M001466092500005296357517031990                            
25150223742020000102860235006052AIMENE                   WISSAME                  01101986000J0000000000000J0000000000000J0000000000003J000345600000000345600001122020                            
25150223742020000103677521000155AIMENE                   NADJET                   10111967003M0016008075003M0016008075003M0016008075003M002114145000006916567531122012                            
25150223742020000104570123009650AIMEUR                   RACHIDA                  06081957003M0081523200003M0081523200003M0081523200003M009999360000034456320024021986                            
25150223742020000105690516008643AIMEUR                   FAYCAL                   11011969003M0038190540003M0038190540003M0038190540003M003819054000015276216012122004                            
25150223742020000106798090000240AIMOUR                   OIRDA                    03061979003M0011176500003M0011176500003M0011176500003M001117650000004470600001122014                            
25150223742020000107797347000143AIOUNE                   HANANE                   26121979003M0016008075003M0016008075003M0016008075003M001600807500006403230010122013                            
25150223742020000108674297000342AISSA                    KARIM                    14061967003M0012645375003M0012645375003M0012645375003M001264537500005058150008011995                            
25150223742020000109660156006547AISSANI                  RADOUANE                 07101966003M0048721050003M0048721050003M0048721050003M004872105000019488420001102007                            
25150223742020000110781196002244AISSANI                  OUAFA                    19051978003M0034403775003M0034403775003M0034403775003M005295952500015617085015112009                            
25150223742020000111930818011750AISSANI                  HALLA                    17011993000J0000000000000J0000000000003J0001080000000J000000000000000108000001092020                            
25150223742020000112661554000456AISSAOUI                 CHAFIKA                  15111966003M0050916150003M0050916150003M0050916150003M005091615000020366460003092005                            
25150223742020000113685865000242AISSAOUI                 HABIB                    04061968003M0083793900003M0083793900003M0083793900003M009855390000034993560021102000                            
25150223742020000114767352000248AISSAOUI                 AMEL                     13061976003M0046497600003M0046497600003M0046497600003M004649760000018599040014122004                            
25150223742020000115640369006245AISSAOUI                 BACHAGHA                 04061964003M0010875288003M0010875288003M0010875288003M001087528800004350115230111998                            
25150223742020000116787424000150AISSAOUI                 MANEL                    12061978003M0017192700003M0017192700003M0017192700003M001719270000006877080001122014                            
25150223742020000117710334006752AISSAOUI ZITOUN          OUARDA                   01041971003M0057768000003M0057768000003M0057768000003M009282000000026612400012122004                            
25150223742020000118901431003062AISSOUS                  IMANE                    05121990000J0000000000000J0000000000000J0000000000003J000216000000000216000001122020                            
25150223742020000119903812001259AISSOUS                  MERIEM                   04101990000J0000000000000J0000000000003J0004275000000J000000000000000427500001092020                            
25150223742020000120608371000152AIT ABDELOUAHAB          DJAOUZA                  06121960003M0047632440003M0047632440003M0047632440003M005884284000020174016027101984                            
25150223742020000121863861001741AIT ABDESSELAM           ADEL                     26091986003M0009582225003M0009582225003M0009582225003M000958222500003832890020112016                            
25150223742020000122783486000936AIT KAKI                 AMEL                     14031978003M0046497600003M0046497600003M0046497600003M004649760000018599040001092004                            
25150223742020000123917875000237AIT KAKI                 LAMIA GHANIMA            25121991000J0000000000000J0000000000003J0001170000003J000042000000000159000001092020                            
25150223742020000124623720000266AIT MOUSSA               KARIM                    29041962003M0087916800003M0087916800003M0087916800003M010045440000036420480003091986                            
25150223742020000125614958000348AIT OUMEZIANE            RABAH YATI               21061961003M0024984900003M0024984900003M0024984900003M003042540000010538010016101993                            
25150223742020000126730249013254AKAAB                    FRIHA                    07031973003M0011679675003M0011679675003M0011679675003M001369927500004873830022011994                            
25150223742020000127830471002552AKEL                     FATIMA ZOHRA             19031983003M0030642000003M0028647600003M0030642000003M003064200000012057360001102015                            
25150223742020000128841314007450AKIL                     FATMA                    27051984003M0011040750003M0013158900003M0013158900003M001315890000005051745001112018                            
25150223742020000129620163010464AKKAL                    SALAH                    19041962003M0094599300003M0094599300003M0094599300003M010267680000038647470001101989                            
25150223742020000130927595000334AKKOUCHE                 ISMAIL                   28051992000J0000000000000J0000000000003J0000900000003J000060000000000150000001092020                            
25150223742020000131690959000743AKKOUCHE                 SALIMA                   04111969003M0012036075003M0012036075003M0012036075003M001203607500004814430025091991                            
25150223742020000132660166005052AKKOUCHI                 KAMEL                    21031966003M0034403775003M0034403775003M0034403775003M003440377500013761510024112010                            
25150223742020000133851156007144AKLIL                    BADIAA                   12041985003M0039912300003M0039912300003M0039912300003M005088780000017062470001102013                            
25150223742020000134750069014347AKNI                     AHCENE                   02011975003M0046494900003M0046494900003M0046494900003M004210740000018159210002032014                            
25150223742020000135694858000242AKNI                     HOCINE                   08051969003M0012243750003M0012243750003M0012243750003M001224375000004897500011111995                            
25150223742020000136700749002354AKNI                     RIAD                     22101970003M0008157660003M0008157660003M0008157660003M000815766000003263064006092001                            
25150223742020000137701937001653AKNI                     NADJIB                   19021970003M0019246050003M0019246050003M0019246050003M002631870000008405685031122009                            
25150223742020000138670314011959ALALLOUCHE               NADJI                    27101967003M0012036075003M0012036075003M0012036075003M001203607500004814430015011991                            
25150223742020000139502159000659ALATOU                   DJAMEL                   06071950003M0096581100003M0096581100003M0096581100003M011134110000040108440023091979                            
25150223742020000140836131000258ALATOU                   RADIA                    02051983003M0049992000003M0049992000003M0049992000003M005049861300020047461328112010                            
25150223742020000141911453003154ALATOU                   HANA                     24091991000J0000000000000J0000000000000J0000000000003J000253800000000253800001122020                            
25150223742020000142584193000249ALI KHODJA               HOCINE                   07071958003M0091113600003M0091113600003M0091113600003M010587360000037921440016061984                            
25150223742020000143844711000754ALI SRIHEN               BILLEL                   07101984000J0000000000000J0000000000003J0005184000000J000000000000000518400001092020                            
25150223742020000144795515000351ALIOUCHE                 LAMIA                    15041979003M0042107400003M0042107400003M0042107400003M005161950000017794170003122009                            
25150223742020000145530028012564ALIOUECHE                AHMED                    14011953003M0051394200003M0051394200003M0051394200003M005139420000020557680018021984                            
25150223742020000146710868001450ALLA                     AMOR                     03101971003M0031786875003M0031786875003M0031786875003M004079092500013615155015112009                            
25150223742020000147560234003461ALLAG                    SAADOUN                  00001956003M0053351700003M0053351700003M0053351700003M005335170000021340680007091983                            
25150223742020000148760721004455ALLAG                    NADJIMA                  12111976003M0044302500003M0044302500003M0044302500003M005600970000018891720003092005                            
25150223742020000149736526000154ALLAL                    SAMIHA                   27051973003M0031786875003M0031786875003M0031786875003M007067906800016603969303092005                            
25150223742020000150781853000351ALLAL                    SABAH                    20091978003M0010428675003M0010428675003M0010428675003M001042867500004171470030122010                            
25150223742020000151880277003442ALLALI                   KHAIREDDINE              07101988003M0037688850003M0037688850003M0037688850003M003768885000015075540001102015                            
25150223742020000152871206000957ALLAM                    SIHEM                    11041987003M0008125200003M0008125200003M0008125200003M000812520000003250080020112016                            
25150223742020000153690157008440ALLAOUI                  KHAMSSA                  03011969003M0068736000003M0068736000003M0068736000003M006873600000027494400003122005                            
25150223742020000154782890000245ALLAOUI                  ASSIA                    11061978003M0039912300003M0039912300003M0039912300003M003991230000015964920031102012                            
25150223742020000155561514000466ALLIA                    NACEREDDINE              13101956003M0051394200003M0051394200003M0051394200003M005139420000020557680004031982                            
25150223742020000156740568006143ALLIOUCHE                HAYETTE                  19091974003M0046497600003M0046497600003M0046497600003M005801760000019751040001102011                            
25150223742020000157821213001862ALLIOUCHE                AHMED                    15081982000J0000000000003J0002970000000J0000000000003J000270000000000567000001032020                            
25150223742020000158760815008741ALLIOUCHE                SALIMA                   15011976003M0010009500003M0010009500003M0010009500003M001336290000004339140011022014                            
25150223742020000159720296004940ALLOUANI                 RAZIKA                   28061972003M0016336200003M0016336200003M0016336200003M001857180000006758040013071997                            
25150223742020000160772002000666ALLOUI                   ZOHRA                    21061977003M0008157624003M0008157624003M0008157624003M000815762400003263049610101993                            
25150223742020000161790216026844ALLOUI                   NASSIRA                  20051979003M0009270375003M0009270375003M0009270375003M000927037500003708150001122014                            
25150223742020000162730364002455ALLOUI                   OUAHIBA                  24091973003M0008437050003M0008437050003M0008437050003M000892499700003423614722062015                            
25150223742020000163859972000233ALMI                     HIBA                     27061985003M0037688850003M0037688850003M0037688850003M005621760000016928415014112016                            
25150223742020000164758914000247ALOUA                    SAMIR                    24071975003M0008157660003M0008157660003M0008157660003M000815766000003263064003022001                            
25150223742020000165884802000453ALOUACHE                 AMEL                     31031988003M0035493750003M0041709750003M0035493750003M003549375000014819100002102017                            
25150223742020000166930230021264ALOUACHE                 BOUTHEINA                31071993000J0000000000000J0000000000000J0000000000003J000420000000000420000001122020                            
25150223742020000167650113016162ALOUACHE                 LAKHDAR                  19101965003M0011307318003M0011307318003M0011307318003M001464856800004857052214071990                            
25150223742020000168635934000253ALOUACHE                 MIMIA                    27051963003M0007076850003M0007076850003M0007076850003M000707685000002830740001122014                            
25150223742020000169712048000559ALOUI                    KHEMISSA                 20091971003M0028748625003M0028748625003M0028748625003M003695325000012319912502102017                            
25150223742020000170691153001654ALOUI                    MAHFOUD                  05121969003M0013070625003M0013070625003M0013070625003M001561425000005482612507121994                            
25150223742020000171660002017361AMAMRA                   MOHAMED EL YAZI          01011966003M0016077000003M0016077000003M0016077000003M001793460000006616560027051991                            
25150223742020000172668921000249AMARA                    FAOUZI                   31081966003M0071932800003M0071932800003M0071932800003M007664640000029244480003122002                            
25150223742020000173826097000638AMARI                    KAMEL                    25041982003M0007139220003M0007139220003M0007139220003M000713922000002855688022122013                            
25150223742020000174580771000752AMEDDAH                  SOUAD                    10051958003M0091113600003M0091113600003M0091113600003M010587360000037921440029101983                            
25150223742020000175650286014940AMEDJOUDJ                NOUAR                    11111965003M0055176000003M0055176000003M0055176000003M006489600000023042400001102007                            
25150223742020000176850771014740AMEDJOUDJ                WISSAME                  07071985003M0006952110003M0006952110003M0006952110003M000695211000002780844020112016                            
25150223742020000177930432013257AMER YAHIA               THIZIRI                  22021993000J0000000000000J0000000000003J0003600000003J000225000000000585000001092020                            
25150223742020000178922869002735AMEUR                    IMENE                    03091992000J0000000000000J0000000000003J0001080000003J000120000000000228000001092020                            
25150223742020000179590266017144AMEUR                    CHERIF                   12051959000M0000000000000M0000000000000M0000000000003M00000891000000000891001110200001102019                    
25150223742020000180751054004353AMEUR                    LAZHAR                   24031975003M0008282400003M0008282400003M0008282400003M000828240000003312960017072004                            
25150223742020000181660489000844AMEZIANE                 FELLA                    08051966003M0028748625003M0028748625003M0028748625003M003695325000012319912520112016                            
25150223742020000182661758000549AMIAR                    FELLA                    20111966003M0012726600003M0012726600003M0012726600003M001272660000005090640019101985                            
25150223742020000183697471000144AMIAR                    MOHAMED                  22071969003M0012645375003M0012645375003M0012645375003M001548037500005341650003111993                            
25150223742020000184720938002848AMINE KHODJA             AMINA                    24101972003M0075129600003M0075129600003M0075129600003M008685120000031224000023011999                            
25150223742020000185774847000740AMINE KHODJA             MEDJDOUB                 02041977003M0038190540003M0038190540003M0045840540003M004238304000016460466012122004                            
25150223742020000186881149008435AMINE KHODJA             IMENE                    05081988003M0035493750003M0035493750003M0035493750003M005085945000015734070002102016                            
25150223742020000187762012002661AMIOUR                   LEILA                    04021976003M0042107400003M0042107400003M0044123400003M005335920000018169740015112009                            
25150223742020000188877383000238AMIOUR                   HANANE                   21051987000J0000000000000J0000000000000J0000000000003J000194400000000194400001122020                            
25150223742020000189918062000248AMIOUR                   MERIEM                   30121991003M0009582225003M0009582225003M0009582225003M000958222500003832890031122012                            
25150223742020000190780755007635AMIRA                    FATIMA ZOHRA             27081978003M0012022950003M0012022950003M0012022950003M001407225000005014110010022014                            
25150223742020000191623897000244AMIRAOUI                 MOHAMED                  07051962003M0015831975003M0015831975003M0015831975003M001583197500006332790001081982                            
25150223742020000192836727000644AMIRAOUI                 ATEF                     08121983003M0009023328003M0009023328003M0009023328003M000902332800003609331231122009                            
25150223742020000193793424002648AMIRAOUI                 YACINE                   05031979003M0006952110003M0006952110003M0006952110003M000695211000002780844020112016                            
25150223742020000194781413004058AMIRECH                  MANEL                    27011978003M0018963900003M0018963900003M0018963900003M002149110000007838280031122009                            
25150223742020000195604298000150AMIRECHE                 DJAMEL                   01061960003M0051394200003M0051394200003M0051394200003M005139420000020557680003041989                            
25150223742020000196744881000543AMIRECHE                 NADIR                    19121974003M0068736000003M0068736000003M0068736000003M007066560000027687360012122004                            
25150223742020000197733996000538AMIRECHE                 NEDJOUA                  24031973003M0018675000003M0018675000003M0019890000003M002232000000007956000002111996                            
25150223742020000198674310000562AMIRECHE                 BAYA                     16041967003M0010428675003M0010428675003M0010428675003M001454003800004582606329122011                            
25150223742020000199733419001356AMIRECHE                 AZEDDINE                 11031973003M0007014480003M0007014480003M0007014480003M000701448000002805792001122015                            
25150223742020000200934469000936AMIRECHE                 MOHAMED SAMI             25101993003M0006889740003M0006889740003M0002296580000M000000000000001607606003122017                            
25150223742020000201601149000661AMMARI                   MERZOUG                  00001960003M0061920000003M0061920000003M0072000000003M007164000000026748000015031986                            
25150223742020000202783466001542AMMARI                   ISSAM                    13031978000J0000000000000J0000000000000J0000000000003J000117000000000117000001122020                            
25150223742020000203900795011840AMMARI                   HALIMA                   04081990000J0000000000000J0000000000003J0000720000000J000000000000000072000001092020                            
25150223742020000204660502003266AMMARI                   NOUREDDINE               15051966003M0009562204003M0009562204003M0009562204003M000956220400003824881620122003                            
25150223742020000205772672002741AMMOUCHI                 HOUDA                    26091977003M0020743200003M0020743200003M0020743200003M002375640000008598600031122009                            
25150223742020000206652071000162AMOURA                   FAOUZI                   12021965000J0000000000000J0000000000000J0000000000003J000108000000000108000001122020                            
25150223742020000207740233002066AMOURACHE                SAMIA                    04011974003M0044302500003M0044302500003M0044302500003M005820480000019111230002122006                            
25150223742020000208700845006448AMOURI                   AMMAR                    29081970003M0042076350003M0042076350003M0042076350003M006746798600019369703602102016                            
25150223742020000209755344000352AMOURI                   CHAHINEZ                 30041975003M0042107400003M0042107400003M0042107400003M004210740000016842960025102010                            
25150223742020000210858522000546AMOURI                   FOUZIA                   10121985003M0008891700003M0008891700003M0008891700003M000889170000003556680001052019                            
25150223742020000211740690001055AMRANI                   MERZAKA                  30061974003M0044302500003M0044302500003M0044302500003M004430250000017721000002122006                            
25150223742020000212750515009248AMRANI                   AMEL                     21081975003M0055176000003M0055176000003M0055176000003M008557989300025110789315092003                            
25150223742020000213876494000434AMRANI                   IMENE                    10111987003M0009270375003M0009270375003M0009270375003M000927037500003708150025062015                            
25150223742020000214886691000830AMRAOUI                  MOUNIRA                  19111988000M0000000000000M0000000000000M0000000000003M002641250000002641250016092020                            
25150223742020000215651359000850AMRAOUI                  KAMEL                    26121965003M0009152898003M0009152898003M0009152898003M000915289800003661159224021996                            
25150223742020000216756105000359AMRI                     SIHAM                    20051975003M0030642000003M0030642000003M0030642000003M005046000000014238600001102015                            
25150223742020000217797681000237AMRI                     AICHA                    29051979003M0012022950003M0012022950003M0012022950003M001202295000004809180010122013                            
25150223742020000218777443000247ANAK                     BARKAHEM                 28051977000J0000000000000J0000000000000J0000000000003J001152000000001152000001122020                            
25150223742020000219670648006739ANAK                     OMAR                     02061967003M0014250861003M0014250861003M0014250861003M001873691100006148949404112006                            
25150223742020000220870577002145ANANA                    HAYET                    14031987000J0000000000000J0000000000003J0002592000003J000064800000000324000001092020                            
25150223742020000221670138007546ANNAB                    ACHOUR                   01011967003M0013406688003M0013406688003M0013406688003M001385218800005407225215091991                            
25150223742020000222859247000439ANNANI                   RIMA                     14061985003M0011020575003M0011020575003M0011020575003M001324065000004630237520112016                            
25150223742020000223747903000253ANTRI                    SABRINA                  12071974003M0011323275003M0011323275003M0011323275003M001132327500004529310014101997                            
25150223742020000224692750000750AOUABDIA                 NABILA                   11031969003M0055176000003M0055176000003M0065256000003M006470475000024031275012112003                            
25150223742020000225896629000340AOUACHERIA               MERIEM                   26051989003M0014811300003M0014811300003M0014811300003M001481130000005924520029122011                            
25150223742020000226790613003356AOUAD                    RAZIKA                   27081979003M0039912300003M0039912300003M0039912300003M005143230000017116920002032014                            
25150223742020000227521353000960AOUADJA                  MOHAMMED                 27031952003M0053351700003M0053351700003M0053351700003M005335170000021340680001091990                            
25150223742020000228596118000255AOUADJA                  FATIMA ZOHRA             22091959003M0052217600000M0000000000000M0000000000000M000000000000005221760011021989        596118000354
25150223742020000229790245013945AOUAIDJIA                NAOUEL                   23011979003M0042107400003M0042107400003M0042107400003M004210740000016842960025102010                            
25150223742020000230617971000147AOUATI                   MOHAMED KHELIL           08111961000J0000000000000J0000000000000J0000000000003J001152000000001152000001122020                            
25150223742020000231819631000249AOUATI                   REDA                     12071981003M0039912300003M0039912300003M0039912300003M005914440000017888130004122011                            
25150223742020000232885607000250AOUATI                   HOUSSEM EDDINE           16041988000J0000000000000J0000000000003J0001080000000J000000000000000108000001092020                            
25150223742020000233679917000143AOUATI                   AMAL                     16101967003M0012370200003M0012370200003M0012370200003M001379580000005090640019101985                            
25150223742020000234800674006740AOUATI                   CHEMSEDDINE              11011980003M0009582225003M0009582225003M0009582225003M001141620000004016287520112016                            
25150223742020000235671089001447AOUDA                    LAZHAR                   23061967003M0010495680003M0010495680003M0010495680003M001396579300004545283301121991                            
25150223742020000236783549000445AOUGUEB                  LEILA                    16031978003M0008437050003M0008437050003M0008437050003M001021905000003553020023022014                            
25150223742020000237794875000635AOUICHA                  LAMIA                    28101979003M0044302500003M0044302500003M0044302500003M004430250000017721000001102007                            
25150223742020000238770002044955AOUNALLAH                OUNIS                    01071977003M0009083025003M0009083025003M0009083025003M000999766800003724674329112011                            
25150223742020000239811398004637ARAAR                    CHAOUKI                  22041981003M0032535375003M0032535375003M0032535375003M003253537500013014150030112015                            
25150223742020000240760095004147ARAB                     LOUIZA                   09041976000J0000000000000J0000000000000J0000000000003J000042000000000042000001122020                            
25150223742020000241801461000955ARAB                     OUIDED                   27011980003M0034403775003M0037328775003M0034403775003M003440377500014054010015112009                            
25150223742020000242870931001454ARABET                   DALLEL                   14011987003M0049708500003M0049708500003M0049708500003M005748450000020661000001102014                            
25150223742020000243649157000443ARAFA                    NEDJOUA                  11091964003M0069931500003M0069931500003M0069931500003M008231550000029211000009011999                            
25150223742020000244520175003754ARAISSIA                 BELKACEM                 14111952003M0045739050003M0045739050003M0045739050003M004573905000018295620012111977                            
25150223742020000245690188002940ARAR                     NOURIA                   11031969003M0053111250003M0053111250003M0065963250003M009116215000026334790015111998                            
25150223742020000246750123025159ARAR                     KARIM                    06011975003M0023771250003M0023771250003M0023771250003M002506725000009638100001092019                            
25150223742020000247880180029929ARAR                     HEMZA                    17041988000J0000000000000J0000000000003J0003672000000J000000000000000367200001092020                            
25150223742020000248783487000836ARBOUZE                  FAYCAL                   15031978003M0007970550003M0007970550003M0007970550003M000797055000003188220020032004                            
25150223742020000249800911001465ARFA                     AZZEDINE MOHAME          17011980003M0048690000003M0048690000003M0048690000003M006021000000020628000015112009                            
25150223742020000250691368001744ARHAB                    RABAH                    14111969000J0000000000000J0000000000000J0000000000003J000057600000000057600001122020                            
25150223742020000251880506006448ARIBI                    BOUTHEYNA                16041988003M0035493750003M0033468750003M0031443750003M005266320000015306945002102016                            
25150223742020000252847781000239ARIDJA                   FADILA                   10121984003M0015200100003M0015200100003M0015200100003M001520010000006080040001122015                            
25150223742020000253791380004047ARIS                     SKANDER                  13081979003M0058159500003M0058159500003M0058159500003M007659150000025107000015112009                            
25150223742020000254791658002145AROUI                    MOUNIR                   30011979003M0007326330003M0007326330003M0007326330003M000732633000002930532031122010                            
25150223742020000255899376000132AROUI                    HOUSSEM                  18071989003M0006952110003M0006952110003M0006952110003M000695211000002780844020112016                            
25150223742020000256671516001657ARROUM                   KHALED                   29111967003M0012036075003M0012036075003M0012036075003M001470907500005081730026121990                            
25150223742020000257899281000136ARS                      MOHAMED LAMINE           17071989003M0015297300003M0015297300003M0015297300003M001529730000006118920001122015                            
25150223742020000258945199000435ASKRI                    HIND                     24041994000J0000000000003J0003690000000J0000000000000J000000000000000369000001032020                            
25150223742020000259590073030555ASSABAA                  RACHIDA                  00001959003M0091113600003M0091113600003M0091113600003M009111360000036445440009101983                            
25150223742020000260788920000246ASSABAA                  MOHAMED                  22071978003M0039912300003M0039912300003M0039912300003M003991230000015964920001102007                            
25150223742020000261930547008735ASSABAA                  IBTIHEL                  13021993003M0023771250003M0023771250003M0023771250003M002672325000009803700003072018                            
25150223742020000262751197000250ASSABAA                  SAMIRA                   22091975003M0009596400003M0009596400003M0009596400003M001221270000004100190020112016                            
25150223742020000263801876000845ASSAS                    SAMIHA                   10081980003M0044302500003M0044302500003M0044302500003M004657050000017947800030122007                            
25150223742020000264822142002062ASSAS                    SOUAD                    11071982003M0018429975003M0018429975003M0018429975003M002495857500008024850031122009                            
25150223742020000265755214000557ATMA                     FAHIMA                   27041975003M0020108700003M0020108700003M0020108700003M002386710000008419320022021998                            
25150223742020000266642525000362ATMA                     HOURIA                   25021964003M0022698675003M0022698675003M0022698675003M002791102500009600705010091988                            
25150223742020000267722698000443ATMA                     OMAR                     07031972003M0014049975003M0014049975003M0014049975003M002378385000006593377518122004                            
25150223742020000268607401000167ATMANI                   FADILA                   02111960003M0033375825003M0033375825003M0033375825003M004197622500014210370001092007                            
25150223742020000269626753000251ATMANI                   LATIFA                   04091962003M0036297150003M0036297150003M0036297150003M003629715000014518860003122005                            
25150223742020000270818643000247ATOUI                    MINA                     20061981003M0010428675003M0010428675003M0009865725003M000930277500004002585010122013                            
25150223742020000271794138000944ATOUI                    LOUBNA                   10101979003M0015200100003M0015200100003M0015200100003M001520010000006080040001122015                            
25150223742020000272580139011854ATTAF                    NADIR                    00001958003M0091113600003M0091113600003M0091113600003M010625760000037959840027061984                            
25150223742020000273765049000349ATTAF                    SONIA                    18041976003M0046497600003M0046497600003M0046497600003M006206175000020155455001112016                            
25150223742020000274935248000842ATTAF                    RAYANE                   10111993000J0000000000000J0000000000003J0000900000003J000036000000000126000001092020                            
25150223742020000275570134005259ATTALAH                  SALAH                    06121957003M0087916800003M0087916800003M0087916800003M009209742000035584782010101984                            
25150223742020000276741017004161ATTALLAOUI               SAMIR                    14071974003M0037688850003M0037688850003M0037688850003M005325300000016631955008102013                            
25150223742020000277952296003238ATTIA                    KHAWLA                   26071995000J0000000000000J0000000000003J0002160000003J000078000000000294000001092020                            
25150223742020000278856930000546AYACHE                   OUISSEM                  05051985003M0007533979003M0007533979003M0007533979003M000753397900003013591631122009                            
25150223742020000279871290005935AYACHE                   NOUR EL HOUDA            31071987003M0016609500003M0016609500003M0016609500003M002854500000007837350031122009                            
25150223742020000280580153017547AYACHI                   CHAABANE                 01071958003M0081487500003M0081487500003M0081487500003M009493779300033940029310101982                            
25150223742020000281771294002246AYACHI                   DALILA                   25011977003M0044302500003M0044302500003M0044302500003M005381460000018672210001122015                            
25150223742020000282894710001253AYACHI                   OUARDA SARIA             13041989000J0000000000000J0000000000000J0000000000003J000604800000000604800001122020                            
25150223742020000283720727006251AYACHI                   MOHAMED                  24081972003M0018410400003M0018410400003M0018410400003M001685280000007208400031122008                            
25150223742020000284791873001344AYAD                     ABDELHAK                 13071979000J0000000000000J0000000000003J0003066000003J001325400000001632000001092020                            
25150223742020000285826160000254AYAD                     ABLA                     28041982003M0034076265003M0034403775003M0027853575003M007093132500016726494015112009                            
25150223742020000286880036011060AYAD                     SOULEF                   00001988000J0000000000000J0000000000003J0004536000000J000000000000000453600001092020                            
25150223742020000287883412002057AYAD                     NESRINE                  12091988003M0013393800003M0014155200003M0014155200003M001671480000005841900010122013                            
25150223742020000288752041000958AYAD                     AMEL                     06101975003M0016429275003M0016429275003M0016429275003M002024640000006953422501122015                            
25150223742020000289750868006832AYADI                    OUARDA                   15051975003M0049992000003M0049992000003M0049992000003M002802880000017800480015112009                            
25150223742020000290801577001251AYADI                    AICHA                    08111980003M0037688850003M0037688850003M0037688850003M005325300000016631955006102013                            
25150223742020000291944918001741AYADI                    ABDERRAOUF OUSSAMA       31101994000J0000000000000J0000000000000J0000000000003J000303000000000303000001102019                            
25150223742020000292717031000162AYADI                    NAAMANE                  26061971003M0008137140003M0008137140003M0008137140003M000813714000003254856025101997                            
25150223742020000293610918000661AYAT                     SOUAD                    29011961003M0058680000003M0061920000003M0061920000003M006192000000024444000007091988                            
25150223742020000294809211000159AYAT                     NASREDDINE               13071980003M0010983609003M0010983609003M0010983609003M001098360900004393443617122005                            
25150223742020000295781893003139AYED                     LEILA                    00001978003M0009563550003M0009563550003M0009563550003M003230380000006099445030122010                            
25150223742020000296764524000850AZEROUAL                 SANNA                    05041976003M0007728872003M0007728872003M0007728872003M000772887200003091548801092004                            
25150223742020000297681886000344AZIBI                    KARIMA                   03061968000J0000000000000J0000000000000J0000000000003J001296000000001296000001122020                            
25150223742020000298540995002643AZIL                     DJAMEL                   04031954003M0045739050003M0051739050003M0045739050003M004573905000018895620003122002                            
25150223742020000299939213000350AZIOUNE                  ILHEM                    10071993000J0000000000000J0000000000003J0001620000003J000135000000000297000001092020                            
25150223742020000300713342000263AZIZ                     DJAMEL                   06121971003M0008261880003M0008261880003M0008261880003M000826188000003304752004121995                            
25150223742020000301825005000462AZIZ                     SAMY                     28101982003M0009270375003M0009270375003M0009270375003M001221067500004002180023022014                            
25150223742020000302790834004545AZIZI                    MANEL                    02091979003M0026972775003M0026972775003M0026972775003M003850942500011942775001102014                            
25150223742020000303794860000741AZIZI                    ASSIA                    27101979003M0044302500003M0044302500003M0046570500003M006387765000019905315001102007                            
25150223742020000304851191001252AZIZI                    DRISS                    16101985000M0000000000000M0000000000000M0000000000003M000792375000000792375001122020                            
25150223742020000305829058000144AZOUNE                   SABER                    30061982003M0017754300003M0017754300003M0017754300003M001972260000007298550022122013                            
25150223742020000306691472001450AZOUZ                    ZINEB                    04021969003M0055306350003M0055306350003M0055306350003M005530635000022122540020111995                            
25150223742020000307832209000560AZZAM                    NOUREDDINE               23121983003M0044299800003M0044299800003M0044299800003M003991230000017281170006102013                            
25150223742020000308884319001150AZZIZI                   ZINE ELABIDINE           30091988003M0007014480003M0007014480003M0007014480003M000701448000002805792001122015                            
25150223742020000309877216000349AZZOUZ                   SARRA                    17051987003M0037688850003M0037688850003M0037688850003M003131145000014437800001102014                            
25150223742020000310762782001048AZZOUZ                   FATIMA ZOHRA             21021976003M0016755300003M0016755300003M0016755300003M002223090000007249680017122005                            
25150223742020000311845914000153AZZOUZ                   KARIMA                   01111984003M0012535275003M0012535275003M0012535275003M001380281200005140863731122009                            
25150223742020000312733144000459AZZOUZ                   ABDELHAKIM               18111973003M0010040850003M0010040850003M0010040850003M001204560000004216815022062015                            
25150223742020000313750406009745BAADECHE                 MOHAMED                  13061975003M0039912300003M0039912300003M0039912300003M004495230000016468920002102017                            
25150223742020000314740178009436BAALI                    NACERA                   02011974003M0048721050003M0048721050003M0048721050003M004872105000019488420001102013                            
25150223742020000315850102043857BAALI                    SOUAD                    30111985003M0037688850003M0037688850003M0037688850003M004020885000015327540001102015                            
25150223742020000316570768000451BAAZIZ                   HOCINE                   00001957003M0051394200000M0000000000000M0000000000000M000000000000005139420005091987                            
25150223742020000317620210003669BAAZIZ                   NASSER                   24091962003M0081523200003M0081523200003M0081523200003M009168960000033625920020091989                            
25150223742020000318711335002361BABAA                    DJAMILA                  01021971003M0028585350003M0038305350003M0028585350003M005192369900014739974915112009                            
25150223742020000319751182001354BABAA                    FATIMA                   23061975003M0044302500003M0044302500003M0054214500003M005582250000019864200001102007                            
25150223742020000320739660000244BABOURI                  SAMIA                    15081973000J0000000000000J0000000000000J0000000000003J000050400000000050400001122020                            
25150223742020000321830007011664BABOURI                  NABIL                    02011983003M0016609500003M0016609500003M0016609500003M001660950000006643800031122009                            
25150223742020000322597129000250BACHKHAZNADJI            ABDELDJEBBAR             10111959003M0059724900003M0059724900003M0059724900003M005972490000023889960006031990                            
25150223742020000323722714000561BACHTARZI                KARINA                   09031972003M0042107400003M0042107400003M0042107400003M005088780000017721000025102010                            
25150223742020000324787762000438BACHTARZI                NADIA                    17061978003M0034403775003M0034403775003M0034403775003M005169727500015490860010112013                            
25150223742020000325540966000454BADACHE                  AHCENE                   11031954003M0061920000003M0061920000003M0061920000003M006192000000024768000008091981                            
25150223742020000326760035005652BADACHE                  SAAD                     22011976003M0034403775003M0034403775003M0034403775003M005018190000015339322502122006                            
25150223742020000327462007000668BADAOUI                  MAHMOUD                  17071946003M0059724900003M0059724900003M0059724900003M007289550000025207020015101975                            
25150223742020000328804249000353BADAOUI                  KHADIDJA                 25031980003M0013537650003M0013537650003M0013537650003M001712392500005773687501092002                            
25150223742020000329833080000256BADER                    ACHOUAK                  26021983003M0042107400003M0042107400003M0042107400003M004210740000016842960018102008                            
25150223742020000330610850001165BAGGA                    NADIA                    27111961003M0051394200003M0051394200003M0051394200003M005139420000020557680019111989                            
25150223742020000331891155003149BAGHDADI                 IMENE                    25011989000J0000000000000J0000000000003J0001170000003J000090000000000207000001092020                            
25150223742020000332787995000229BAGHDADI                 HANEN                    25061978003M0011020575003M0011020575003M0011020575003M001426530000004732702520112016                            
25150223742020000333800008018256BAGHRICHE                OUALID                   01011980003M0052584000003M0052584000003M0055356000003M005258400000021310800001102007                            
25150223742020000334840178004543BAGHRICHE                MARIEM                   22061984000J0000000000000J0000000000003J0004752000003J000165600000000640800001092020                            
25150223742020000335740897002440BAHCHACHI                NOURA                    09091974003M0053108550003M0053108550003M0053108550003M005530635000021463200001102002                            
25150223742020000336804251001357BAHCHACHI                YASMINA                  25031980003M0034403775003M0034403775003M0034403775003M003440377500013761510015112009                            
25150223742020000337676191000345BAHCHACHI                LAMIA                    13061967003M0028519200003M0028519200003M0028519200003M002851920000011407680001091996                            
25150223742020000338510368002061BAHI                     LAKHDAR                  22011951003M0091113600003M0091113600003M0091113600003M010625760000037959840011101982                            
25150223742020000339831320004558BAHI                     AHLEM                    03021983003M0041380800003M0047400000003M0047400000003M007697040000021315120022112010                            
25150223742020000340925490001243BAHI                     MERIEM                   27101992000J0000000000000J0000000000003J0001260000000J000000000000000126000001092020                            
25150223742020000341778071000146BAHI                     HOUDA                    02061977003M0009563550003M0009563550003M0009563550003M000956355000003825420030122010                            
25150223742020000342610006019952BAHLOUL                  FARIDA                   03011961003M0091113600003M0091113600003M0091113600003M009111360000036445440014101986                            
25150223742020000343520073009151BAHNOUS                  MEBAREK                  11091952003M0087916800003M0087916800003M0087916800003M008791680000035166720005101981                            
25150223742020000344620389001253BAHOULI                  FADILA                   23081962003M0011020575003M0011020575003M0011020575003M001426530000004732702520112016                            
25150223742020000345650393016342BAHRI                    LAID                     11051965003M0036297150003M0036297150003M0036297150003M005429715000016318860001112016                            
25150223742020000346650712001366BAHRI                    FATHIA                   16041965003M0062952000003M0062952000003M0062952000003M006295200000025180800001092013                            
25150223742020000347686364000147BAICHE                   NEDJMA                   21061968003M0012036075003M0012036075003M0012036075003M001437495000005048317528091987                            
25150223742020000348861270005247BAITICHE                 ZIDANE                   19121986000M0000000000000M0000000000000M0000000000003M000660312500000660312506122020                            
25150223742020000349720856000257BAITSA                   YOUCEF                   10051972003M0019042200003M0019042200003M0019042200003M001904220000007616880031122008                            
25150223742020000350482432000166BAKA                     MEBAREK                  15041948003M0099281100003M0099281100003M0099281100003M009928110000039712440001021978                            
25150223742020000351840584010845BAKHOUCHE                AMEL                     18101984000J0000000000000J0000000000003J0003672000000J000000000000000367200001092020                            
25150223742020000352690908003550BAKHOUCHE                FOUZIA                   20011969003M0007845803003M0007845803003M0007845803003M000784580300003138321206012001                            
25150223742020000353834858000442BAKHOUCHE                SARA                     24101983003M0009229425003M0009229425003M0009229425003M000922942500003691770030122010                            
25150223742020000354875232000155BAKIRI                   ESMA                     14101987003M0035493750003M0035493750003M0035493750003M004743750000015391875002102017                            
25150223742020000355817153000153BAKIRI                   IMENE                    25121981003M0017038800003M0016277400003M0017038800003M001727572500006763072501122015                            
25150223742020000356820287003446BAKKOUCHE                ASSAM                    09021982003M0017192700003M0017192700003M0017192700003M002330010000007487820031122009                            
25150223742020000357640652006647BAKOURA                  ATIKA                    26091964003M0029869200003M0029869200003M0029869200003M002986920000011947680002011989                            
25150223742020000358793140002156BALI                     RADIA                    28021979003M0013791450003M0013791450003M0013791450003M001414380000005551815001122014                            
25150223742020000359712680000256BALOUTH                  NOURREDDINE              18111971003M0011102442003M0011102442003M0011102442003M001286959200004617691801011999                            
25150223742020000360780058011452BAOUNI                   EL AICHA                 24011978000J0000000000000J0000000000003J0002808000003J000777600000001058400001092020                            
25150223742020000361540015014267BARAMA                   SALAH DINE               02011954003M0091113600003M0091113600003M0091113600003M009111360000036445440008091980                            
25150223742020000362765353000746BARECHE                  MOHAMED                  25041976003M0010907187003M0010907187003M0010907187003M001340198700004612354801102002                            
25150223742020000363884521000255BARECHE                  AMINA                    04101988003M0009083025003M0009083025003M0009083025003M000908302500003633210030122010                            
25150223742020000364874455001344BARECHE                  AMINA                    29091987003M0008771175003M0008771175003M0008771175003M000877117500003508470022062015                            
25150223742020000365710522002663BARKA                    ABDELMALEK               27091971003M0012388875003M0012388875003M0012388875003M001238887500004955550016021991                            
25150223742020000366649634000148BARKAT                   MALIKA                   27091964003M0089553000003M0089553000003M0089553000003M012496900000039362800015011997                            
25150223742020000367742034001164BARKAT                   OUARDA                   14021974003M0071932800003M0071932800003M0071932800003M008669280000030249120003092005                            
25150223742020000368670276006046BARKI                    HOCINE                   10031967003M0011360805003M0011360805003M0011360805003M001136080500004544322001121991                            
25150223742020000369720216001962BARKI                    AZZOU                    17021972003M0008164440003M0008164440003M0008164440003M000816444000003265776031122009                            
25150223742020000370828621000450BARKI                    SAMY                     22061982003M0007076850003M0007076850003M0007076850003M000728475000002851530023022014                            
25150223742020000371552183000555BARNOU                   ALI                      30061955003M0051394200003M0051394200003M0058706700003M005454420000021603930013111983                            
25150223742020000372660240005952BAROURA                  LAZHAR                   19011966003M0046497600003M0046497600003M0046497600003M004952160000018901440002102016                            
25150223742020000373590013022366BAROURI                  TAOUES                   00001959003M0091065000003M0091065000003M0091065000003M011209350000038528850001091988                            
25150223742020000374876131000155BATAICHE                 INSAF                    28041987003M0037688850003M0037688850003M0037688850003M003768885000015075540001102014                            
25150223742020000375894267000243BATTAZ                   ABDELBAKI                28101989000J0000000000000J0000000000000J0000000000003J000120000000000120000001122020                            
25150223742020000376914417001849BAZINE                   KHADIDJA                 10101991000J0000000000003J0003300000000J0000000000003J000189000000000519000001032020                            
25150223742020000377737989000133BAZINE                   ABDELHAKIM               04071973003M0012645375003M0012645375003M0012645375003M001264537500005058150008011995                            
25150223742020000378659592000138BAZRI                    KAMEL EDDINE             30091965003M0070444500003M0070444500003M0070444500003M008426850000029560200007112001                            
25150223742020000379761477001347BECHAR                   SAIDA                    14041976003M0032535375003M0030445575003M0032535375003M003253537500012805170023092012                            
25150223742020000380703229000262BECHIRI                  SORAYA                   22031970000J0000000000000J0000000000000J0000000000003J000045000000000045000001122020                            
25150223742020000381650875001449BECHKER                  FATIHA                   11111965003M0024610950003M0024610950003M0024610950003M002529540000009912825028031987                            
25150223742020000382806528000450BECHKRI                  SAKINA                   13051980000M0000000000000M0000000000000M0000000000003M001152000000001152000003122005                            
25150223742020000383711815001065BECHLEM                  ABDELHAMID               10021971003M0012645375003M0012645375003M0012645375003M001264537500005058150008011995                            
25150223742020000384620028009154BECHLEM                  AZZOUZ                   22121962003M0019535625003M0019535625003M0019535625003M002427412500008288100002111993                            
25150223742020000385500659001755BECHOUA                  ALLAOUA                  00001950003M0045739050003M0045739050003M0045739050003M005962381000019684096002111982                            
25150223742020000386726231000161BECILA                   KHALED                   14061972003M0012645375003M0012645375003M0012645375003M001264537500005058150003111993                            
25150223742020000387647952000147BECILA                   ATIFA                    03081964003M0018547500003M0018547500003M0018547500003M001854750000007419000005091987                            
25150223742020000388822969000839BEDJGHIT                 AMEL                     24021982003M0014495400003M0014495400003M0014495400003M001754910000006103530020112016                            
25150223742020000389739711000252BEDROUNE                 ABDELKADER               17081973003M0039912300003M0047472300003M0039912300003M005195985000017925675016102011                            
25150223742020000390721602001962BEDROUNE                 AMEL                     11021972003M0008437050003M0008437050003M0008437050003M000802935000003334050022062015                            
25150223742020000391770785003935BEGGOUG                  AHCEN                    20061977003M0014149200003M0014149200003M0014149200003M003133032500007377792531122009                            
25150223742020000392781867000741BEGHDAD                  FETH EZEHAR              25071978003M0009582225003M0009582225003M0009582225003M001226265000004100932520112016                            
25150223742020000393570654002256BEGHIDJA                 ABDELHADI                00001957003M0086923200003M0086923200003M0086923200003M008692320000034769280017011984                            
25150223742020000394722221001664BEGHIDJA                 ADEL                     24021972003M0073123500003M0073123500003M0073123500003M008349600000030286650006092006                            
25150223742020000395562113000172BEGHIDJA                 NOURREDDINE              20121956003M0020022375003M0020022375003M0020022375003M002002237500008008950008111983                            
25150223742020000396627022000164BEGHIDJA                 AMAR                     13091962003M0011155926003M0011155926003M0011155926003M001115592600004462370411121995                            
25150223742020000397855112000261BEGHIDJA                 HAMZA                    27091985003M0007781178003M0007781178003M0007781178003M000778117800003112471231122009                            
25150223742020000398864231001256BEGHIDJA                 IMENE                    03101986003M0009229425003M0009229425003M0009229425003M001257067500004025895030122010                            
25150223742020000399590371002949BEGHOUL                  YOUCEF                   00001959003M0093384300003M0093384300003M0093384300003M009943680000037958970002101984                            
25150223742020000400809331000154BEGHOUL                  SABER                    15071980003M0049992000003M0049992000003M0049992000003M006554400000021552000031122008                            
25150223742020000401806427000749BEGHRICHE                ABDELFATEH               20121980003M0039912300003M0039912300003M0039912300003M005068230000017041920023092012                            
25150223742020000402842623002454BEGHRICHE                HANANE                   16021984000J0000000000000J0000000000000J0000000000003J000972000000000972000001122020                            
25150223742020000403768176000438BEGHRICHE                NAOUAL                   06071976003M0009596400003M0009596400003M0009596400003M001221270000004100190020112016                            
25150223742020000404680282018834BEHLOUL                  CHERIF                   15051968003M0068736000003M0068736000003M0068736000003M006873600000027494400011092006                            
25150223742020000405543425000561BEKHOUCHE                FARIDA                   18091954003M0087916800003M0087916800003M0087916800003M010555680000036930720001101980                            
25150223742020000406860222022261BEKHOUCHE                DJAMEL                   22011986000M0000000000000M0000000000000M0000000000003M000792375000000792375001122020                            
25150223742020000407662970000648BEKKAI                   SOUHEILA                 07031966003M0024164100003M0024164100003M0024164100003M002416410000009665640007051991                            
25150223742020000408667763000144BEKKAR                   RIAD                     26071966003M0011155926003M0011155926003M0011155926003M001115592600004462370404121995                            
25150223742020000409824752000450BEKKOUCHE                HANANE                   28101982000J0000000000000J0000000000003J0002160000000J000000000000000216000001092020                            
25150223742020000410714593000248BEKKOUCHE                FATIMA                   21041971003M0014896425003M0014896425003M0014896425003M001489642500005958570015091991                            
25150223742020000411750381013647BEKKOUCHE                ABDELGHANI               06041975003M0008164440003M0008164440003M0008164440003M000816444000003265776031122009                            
25150223742020000412779895000128BEKKOUCHE                LINDA                    09081977003M0017192700003M0017192700003M0017192700003M002024640000007182450029122011                            
25150223742020000413795683000734BEKKOUCHE                FERIAL                   17041979003M0008125200003M0008125200003M0008125200003M001010025000003447585020112016                            
25150223742020000414870988008324BELAABED                 SOMIA                    19071987003M0023771250003M0023771250003M0023771250003M008511900000015643275009092018                            
25150223742020000415660133030860BELABED                  TOUFIK                   16021966003M0032535375003M0032535375003M0032535375003M004225537500013986150008102012                            
25150223742020000416735146001055BELABED                  SAMI                     21021973003M0068736000003M0068736000003M0068736000003M008451840000029072640003092005                            
25150223742020000417450288001553BELADIS                  KACEM                    29051945003M0041391450003M0041391450003M0041391450000M000000000000012417435015021981                            
25150223742020000418884186000935BELADJILA                KHADIDJA AYA             27091988000M0000000000000M0000000000000M0000000000003M002562012500002562012504092020                            
25150223742020000419530884001452BELAGHOUEG               ZOUBIDA                  14051953003M0091113600003M0091113600003M0091113600003M009111360000036445440018111984                            
25150223742020000420857288000137BELAHMADI                ESMA                     13111985003M0023771250003M0023771250003M0023771250003M002377125000009508500001092019                            
25150223742020000421852031000364BELAHOUANE               HOCINE                   21061985003M0030642000003M0030642000003M0030642000003M003064200000012256800001102014                            
25150223742020000422598051000152BELAHRACHE               DJALAL                   13121959003M0051394200003M0051394200003M0051394200003M005139420000020557680011101987                            
25150223742020000423665634000154BELAIB                   AMEL                     19051966003M0011987925003M0011987925003M0011987925003M001198792500004795170001021997                            
25150223742020000424761440001954BELAID                   DALILA                   19111976003M0042107400003M0042107400003M0042107400003M005381460000018013680002032014                            
25150223742020000425845821000650BELAID                   SOUMIA                   31101984003M0019236600003M0019236600003M0019236600003M001923660000007694640001122015                            
25150223742020000426703848000748BELAIDI                  SIHEM                    00001970003M0049992000003M0049992000003M0049992000003M004999200000019996800015112009                            
25150223742020000427827338001048BELAIDI                  OTTMAN                   14061982000M0000000000000M0000000000000M0000000000003M004941427000004941427001102014                            
25150223742020000428912266001153BELAIDI                  ITIDEL                   01081991000J0000000000000J0000000000003J0001080000000J000000000000000108000020112016                            
25150223742020000429701101005467BELAIDI                  DALILA                   01121970003M0007326330003M0007326330003M0007326330003M000732633000002930532030122010                            
25150223742020000430687549000241BELAISSAOUI              OUARDA                   03081968003M0043845690003M0043845690003M0043845690003M005520593000018674300001071999                            
25150223742020000431770686008133BELAKEHAL                SOLTANE                  11031977003M0042107400003M0042107400003M0042107400003M007234754000019866974025102010                            
25150223742020000432768974000135BELAKROUM                DOUNIA                   26071976003M0048690000003M0048690000003M0048690000003M005381190000019988190002122006                            
25150223742020000433853825001845BELAKROUM                KHEIREDDINE              06091985003M0037688850003M0037688850003M0037688850003M005325300000016631955006102013                            
25150223742020000434659891000136BELAKROUM                SAMIRA                   10101965003M0024142500003M0024142500003M0024142500003M002414250000009657000016101993                            
25150223742020000435510156003659BELALA                   RAMDANE                  17081951003M0014093000000M0000000000000M0000000000000M000000000000001409300022091982                            
25150223742020000436754580000447BELALA                   ZOHEIR                   12041975003M0034403775003M0037478775003M0034403775003M003440377500014069010001102017                            
25150223742020000437584183000152BELALOUI                 KARIM                    05071958003M0051394200003M0051394200003M0051394200003M005139420000020557680005091988                            
25150223742020000438617769000143BELALOUI                 NADIR                    01111961003M0091113600003M0091113600003M0100041600003M010625760000038852640003091986                            
25150223742020000439836235000154BELALOUI                 MOHAMED                  04051983003M0007658700003M0007658700003M0007658700003M000765870000003063480031122009                            
25150223742020000440810174019737BELAMRI                  ZEHIRA                   19011981003M0039912300003M0039912300003M0039912300003M007493809700019467499706102013                            
25150223742020000441870622001755BELAMRI                  MERIEM                   12011987003M0016124850003M0015202800003M0017046900003M002331603000007169058031122009                            
25150223742020000442881912004448BELAOUED                 MOHAMED                  04051988003M0009806250000M0000000000000M0000000000003M001152000000002132625002102016                            
25150223742020000443893922001051BELAOUIRA                RANDA                    27031989003M0023771250003M0023771250003M0023771250003M007665275000014796650014112018                            
25150223742020000444695242000452BELARIBI                 ABDELHAK OMAR            17051969003M0010446900003M0010446900003M0010446900003M001292550000004426620029122011                            
25150223742020000445756298000535BELATEL                  MIMI                     24051975003M0046497600003M0046497600003M0049857600003M004649760000018935040004102005                            
25150223742020000446832225000857BELATTAR                 SARA                     13071983003M0039912300003M0039912300003M0039912300003M003991230000015964920023092012                            
25150223742020000447840324001858BELATTAR                 NADJAH                   24011984000J0000000000000J0000000000003J0002376000003J000108000000000345600001092020                            
25150223742020000448807870000146BELBACHE                 HANENE                   14061980003M0039912300003M0039912300003M0039912300003M003991230000015964920004122011                            
25150223742020000449594624000157BELBACHIR                NADIA                    05071959003M0031131000003M0031131000003M0031131000003M003113100000012452400001071980                            
25150223742020000450787222000253BELBAZ                   ABDERRAZEK               10061978003M0014981400003M0013366800003M0014981400003M001498140000005831100031122009                            
25150223742020000451523686000152BELBEKRI                 TOUFIK                   16111952003M0051394200000M0000000000000M0000000000000M000000000000005139420001091980                            
25150223742020000452586548000246BELBEKRI                 MOHAMED NADIR            09111958003M0029560050003M0029560050003M0029560050003M002956005000011824020001121982                            
25150223742020000453876335000149BELBEKRI                 ADEL                     01051987003M0017800200003M0017800200003M0017800200003M001780020000007120080031122009                            
25150223742020000454740151025651BELDI                    RAZIKA                   28091974003M0044302500003M0044302500003M0044302500003M005527800000018818550001102015                            
25150223742020000455875505001054BELDI                    KARIMA                   15041987000M0000000000000M0000000000000M0000000000003M000943575000000943575001122020                            
25150223742020000456890761009135BELDJEDOUI               BESMA                    23061989003M0023771250003M0023771250003M0018749250003M002377125000009006300001092019                            
25150223742020000457790852003347BELDJEDOUI               NASSIMA                  14011979003M0008891700003M0008891700003M0008891700003M001091130000003758640001032017                            
25150223742020000458763741000156BELDJEZZAR               BORHANE                  29111976000J0000000000000J0000000000000J0000000000003J000132000000000132000001122020                            
25150223742020000459523462000360BELDJOUDI                FELLA SAMIA              27101952003M0025075440003M0025075440003M0025075440003M002507544000010030176015101977                            
25150223742020000460890976001934BELEBCHOUCHE             CHERIF                   08061989003M0044808000003M0044808000003M0044808000003M004705050000018147450001102015                            
25150223742020000461715764000249BELEULMI                 SALIMA                   30031971003M0044302500003M0044302500003M0044302500003M005582250000018873000001102012                            
25150223742020000462800547003453BELEULMI                 SALIHA                   09011980003M0044302500003M0041872500003M0044302500003M005381460000018429210002122006                            
25150223742020000463891959002634BELEULMI                 AMANI                    10021989000J0000000000000J0000000000000J0000000000003J000259200000000259200001122020                            
25150223742020000464803505002261BELEULMI                 HICHEM                   11101980003M0007139220003M0007139220003M0007139220003M000734712000002876478017032013                            
25150223742020000465554043000263BELFAITAH                ALI                      15101955003M0091113600003M0091113600003M0091113600003M010587360000037921440015011981                            
25150223742020000466942657003242BELFAR                   MEROUA                   16051994000J0000000000000J0000000000000J0000000000003J000288000000000288000001122020                            
25150223742020000467715801000263BELFRIEKH                HALIMA                   23051971000M0000000000000M0000000000000M0000000000003M000044550000000044550025091991                            
25150223742020000468849387000233BELFRIEKH                SAMIRA                   26061984003M0012535275003M0012535275003M0012535275003M001253527500005014110001042010                            
25150223742020000469878326000146BELFRIEKH                MOHAMED HAMZA            19121987003M0009083025003M0009083025003M0009083025003M001075365000003800272522062015                            
25150223742020000470530383000955BELGHIT                  AMARA                    00001953000J0000000000000J0000000000000J0000000000003J000076800000000076800001122020                            
25150223742020000471660764001947BELGHIT                  KOUIDER                  12111966003M0020667600003M0020667600003M0020667600003M002066760000008267040001092018                            
25150223742020000472710108004661BELGHIT                  ATHEMANE                 31031971003M0025453350003M0025453350003M0025453350003M002723467500010359472505011991                            
25150223742020000473926562000642BELGROUN                 AMIRA                    04081992003M0023771250003M0023771250003M0023771250003M002679525000009810900003072018                            
25150223742020000474773324001356BELGUECHI                MOUNIA                   14101977003M0044302500003M0044302500003M0044302500003M004430250000017721000001102007                            
25150223742020000475780194012940BELHADEF                 DJAMEL                   15081978003M0007970550003M0007970550003M0007970550003M000797055000003188220018072004                            
25150223742020000476840064002851BELHADROUF               SAMIR                    09071984003M0006952110003M0006952110003M0006952110003M000695211000002780844020112016                            
25150223742020000477793532000849BELHAFFAF                AMEL                     08031979003M0016552800003M0016552800003M0016552800003M001655280000006621120022122013                            
25150223742020000478646626000154BELHAMRI                 AZEDDINE                 20061964003M0084720000003M0084720000003M0084720000003M010161120000035577120001101992                            
25150223742020000479712279001449BELHANI                  AHMED                    21111971003M0060360000003M0060360000003M0070440000003M006624000000025740000001102012                            
25150223742020000480650463008146BELHANNACHI              HAMZA                    11011965003M0050916150003M0050916150003M0050916150003M005091615000020366460022072000                            
25150223742020000481921927004346BELHAS                   SOUMIA                   07021992000J0000000000003J0004500000000J0000000000000J000000000000000450000001032020                            
25150223742020000482770846002151BELHOCINE                YOUGHORTA                12011977000J0000000000000J0000000000000J0000000000003J000033600000000033600001122020                            
25150223742020000483590001031074BELHOUAHEM               RIAD                     01011959003M0087916800003M0090700800003M0087916800003M008791680000035445120001031986                            
25150223742020000484790791000446BELHOUAS                 RATIBA                   16081979003M0034403775003M0034403775003M0034403775003M004592377500014913510010122009                            
25150223742020000485724922000555BELHOUR                  SAMIRA                   08051972003M0036297150003M0036297150003M0036297150003M004923465000015812610006102013                            
25150223742020000486806978000238BELHOUR                  SOUAD                    25051980003M0035493750003M0035493750003M0035493750003M004660785000015308910002102016                            
25150223742020000487770333022456BELIMAME                 SOUHEILA                 01011977003M0010708725003M0010708725003M0010708725003M001070872500004283490025062015                            
25150223742020000488640565006643BELIMANE                 YAMINA                   28101964003M0065544000003M0065544000003M0065544000003M010064042700029727242702051983                            
25150223742020000489594368000148BELKACEM                 SIHAM                    22061959003M0042279000000M0000000000000M0000000000000M000000000000004227900001101987                            
25150223742020000490702870000752BELKACEMI                NEDJMA                   09121970003M0044302500003M0044302500003M0044302500003M004430250000017721000001102007                            
25150223742020000491801012011173BELKACEMI                ZOUBIR                   17091980003M0034403775003M0034403775003M0034403775003M003440377500013761510025102010                            
25150223742020000492854821000750BELKERK                  BOUBAKEUR ESEDI          21031985003M0047400000003M0047400000003M0047400000003M005712000000019932000023062013                            
25150223742020000493773379000244BELKERMI                 SAMEH                    14101977003M0028667700003M0030174300003M0030174300003M005453123200014354753202122006                            
25150223742020000494764455000844BELKHARCHOUCH            HAMOUDI                  03041976003M0007721070003M0007721070003M0007721070003M000772107000003088428031122008                            
25150223742020000495668614000152BELKHARCHOUCHE           MALIKA                   21081966003M0050916150003M0050916150003M0050916150003M005271990000020546835001102002                            
25150223742020000496680011006262BELKHARCHOUCHE           DRIFA                    12011968003M0043845690003M0043845690003M0043845690003M005646818000018800525031121995                            
25150223742020000497837217000352BELKHARCHOUCHE           NAZIHA                   18121983003M0034403775003M0034403775003M0034403775003M003440377500013761510002112009                            
25150223742020000498710733004951BELKHEIR                 LEILA                    14021971003M0075129600003M0075129600003M0075129600003M008152320000030691200001102018                            
25150223742020000499804813000854BELKHIR                  MESSAOUDA                12111980003M0012022950003M0012022950003M0012022950003M001663387500005270272529032011                            
25150223742020000500610107008854BELKHIRI                 ABDELMALIK               29031961000J0000000000000J0000000000000J0000000000003J001476000000001476000001122020                            
25150223742020000501661784000349BELKHIRI                 LOTFI                    08021966003M0084720000003M0084720000003M0084720000003M009948000000035364000015101994                            
25150223742020000502850352006645BELKHIRI                 NAWAL                    19031985003M0030642000003M0030642000003M0030642000003M003064200000012256800001102014                            
25150223742020000503850425017248BELKHIRI                 ADEL                     31031985003M0035542500003M0035542500003M0035542500003M004016210300014678960301102015                            
25150223742020000504860110049646BELKHIRI                 AYMAN                    11051986003M0045379800003M0045379800003M0045379800003M003991230000017605170001102014                            
25150223742020000505858287000334BELKHIRI                 CHERIFA                  25051985003M0008437050003M0008437050003M0008437050003M000843705000003374820001122014                            
25150223742020000506769033000448BELKHIRI                 SAMIR                    30071976003M0007076850003M0007076850003M0007076850003M000753423000002876478028012018                            
25150223742020000507783588000240BELLALOUI                MOHAMED                  15031978003M0013537650003M0013537650003M0013537650003M001609927500005671222501102002                            
25150223742020000508560395002647BELLAOUAR                AHMED                    25111956003M0096084300003M0096084300003M0096084300003M011084430000039909720016031992                            
25150223742020000509816592000639BELLARA                  SIHEM                    13121981003M0018553500003M0018553500003M0018553500003M001855350000007421400031122014                            
25150223742020000510790441005350BELLAROU                 KAMEL                    23041979000J0000000000000J0000000000000J0000000000003J000054000000000054000001122020                            
